{
  "contractName": "Blackjack",
  "abi": [
    {
      "inputs": [
        {
          "internalType": "uint256",
          "name": "_minimumBet",
          "type": "uint256"
        },
        {
          "internalType": "uint8",
          "name": "_maxPlayers",
          "type": "uint8"
        },
        {
          "internalType": "address",
          "name": "_main_contract_addr",
          "type": "address"
        }
      ],
      "stateMutability": "nonpayable",
      "type": "constructor"
    },
    {
      "anonymous": false,
      "inputs": [
        {
          "components": [
            {
              "internalType": "address",
              "name": "addr",
              "type": "address"
            },
            {
              "internalType": "uint256",
              "name": "bet",
              "type": "uint256"
            },
            {
              "internalType": "bool",
              "name": "hasVoted",
              "type": "bool"
            },
            {
              "internalType": "bool",
              "name": "isDealer",
              "type": "bool"
            },
            {
              "internalType": "uint8[]",
              "name": "playerCards",
              "type": "uint8[]"
            },
            {
              "internalType": "uint8",
              "name": "playerTotal",
              "type": "uint8"
            },
            {
              "internalType": "bool",
              "name": "hasStood",
              "type": "bool"
            },
            {
              "internalType": "int256",
              "name": "betResult",
              "type": "int256"
            }
          ],
          "indexed": false,
          "internalType": "struct Blackjack.Player[]",
          "name": "players",
          "type": "tuple[]"
        },
        {
          "indexed": false,
          "internalType": "enum Blackjack.GamePhase",
          "name": "phase",
          "type": "uint8"
        }
      ],
      "name": "GameStateChanged",
      "type": "event"
    },
    {
      "inputs": [],
      "name": "mainContractAddr",
      "outputs": [
        {
          "internalType": "address",
          "name": "",
          "type": "address"
        }
      ],
      "stateMutability": "view",
      "type": "function",
      "constant": true
    },
    {
      "inputs": [],
      "name": "maxPlayers",
      "outputs": [
        {
          "internalType": "uint8",
          "name": "",
          "type": "uint8"
        }
      ],
      "stateMutability": "view",
      "type": "function",
      "constant": true
    },
    {
      "inputs": [],
      "name": "minimumBet",
      "outputs": [
        {
          "internalType": "uint256",
          "name": "",
          "type": "uint256"
        }
      ],
      "stateMutability": "view",
      "type": "function",
      "constant": true
    },
    {
      "inputs": [],
      "name": "owner",
      "outputs": [
        {
          "internalType": "address",
          "name": "",
          "type": "address"
        }
      ],
      "stateMutability": "view",
      "type": "function",
      "constant": true
    },
    {
      "inputs": [],
      "name": "phase",
      "outputs": [
        {
          "internalType": "enum Blackjack.GamePhase",
          "name": "",
          "type": "uint8"
        }
      ],
      "stateMutability": "view",
      "type": "function",
      "constant": true
    },
    {
      "inputs": [],
      "name": "totalBets",
      "outputs": [
        {
          "internalType": "uint256",
          "name": "",
          "type": "uint256"
        }
      ],
      "stateMutability": "view",
      "type": "function",
      "constant": true
    },
    {
      "inputs": [],
      "name": "getPlayers",
      "outputs": [
        {
          "components": [
            {
              "internalType": "address",
              "name": "addr",
              "type": "address"
            },
            {
              "internalType": "uint256",
              "name": "bet",
              "type": "uint256"
            },
            {
              "internalType": "bool",
              "name": "hasVoted",
              "type": "bool"
            },
            {
              "internalType": "bool",
              "name": "isDealer",
              "type": "bool"
            },
            {
              "internalType": "uint8[]",
              "name": "playerCards",
              "type": "uint8[]"
            },
            {
              "internalType": "uint8",
              "name": "playerTotal",
              "type": "uint8"
            },
            {
              "internalType": "bool",
              "name": "hasStood",
              "type": "bool"
            },
            {
              "internalType": "int256",
              "name": "betResult",
              "type": "int256"
            }
          ],
          "internalType": "struct Blackjack.Player[]",
          "name": "",
          "type": "tuple[]"
        }
      ],
      "stateMutability": "view",
      "type": "function",
      "constant": true
    },
    {
      "inputs": [
        {
          "internalType": "uint256",
          "name": "bet",
          "type": "uint256"
        }
      ],
      "name": "joinGame",
      "outputs": [],
      "stateMutability": "nonpayable",
      "type": "function"
    },
    {
      "inputs": [],
      "name": "voteStart",
      "outputs": [],
      "stateMutability": "nonpayable",
      "type": "function"
    },
    {
      "inputs": [],
      "name": "hit",
      "outputs": [],
      "stateMutability": "nonpayable",
      "type": "function"
    },
    {
      "inputs": [],
      "name": "stand",
      "outputs": [],
      "stateMutability": "nonpayable",
      "type": "function"
    }
  ],
  "bytecode": "0x60806040526000600560006101000a81548160ff021916908360028111156200002d576200002c6200029a565b5b02179055503480156200003f57600080fd5b5060405162003788380380620037888339818101604052810190620000659190620003ac565b336000806101000a81548173ffffffffffffffffffffffffffffffffffffffff021916908373ffffffffffffffffffffffffffffffffffffffff1602179055508260028190555081600360006101000a81548160ff021916908360ff16021790555080600160006101000a81548173ffffffffffffffffffffffffffffffffffffffff021916908373ffffffffffffffffffffffffffffffffffffffff16021790555080600860006101000a81548173ffffffffffffffffffffffffffffffffffffffff021916908373ffffffffffffffffffffffffffffffffffffffff1602179055506001600560006101000a81548160ff021916908360028111156200017257620001716200029a565b5b0217905550600760009080600181540180825580915050600190039060005260206000200160009091909190916101000a81548173ffffffffffffffffffffffffffffffffffffffff021916908373ffffffffffffffffffffffffffffffffffffffff1602179055506001600660008073ffffffffffffffffffffffffffffffffffffffff1673ffffffffffffffffffffffffffffffffffffffff16815260200190815260200160002060020160016101000a81548160ff0219169083151502179055506001600660008073ffffffffffffffffffffffffffffffffffffffff1673ffffffffffffffffffffffffffffffffffffffff16815260200190815260200160002060020160006101000a81548160ff02191690831515021790555050505062000408565b7f4e487b7100000000000000000000000000000000000000000000000000000000600052602160045260246000fd5b600080fd5b6000819050919050565b620002e381620002ce565b8114620002ef57600080fd5b50565b6000815190506200030381620002d8565b92915050565b600060ff82169050919050565b620003218162000309565b81146200032d57600080fd5b50565b600081519050620003418162000316565b92915050565b600073ffffffffffffffffffffffffffffffffffffffff82169050919050565b6000620003748262000347565b9050919050565b620003868162000367565b81146200039257600080fd5b50565b600081519050620003a6816200037b565b92915050565b600080600060608486031215620003c857620003c7620002c9565b5b6000620003d886828701620002f2565b9350506020620003eb8682870162000330565b9250506040620003fe8682870162000395565b9150509250925092565b61337080620004186000396000f3fe608060405234801561001057600080fd5b50600436106100a95760003560e01c8063befa1e2f11610071578063befa1e2f14610130578063c2897b101461014e578063c2a5be8c14610158578063c38a8afd14610176578063e031535b14610194578063efaa55a01461019e576100a9565b80632ae3594a146100ae5780634c2412a2146100b85780638b5b9ccc146100d65780638da5cb5b146100f4578063b1c9fe6e14610112575b600080fd5b6100b66101ba565b005b6100c061039e565b6040516100cd919061238b565b60405180910390f35b6100de6103b1565b6040516100eb9190612664565b60405180910390f35b6100fc6103c0565b6040516101099190612695565b60405180910390f35b61011a6103e4565b6040516101279190612727565b60405180910390f35b6101386103f7565b6040516101459190612751565b60405180910390f35b6101566103fd565b005b61016061063b565b60405161016d9190612695565b60405180910390f35b61017e610661565b60405161018b9190612751565b60405180910390f35b61019c610667565b005b6101b860048036038101906101b3919061279d565b610994565b005b6000600660003373ffffffffffffffffffffffffffffffffffffffff1673ffffffffffffffffffffffffffffffffffffffff168152602001908152602001600020600101541161023f576040517f08c379a00000000000000000000000000000000000000000000000000000000081526004016102369061284d565b60405180910390fd5b600280811115610252576102516126b0565b5b600560009054906101000a900460ff166002811115610274576102736126b0565b5b146102b4576040517f08c379a00000000000000000000000000000000000000000000000000000000081526004016102ab906128df565b60405180910390fd5b600660003373ffffffffffffffffffffffffffffffffffffffff1673ffffffffffffffffffffffffffffffffffffffff16815260200190815260200160002060040160019054906101000a900460ff1615610344576040517f08c379a000000000000000000000000000000000000000000000000000000000815260040161033b90612971565b60405180910390fd5b61034d33610e55565b7ff322854e3396ba8cfe425eb22e44069de26977155aacda4d776c2aa28354fb10610376610f78565b600560009054906101000a900460ff16604051610394929190612991565b60405180910390a1565b600360009054906101000a900460ff1681565b60606103bb610f78565b905090565b60008054906101000a900473ffffffffffffffffffffffffffffffffffffffff1681565b600560009054906101000a900460ff1681565b60045481565b6000600660003373ffffffffffffffffffffffffffffffffffffffff1673ffffffffffffffffffffffffffffffffffffffff1681526020019081526020016000206001015411610482576040517f08c379a00000000000000000000000000000000000000000000000000000000081526004016104799061284d565b60405180910390fd5b600280811115610495576104946126b0565b5b600560009054906101000a900460ff1660028111156104b7576104b66126b0565b5b146104f7576040517f08c379a00000000000000000000000000000000000000000000000000000000081526004016104ee906128df565b60405180910390fd5b600660003373ffffffffffffffffffffffffffffffffffffffff1673ffffffffffffffffffffffffffffffffffffffff16815260200190815260200160002060040160019054906101000a900460ff1615610587576040517f08c379a000000000000000000000000000000000000000000000000000000000815260040161057e90612971565b60405180910390fd5b6001600660003373ffffffffffffffffffffffffffffffffffffffff1673ffffffffffffffffffffffffffffffffffffffff16815260200190815260200160002060040160016101000a81548160ff0219169083151502179055506105ea61128f565b7ff322854e3396ba8cfe425eb22e44069de26977155aacda4d776c2aa28354fb10610613610f78565b600560009054906101000a900460ff16604051610631929190612991565b60405180910390a1565b600160009054906101000a900473ffffffffffffffffffffffffffffffffffffffff1681565b60025481565b6000600660003373ffffffffffffffffffffffffffffffffffffffff1673ffffffffffffffffffffffffffffffffffffffff16815260200190815260200160002060010154116106ec576040517f08c379a00000000000000000000000000000000000000000000000000000000081526004016106e39061284d565b60405180910390fd5b60016002811115610700576106ff6126b0565b5b600560009054906101000a900460ff166002811115610722576107216126b0565b5b14610762576040517f08c379a000000000000000000000000000000000000000000000000000000000815260040161075990612a33565b60405180910390fd5b600660003373ffffffffffffffffffffffffffffffffffffffff1673ffffffffffffffffffffffffffffffffffffffff16815260200190815260200160002060020160009054906101000a900460ff16156107f2576040517f08c379a00000000000000000000000000000000000000000000000000000000081526004016107e990612ac5565b60405180910390fd5b6001600660003373ffffffffffffffffffffffffffffffffffffffff1673ffffffffffffffffffffffffffffffffffffffff16815260200190815260200160002060020160006101000a81548160ff021916908315150217905550600080600190505b6007805490508160ff16101561091d576006600060078360ff16815481106108805761087f612ae5565b5b9060005260206000200160009054906101000a900473ffffffffffffffffffffffffffffffffffffffff1673ffffffffffffffffffffffffffffffffffffffff1673ffffffffffffffffffffffffffffffffffffffff16815260200190815260200160002060020160009054906101000a900460ff161561090a57818061090690612b43565b9250505b808061091590612b43565b915050610855565b5060016007805490506109309190612b6c565b8160ff1603610942576109416119a8565b5b507ff322854e3396ba8cfe425eb22e44069de26977155aacda4d776c2aa28354fb1061096c610f78565b600560009054906101000a900460ff1660405161098a929190612991565b60405180910390a1565b600160028111156109a8576109a76126b0565b5b600560009054906101000a900460ff1660028111156109ca576109c96126b0565b5b14610a0a576040517f08c379a0000000000000000000000000000000000000000000000000000000008152600401610a0190612a33565b60405180910390fd5b600360009054906101000a900460ff1660ff166001600780549050610a2f9190612b6c565b1115610a70576040517f08c379a0000000000000000000000000000000000000000000000000000000008152600401610a6790612c12565b60405180910390fd5b600254811015610ab5576040517f08c379a0000000000000000000000000000000000000000000000000000000008152600401610aac90612ca4565b60405180910390fd5b6000600660003373ffffffffffffffffffffffffffffffffffffffff1673ffffffffffffffffffffffffffffffffffffffff1681526020019081526020016000206001015414610b3a576040517f08c379a0000000000000000000000000000000000000000000000000000000008152600401610b3190612d36565b60405180910390fd5b6000600860009054906101000a900473ffffffffffffffffffffffffffffffffffffffff1673ffffffffffffffffffffffffffffffffffffffff1663decebbce336040518263ffffffff1660e01b8152600401610b979190612695565b602060405180830381865afa158015610bb4573d6000803e3d6000fd5b505050506040513d601f19601f82011682018060405250810190610bd89190612d6b565b9050808210610c1c576040517f08c379a0000000000000000000000000000000000000000000000000000000008152600401610c1390612de4565b60405180910390fd5b600860009054906101000a900473ffffffffffffffffffffffffffffffffffffffff1673ffffffffffffffffffffffffffffffffffffffff166373d61b776040518163ffffffff1660e01b8152600401602060405180830381865afa158015610c89573d6000803e3d6000fd5b505050506040513d601f19601f82011682018060405250810190610cad9190612d6b565b6002600384600454610cbf9190612e04565b610cc99190612e38565b610cd39190612ea9565b1115610d14576040517f08c379a0000000000000000000000000000000000000000000000000000000008152600401610d0b90612f26565b60405180910390fd5b81600660003373ffffffffffffffffffffffffffffffffffffffff1673ffffffffffffffffffffffffffffffffffffffff168152602001908152602001600020600101819055506007339080600181540180825580915050600190039060005260206000200160009091909190916101000a81548173ffffffffffffffffffffffffffffffffffffffff021916908373ffffffffffffffffffffffffffffffffffffffff1602179055508160046000828254610dd09190612e04565b925050819055506001600560006101000a81548160ff02191690836002811115610dfd57610dfc6126b0565b5b0217905550507ff322854e3396ba8cfe425eb22e44069de26977155aacda4d776c2aa28354fb10610e2c610f78565b600560009054906101000a900460ff16604051610e4a929190612991565b60405180910390a150565b600060016034424485600660008873ffffffffffffffffffffffffffffffffffffffff1673ffffffffffffffffffffffffffffffffffffffff16815260200190815260200160002060030180549050604051602001610eb79493929190612faf565b6040516020818303038152906040528051906020012060001c610eda9190612ffd565b610ee4919061302e565b9050600660008373ffffffffffffffffffffffffffffffffffffffff1673ffffffffffffffffffffffffffffffffffffffff1681526020019081526020016000206003018190806001815401808255809150506001900390600052602060002090602091828204019190069091909190916101000a81548160ff021916908360ff160217905550610f7482611ba6565b5050565b6060600060078054905067ffffffffffffffff811115610f9b57610f9a613063565b5b604051908082528060200260200182016040528015610fd457816020015b610fc16121eb565b815260200190600190039081610fb95790505b50905060005b600780549050811015611287576006600060078381548110610fff57610ffe612ae5565b5b9060005260206000200160009054906101000a900473ffffffffffffffffffffffffffffffffffffffff1673ffffffffffffffffffffffffffffffffffffffff1673ffffffffffffffffffffffffffffffffffffffff168152602001908152602001600020604051806101000160405290816000820160009054906101000a900473ffffffffffffffffffffffffffffffffffffffff1673ffffffffffffffffffffffffffffffffffffffff1673ffffffffffffffffffffffffffffffffffffffff168152602001600182015481526020016002820160009054906101000a900460ff161515151581526020016002820160019054906101000a900460ff161515151581526020016003820180548060200260200160405190810160405280929190818152602001828054801561117b57602002820191906000526020600020906000905b82829054906101000a900460ff1660ff16815260200190600101906020826000010492830192600103820291508084116111445790505b505050505081526020016004820160009054906101000a900460ff1660ff1660ff1681526020016004820160019054906101000a900460ff161515151581526020016005820154815250508282815181106111d9576111d8612ae5565b5b6020026020010181905250600781815481106111f8576111f7612ae5565b5b9060005260206000200160009054906101000a900473ffffffffffffffffffffffffffffffffffffffff1682828151811061123657611235612ae5565b5b60200260200101516000019073ffffffffffffffffffffffffffffffffffffffff16908173ffffffffffffffffffffffffffffffffffffffff1681525050808061127f90613092565b915050610fda565b508091505090565b6000600190506000600190505b6007805490508110156113575760066000600783815481106112c1576112c0612ae5565b5b9060005260206000200160009054906101000a900473ffffffffffffffffffffffffffffffffffffffff1673ffffffffffffffffffffffffffffffffffffffff1673ffffffffffffffffffffffffffffffffffffffff16815260200190815260200160002060040160019054906101000a900460ff166113445760009150611357565b808061134f90613092565b91505061129c565b5080156119a5575b6011600660008073ffffffffffffffffffffffffffffffffffffffff1673ffffffffffffffffffffffffffffffffffffffff16815260200190815260200160002060040160009054906101000a900460ff1660ff1610156113c9576113c46000610e55565b61135f565b6000600660008073ffffffffffffffffffffffffffffffffffffffff1673ffffffffffffffffffffffffffffffffffffffff16815260200190815260200160002060040160009054906101000a900460ff169050600060158260ff161190506000600160078054905061143c9190612b6c565b67ffffffffffffffff81111561145557611454613063565b5b60405190808252806020026020018201604052801561148e57816020015b61147b61224f565b8152602001906001900390816114735790505b5090506000600190505b6007805490508110156118b9576000600782815481106114bb576114ba612ae5565b5b9060005260206000200160009054906101000a900473ffffffffffffffffffffffffffffffffffffffff1690506000600660008373ffffffffffffffffffffffffffffffffffffffff1673ffffffffffffffffffffffffffffffffffffffff16815260200190815260200160002060040160009054906101000a900460ff169050600060158260ff161190506000811580156115655750868061156457508260ff168860ff1611155b5b9050600060158460ff161480156115c157506002600660008773ffffffffffffffffffffffffffffffffffffffff1673ffffffffffffffffffffffffffffffffffffffff16815260200190815260200160002060030180549050145b9050600081156116825760026003600660008973ffffffffffffffffffffffffffffffffffffffff1673ffffffffffffffffffffffffffffffffffffffff1681526020019081526020016000206001015461161c9190612e38565b6116269190612ea9565b905060405180604001604052808773ffffffffffffffffffffffffffffffffffffffff16815260200182815250886001896116619190612b6c565b8151811061167257611671612ae5565b5b6020026020010181905250611859565b821561176957600660008773ffffffffffffffffffffffffffffffffffffffff1673ffffffffffffffffffffffffffffffffffffffff16815260200190815260200160002060010154905060405180604001604052808773ffffffffffffffffffffffffffffffffffffffff168152602001600660008973ffffffffffffffffffffffffffffffffffffffff1673ffffffffffffffffffffffffffffffffffffffff16815260200190815260200160002060010154815250886001896117489190612b6c565b8151811061175957611758612ae5565b5b6020026020010181905250611858565b600660008773ffffffffffffffffffffffffffffffffffffffff1673ffffffffffffffffffffffffffffffffffffffff168152602001908152602001600020600101546117b5906130da565b905060405180604001604052808773ffffffffffffffffffffffffffffffffffffffff168152602001600660008973ffffffffffffffffffffffffffffffffffffffff1673ffffffffffffffffffffffffffffffffffffffff1681526020019081526020016000206001015461182a906130da565b8152508860018961183b9190612b6c565b8151811061184c5761184b612ae5565b5b60200260200101819052505b5b80600660008873ffffffffffffffffffffffffffffffffffffffff1673ffffffffffffffffffffffffffffffffffffffff1681526020019081526020016000206005018190555050505050505080806118b190613092565b915050611498565b50600860009054906101000a900473ffffffffffffffffffffffffffffffffffffffff1673ffffffffffffffffffffffffffffffffffffffff166385a28ff68260006040518363ffffffff1660e01b815260040161191892919061320f565b600060405180830381600087803b15801561193257600080fd5b505af1158015611946573d6000803e3d6000fd5b505050507ff322854e3396ba8cfe425eb22e44069de26977155aacda4d776c2aa28354fb10611973610f78565b600560009054906101000a900460ff16604051611991929190612991565b60405180910390a16119a1611ef3565b5050505b50565b600160028111156119bc576119bb6126b0565b5b600560009054906101000a900460ff1660028111156119de576119dd6126b0565b5b14611a1e576040517f08c379a0000000000000000000000000000000000000000000000000000000008152600401611a1590612a33565b60405180910390fd5b600160078054905011611a66576040517f08c379a0000000000000000000000000000000000000000000000000000000008152600401611a5d9061328b565b60405180910390fd5b60005b6002811015611b785760005b6007805490508160ff161015611b6457600182148015611b025750600073ffffffffffffffffffffffffffffffffffffffff1660078260ff1681548110611abf57611abe612ae5565b5b9060005260206000200160009054906101000a900473ffffffffffffffffffffffffffffffffffffffff1673ffffffffffffffffffffffffffffffffffffffff16145b611b5157611b5060078260ff1681548110611b2057611b1f612ae5565b5b9060005260206000200160009054906101000a900473ffffffffffffffffffffffffffffffffffffffff16610e55565b5b8080611b5c90612b43565b915050611a75565b508080611b7090613092565b915050611a69565b506002600560006101000a81548160ff02191690836002811115611b9f57611b9e6126b0565b5b0217905550565b60008060005b600660008573ffffffffffffffffffffffffffffffffffffffff1673ffffffffffffffffffffffffffffffffffffffff16815260200190815260200160002060030180549050811015611cfd576000600d600660008773ffffffffffffffffffffffffffffffffffffffff1673ffffffffffffffffffffffffffffffffffffffff1681526020019081526020016000206003018381548110611c5157611c50612ae5565b5b90600052602060002090602091828204019190069054906101000a900460ff16611c7b91906132ab565b905060018160ff1603611caa578280611c9390612b43565b935050600b84611ca3919061302e565b9350611ce9565b600a8160ff16101580611cc0575060008160ff16145b15611cd957600a84611cd2919061302e565b9350611ce8565b8084611ce5919061302e565b93505b5b508080611cf590613092565b915050611bac565b505b60158260ff16118015611d15575060008160ff16115b15611d3c57600a82611d2791906132dc565b91508080611d3490613311565b915050611cff565b81600660008573ffffffffffffffffffffffffffffffffffffffff1673ffffffffffffffffffffffffffffffffffffffff16815260200190815260200160002060040160006101000a81548160ff021916908360ff16021790555060158260ff16148015611dd75750600073ffffffffffffffffffffffffffffffffffffffff168373ffffffffffffffffffffffffffffffffffffffff1614155b15611e44576001600660008573ffffffffffffffffffffffffffffffffffffffff1673ffffffffffffffffffffffffffffffffffffffff16815260200190815260200160002060040160016101000a81548160ff021916908315150217905550611e3f61128f565b611eee565b60158260ff16118015611e845750600073ffffffffffffffffffffffffffffffffffffffff168373ffffffffffffffffffffffffffffffffffffffff1614155b15611eed576001600660008573ffffffffffffffffffffffffffffffffffffffff1673ffffffffffffffffffffffffffffffffffffffff16815260200190815260200160002060040160016101000a81548160ff021916908315150217905550611eec61128f565b5b5b505050565b60005b60078054905081101561202d576006600060078381548110611f1b57611f1a612ae5565b5b9060005260206000200160009054906101000a900473ffffffffffffffffffffffffffffffffffffffff1673ffffffffffffffffffffffffffffffffffffffff1673ffffffffffffffffffffffffffffffffffffffff168152602001908152602001600020600080820160006101000a81549073ffffffffffffffffffffffffffffffffffffffff021916905560018201600090556002820160006101000a81549060ff02191690556002820160016101000a81549060ff0219169055600382016000611fe8919061227f565b6004820160006101000a81549060ff02191690556004820160016101000a81549060ff021916905560058201600090555050808061202590613092565b915050611ef6565b506007600061203c91906122a7565b600067ffffffffffffffff81111561205757612056613063565b5b6040519080825280602002602001820160405280156120855781602001602082028036833780820191505090505b506007908051906020019061209b9291906122c8565b50600760009080600181540180825580915050600190039060005260206000200160009091909190916101000a81548173ffffffffffffffffffffffffffffffffffffffff021916908373ffffffffffffffffffffffffffffffffffffffff1602179055506001600660008073ffffffffffffffffffffffffffffffffffffffff1673ffffffffffffffffffffffffffffffffffffffff16815260200190815260200160002060020160016101000a81548160ff0219169083151502179055506001600660008073ffffffffffffffffffffffffffffffffffffffff1673ffffffffffffffffffffffffffffffffffffffff16815260200190815260200160002060020160006101000a81548160ff0219169083151502179055506000600560006101000a81548160ff021916908360028111156121dc576121db6126b0565b5b02179055506000600481905550565b604051806101000160405280600073ffffffffffffffffffffffffffffffffffffffff1681526020016000815260200160001515815260200160001515815260200160608152602001600060ff168152602001600015158152602001600081525090565b6040518060400160405280600073ffffffffffffffffffffffffffffffffffffffff168152602001600081525090565b50805460008255601f0160209004906000526020600020908101906122a49190612352565b50565b50805460008255906000526020600020908101906122c59190612352565b50565b828054828255906000526020600020908101928215612341579160200282015b828111156123405782518260006101000a81548173ffffffffffffffffffffffffffffffffffffffff021916908373ffffffffffffffffffffffffffffffffffffffff160217905550916020019190600101906122e8565b5b50905061234e9190612352565b5090565b5b8082111561236b576000816000905550600101612353565b5090565b600060ff82169050919050565b6123858161236f565b82525050565b60006020820190506123a0600083018461237c565b92915050565b600081519050919050565b600082825260208201905092915050565b6000819050602082019050919050565b600073ffffffffffffffffffffffffffffffffffffffff82169050919050565b60006123fd826123d2565b9050919050565b61240d816123f2565b82525050565b6000819050919050565b61242681612413565b82525050565b60008115159050919050565b6124418161242c565b82525050565b600081519050919050565b600082825260208201905092915050565b6000819050602082019050919050565b61247c8161236f565b82525050565b600061248e8383612473565b60208301905092915050565b6000602082019050919050565b60006124b282612447565b6124bc8185612452565b93506124c783612463565b8060005b838110156124f85781516124df8882612482565b97506124ea8361249a565b9250506001810190506124cb565b5085935050505092915050565b6000819050919050565b61251881612505565b82525050565b6000610100830160008301516125376000860182612404565b50602083015161254a602086018261241d565b50604083015161255d6040860182612438565b5060608301516125706060860182612438565b506080830151848203608086015261258882826124a7565b91505060a083015161259d60a0860182612473565b5060c08301516125b060c0860182612438565b5060e08301516125c360e086018261250f565b508091505092915050565b60006125da838361251e565b905092915050565b6000602082019050919050565b60006125fa826123a6565b61260481856123b1565b935083602082028501612616856123c2565b8060005b85811015612652578484038952815161263385826125ce565b945061263e836125e2565b925060208a0199505060018101905061261a565b50829750879550505050505092915050565b6000602082019050818103600083015261267e81846125ef565b905092915050565b61268f816123f2565b82525050565b60006020820190506126aa6000830184612686565b92915050565b7f4e487b7100000000000000000000000000000000000000000000000000000000600052602160045260246000fd5b600381106126f0576126ef6126b0565b5b50565b6000819050612701826126df565b919050565b6000612711826126f3565b9050919050565b61272181612706565b82525050565b600060208201905061273c6000830184612718565b92915050565b61274b81612413565b82525050565b60006020820190506127666000830184612742565b92915050565b600080fd5b61277a81612413565b811461278557600080fd5b50565b60008135905061279781612771565b92915050565b6000602082840312156127b3576127b261276c565b5b60006127c184828501612788565b91505092915050565b600082825260208201905092915050565b7f596f7520617265206e6f742061207061727469636970616e7420696e2074686560008201527f2063757272656e742067616d6500000000000000000000000000000000000000602082015250565b6000612837602d836127ca565b9150612842826127db565b604082019050919050565b600060208201905081810360008301526128668161282a565b9050919050565b7f5468652067616d65206973206e6f7420696e2074686520706c6179696e67207060008201527f6861736500000000000000000000000000000000000000000000000000000000602082015250565b60006128c96024836127ca565b91506128d48261286d565b604082019050919050565b600060208201905081810360008301526128f8816128bc565b9050919050565b7f596f75206861766520616c72656164792073746f6f64206f722062757374656460008201527f2e00000000000000000000000000000000000000000000000000000000000000602082015250565b600061295b6021836127ca565b9150612966826128ff565b604082019050919050565b6000602082019050818103600083015261298a8161294e565b9050919050565b600060408201905081810360008301526129ab81856125ef565b90506129ba6020830184612718565b9392505050565b7f5468652067616d65206973206e6f7420696e207468652062657474696e67207060008201527f6861736500000000000000000000000000000000000000000000000000000000602082015250565b6000612a1d6024836127ca565b9150612a28826129c1565b604082019050919050565b60006020820190508181036000830152612a4c81612a10565b9050919050565b7f557365722068617320616c726561647920766f74656420666f7220746865207360008201527f74617274206f66207468652067616d6500000000000000000000000000000000602082015250565b6000612aaf6030836127ca565b9150612aba82612a53565b604082019050919050565b60006020820190508181036000830152612ade81612aa2565b9050919050565b7f4e487b7100000000000000000000000000000000000000000000000000000000600052603260045260246000fd5b7f4e487b7100000000000000000000000000000000000000000000000000000000600052601160045260246000fd5b6000612b4e8261236f565b915060ff8203612b6157612b60612b14565b5b600182019050919050565b6000612b7782612413565b9150612b8283612413565b9250828203905081811115612b9a57612b99612b14565b5b92915050565b7f546865206d6178696d756d206e756d626572206f6620706c617965727320776160008201527f7320726561636865640000000000000000000000000000000000000000000000602082015250565b6000612bfc6029836127ca565b9150612c0782612ba0565b604082019050919050565b60006020820190508181036000830152612c2b81612bef565b9050919050565b7f596f75206e65656420746f20626574206d6f7265207468616e20746865206d6960008201527f6e696d756d206265740000000000000000000000000000000000000000000000602082015250565b6000612c8e6029836127ca565b9150612c9982612c32565b604082019050919050565b60006020820190508181036000830152612cbd81612c81565b9050919050565b7f596f75206861766520616c726561647920656e7465726564207468652067616d60008201527f6500000000000000000000000000000000000000000000000000000000000000602082015250565b6000612d206021836127ca565b9150612d2b82612cc4565b604082019050919050565b60006020820190508181036000830152612d4f81612d13565b9050919050565b600081519050612d6581612771565b92915050565b600060208284031215612d8157612d8061276c565b5b6000612d8f84828501612d56565b91505092915050565b7f596f7520646f6e2774206861766520656e6f7567682066756e64730000000000600082015250565b6000612dce601b836127ca565b9150612dd982612d98565b602082019050919050565b60006020820190508181036000830152612dfd81612dc1565b9050919050565b6000612e0f82612413565b9150612e1a83612413565b9250828201905080821115612e3257612e31612b14565b5b92915050565b6000612e4382612413565b9150612e4e83612413565b9250828202612e5c81612413565b91508282048414831517612e7357612e72612b14565b5b5092915050565b7f4e487b7100000000000000000000000000000000000000000000000000000000600052601260045260246000fd5b6000612eb482612413565b9150612ebf83612413565b925082612ecf57612ece612e7a565b5b828204905092915050565b7f54686520636173696e6f2063616e2774206166666f726420796f757220626574600082015250565b6000612f106020836127ca565b9150612f1b82612eda565b602082019050919050565b60006020820190508181036000830152612f3f81612f03565b9050919050565b6000819050919050565b612f61612f5c82612413565b612f46565b82525050565b60008160601b9050919050565b6000612f7f82612f67565b9050919050565b6000612f9182612f74565b9050919050565b612fa9612fa4826123f2565b612f86565b82525050565b6000612fbb8287612f50565b602082019150612fcb8286612f50565b602082019150612fdb8285612f98565b601482019150612feb8284612f50565b60208201915081905095945050505050565b600061300882612413565b915061301383612413565b92508261302357613022612e7a565b5b828206905092915050565b60006130398261236f565b91506130448361236f565b9250828201905060ff81111561305d5761305c612b14565b5b92915050565b7f4e487b7100000000000000000000000000000000000000000000000000000000600052604160045260246000fd5b600061309d82612413565b91507fffffffffffffffffffffffffffffffffffffffffffffffffffffffffffffffff82036130cf576130ce612b14565b5b600182019050919050565b60006130e582612505565b91507f8000000000000000000000000000000000000000000000000000000000000000820361311757613116612b14565b5b816000039050919050565b600081519050919050565b600082825260208201905092915050565b6000819050602082019050919050565b6040820160008201516131646000850182612404565b506020820151613177602085018261250f565b50505050565b6000613189838361314e565b60408301905092915050565b6000602082019050919050565b60006131ad82613122565b6131b7818561312d565b93506131c28361313e565b8060005b838110156131f35781516131da888261317d565b97506131e583613195565b9250506001810190506131c6565b5085935050505092915050565b6132098161242c565b82525050565b6000604082019050818103600083015261322981856131a2565b90506132386020830184613200565b9392505050565b7f4e6f20706c6179657273206861766520706c6163656420626574730000000000600082015250565b6000613275601b836127ca565b91506132808261323f565b602082019050919050565b600060208201905081810360008301526132a481613268565b9050919050565b60006132b68261236f565b91506132c18361236f565b9250826132d1576132d0612e7a565b5b828206905092915050565b60006132e78261236f565b91506132f28361236f565b9250828203905060ff81111561330b5761330a612b14565b5b92915050565b600061331c8261236f565b91506000820361332f5761332e612b14565b5b60018203905091905056fea2646970667358221220ac0438ac52d351d8c3219a08367956dffa5553fc0226c4bb68bbb13974a7c79064736f6c63430008130033",
  "immutableReferences": {},
  "source": "// SPDX-License-Identifier: MIT\r\npragma solidity 0.8.19;\r\n\r\nimport \"./Structs.sol\";\r\n\r\n// Main contract interface\r\ninterface Main {\r\n\r\n    // The neccesary functions from the Main contract\r\n    function getFunds(address user) external view returns (uint256);\r\n    function getCasinoFunds() external view returns (uint256);\r\n    function modifyFunds(Structs.Payment[] memory payments, bool zero_sum) external;\r\n}\r\n\r\ncontract Blackjack {\r\n    // Possible game phases\r\n    enum GamePhase { Ended, Betting, Playing }\r\n\r\n    // Public variables\r\n    address public owner;\r\n    address public mainContractAddr;\r\n    uint256 public minimumBet;\r\n    uint8 public maxPlayers;\r\n    uint256 public totalBets; // The sum of bets across all players\r\n    GamePhase public phase = GamePhase.Ended;\r\n\r\n    // Player info. structure\r\n    struct Player {\r\n        // Basic player data\r\n        address addr;\r\n        uint256 bet;\r\n        bool hasVoted;\r\n        bool isDealer;\r\n\r\n        // Blackjack specific user data\r\n        uint8[] playerCards; \r\n        uint8 playerTotal;\r\n        bool hasStood;\r\n        int256 betResult;\r\n    }\r\n\r\n    // Private variables\r\n    mapping(address => Player) players;\r\n    address[] playerAddresses;\r\n    Main mainContract;\r\n\r\n    // Fired on state changes in the game, sends the information\r\n    event GameStateChanged(Player[] players, GamePhase phase);\r\n\r\n    // Modifiers for access to functions\r\n    modifier onlyOwner() {\r\n        require(msg.sender == owner, \"Only the owner can call this function\");\r\n        _;\r\n    }\r\n\r\n    modifier inBettingPhase() {\r\n        require(phase == GamePhase.Betting, \"The game is not in the betting phase\");\r\n        _;\r\n    }\r\n\r\n    modifier inPlayingPhase() {\r\n        require(phase == GamePhase.Playing, \"The game is not in the playing phase\");\r\n        _;\r\n    }\r\n\r\n    modifier onlyPlayers() {\r\n        require(players[msg.sender].bet > 0, \"You are not a participant in the current game\");\r\n        _;\r\n    }\r\n\r\n    modifier emitStateChange() {\r\n        _;\r\n        emit GameStateChanged(getPlayersInternal(), phase);\r\n    }\r\n\r\n    constructor(uint256 _minimumBet, uint8 _maxPlayers, address _main_contract_addr) {\r\n        owner = msg.sender;\r\n        minimumBet = _minimumBet;\r\n        maxPlayers = _maxPlayers;\r\n        mainContractAddr = _main_contract_addr;\r\n        mainContract = Main(_main_contract_addr);\r\n        phase = GamePhase.Betting;\r\n\r\n        // Insert the dealer player\r\n        playerAddresses.push(address(0));\r\n        players[address(0)].isDealer = true;\r\n        players[address(0)].hasVoted = true;\r\n    }\r\n\r\n        \r\n    // Get player information, only available at betting phase to not reveal dealer cards\r\n    function getPlayers() external view returns (Player[] memory) {\r\n        return getPlayersInternal();\r\n    } \r\n\r\n    function getPlayersInternal() internal view returns (Player[] memory) {\r\n        Player[] memory allPlayers = new Player[](playerAddresses.length);\r\n        for(uint256 i = 0; i < playerAddresses.length; i++ ) {\r\n            allPlayers[i] = players[playerAddresses[i]];\r\n            allPlayers[i].addr = playerAddresses[i]; // also add the address of the player to the emitted object\r\n        }\r\n        return allPlayers;\r\n    }\r\n\r\n    function joinGame(uint256 bet) external inBettingPhase emitStateChange {\r\n        require(playerAddresses.length - 1 <= maxPlayers, \"The maximum number of players was reached\");\r\n        \r\n        require(bet >= minimumBet, \"You need to bet more than the minimum bet\");\r\n\r\n        require(players[msg.sender].bet == 0, \"You have already entered the game\");\r\n\r\n        // Check in main contract if funds are enough\r\n        uint256 userFunds = mainContract.getFunds(msg.sender);\r\n        require(bet < userFunds, \"You don't have enough funds\");\r\n        \r\n        require(uint256((totalBets + bet) * 3  / 2) <= mainContract.getCasinoFunds(), \"The casino can't afford your bet\");\r\n\r\n        // Register player in the game\r\n        players[msg.sender].bet = bet;\r\n        playerAddresses.push(msg.sender);\r\n        totalBets += bet;\r\n\r\n        // Set phase to betting\r\n        phase = GamePhase.Betting;\r\n    }\r\n\r\n    function voteStart() external onlyPlayers inBettingPhase emitStateChange {\r\n        // Check if player is registered for the game and has not voted\r\n        require(!players[msg.sender].hasVoted, \"User has already voted for the start of the game\");\r\n        players[msg.sender].hasVoted = true;\r\n        \r\n        // Check if all played have voted, then start the game\r\n        uint8 votedCount;\r\n        // Skip the dealer by starting at 1\r\n        for (uint8 i = 1; i < playerAddresses.length; i++) {\r\n            if(players[playerAddresses[i]].hasVoted)\r\n                votedCount++;\r\n        }\r\n        // Start the game if all players have voted\r\n        if(votedCount == playerAddresses.length - 1)\r\n            startGame();\r\n    }\r\n    \r\n    function startGame() internal inBettingPhase {\r\n        // Require there is at least one non-dealer user in the game\r\n        require(playerAddresses.length > 1, \"No players have placed bets\");\r\n\r\n        // Deal two cards to each player and the dealer (the contract is the dealer)\r\n        for (uint256 i = 0; i < 2; i++) {\r\n            for (uint8 j = 0; j < playerAddresses.length; j++) {\r\n                if(i == 1 && playerAddresses[j] == address(0)) // dont create second dealer card\r\n                    continue;\r\n                else\r\n                    dealCard(playerAddresses[j]);\r\n            }\r\n        }\r\n        phase = GamePhase.Playing;\r\n    }\r\n\r\n    function dealCard(address _player) internal {\r\n        // Player receives a card\r\n        uint8 card = uint8(uint256(keccak256(abi.encodePacked(block.timestamp, block.prevrandao, _player, players[_player].playerCards.length))) % 52) + 1;\r\n        players[_player].playerCards.push(card);\r\n        calculatePlayerTotal(_player);\r\n    }\r\n\r\n    function calculatePlayerTotal(address _player) internal {\r\n        uint8 total = 0;\r\n        uint8 numAces = 0;\r\n\r\n        // Count nominal value\r\n        for (uint256 i = 0; i < players[_player].playerCards.length; i++) {\r\n            uint8 cardValue = (players[_player].playerCards[i] % 13);\r\n\r\n            if (cardValue == 1) {\r\n                // Ace\r\n                numAces++;\r\n                total += 11;\r\n            } else if (cardValue >= 10 || cardValue == 0) { // a king is zero in modulo 13\r\n                // Face cards and 10\r\n                total += 10;\r\n            } else {\r\n                total += cardValue;\r\n            }\r\n        }\r\n\r\n        // Adjust for aces\r\n        while (total > 21 && numAces > 0) {\r\n            total -= 10;\r\n            numAces--;\r\n        }\r\n\r\n        players[_player].playerTotal = total;\r\n\r\n        // Check if player has stood or busted\r\n        if (total == 21 && _player != address(0)) {\r\n            // Player got 21, stood automatically\r\n            players[_player].hasStood = true;\r\n            endPlayerTurn();\r\n        } else if (total > 21 && _player != address(0)) {\r\n            // Player busted\r\n            players[_player].hasStood = true;\r\n            endPlayerTurn();\r\n        }\r\n    }\r\n\r\n    // User turn actions\r\n    function hit() external onlyPlayers inPlayingPhase emitStateChange {\r\n        // Ensure the player has not stood or busted\r\n        require(!players[msg.sender].hasStood, \"You have already stood or busted.\");\r\n\r\n        // Deal a new card to the player\r\n        dealCard(msg.sender);\r\n    }\r\n\r\n    function stand() external onlyPlayers inPlayingPhase emitStateChange {\r\n        // Ensure the player has not stood or busted\r\n        require(!players[msg.sender].hasStood, \"You have already stood or busted.\");\r\n\r\n        // Stand and end turn\r\n        players[msg.sender].hasStood = true;\r\n        endPlayerTurn();\r\n    }\r\n    \r\n    function endPlayerTurn() internal {\r\n        // Check if all players have stood or busted\r\n        bool allPlayersDone = true;\r\n        for (uint256 i = 1; i < playerAddresses.length; i++) {\r\n            if (!players[playerAddresses[i]].hasStood) {\r\n                allPlayersDone = false;\r\n                break;\r\n            }\r\n        }\r\n        \r\n        if (allPlayersDone) {\r\n            // Dealer's turn\r\n            // Reveal second dealer card\r\n            while (players[address(0)].playerTotal < 17) {\r\n                // Deal with emiting reveal of all other cards\r\n                dealCard(address(0));\r\n            }\r\n\r\n            // Determine the winner\r\n            uint8 dealerTotal = players[address(0)].playerTotal;\r\n            bool dealerBusted = dealerTotal > 21;\r\n            // Initialize winnings array\r\n            Structs.Payment[] memory winnings = new Structs.Payment[](playerAddresses.length - 1);\r\n\r\n            // Start at 1 to skip dealer\r\n            for (uint256 i = 1; i < playerAddresses.length; i++) {\r\n                address playerAddr = playerAddresses[i];\r\n                uint8 playerTotal = players[playerAddr].playerTotal;\r\n                bool busted = playerTotal > 21;\r\n\r\n                // si dealerBusted ganas si ests stood y no busted\r\n                // si no dealerBusted ganas si ests stood, no busted y tienes ms puntos que el dealer\r\n                bool playerWon = !busted && (dealerBusted || dealerTotal <= playerTotal);\r\n                bool playerBlackjack = playerTotal == 21 && players[playerAddr].playerCards.length == 2;\r\n    \r\n    \r\n                // Insert into winnings array\r\n                int256 betResult;\r\n                if (playerBlackjack) {\r\n                    betResult = int256(players[playerAddr].bet * 3 / 2);\r\n                     winnings[i - 1] = Structs.Payment({\r\n                        addr: playerAddr,\r\n                        amount: betResult\r\n                    });\r\n                } else if (playerWon) {\r\n                    betResult = int256(players[playerAddr].bet);\r\n                    winnings[i - 1] = Structs.Payment({\r\n                        addr: playerAddr,\r\n                        amount: int256(players[playerAddr].bet)\r\n                    });\r\n                } else {\r\n                    betResult = -int256(players[playerAddr].bet);\r\n                    winnings[i - 1] = Structs.Payment({\r\n                        addr: playerAddr,\r\n                        amount:  -int256(players[playerAddr].bet)\r\n                    });\r\n                }\r\n                // Set the bet result in the player object\r\n                players[playerAddr].betResult = betResult;\r\n            }\r\n\r\n            // Pay out users\r\n            mainContract.modifyFunds(winnings, false);\r\n\r\n\r\n\r\n            // Emit one last event with the game results\r\n            emit GameStateChanged(getPlayersInternal(), phase);\r\n\r\n            // Reset game\r\n            resetGame();\r\n        }\r\n    }\r\n\r\n    function resetGame() internal {\r\n        // Delete players from previous game\r\n        for (uint256 i = 0; i < playerAddresses.length; i++) {\r\n            delete players[playerAddresses[i]];\r\n        }\r\n        // Clear the players array\r\n        delete playerAddresses;\r\n        playerAddresses = new address[](0);\r\n\r\n        // Insert the dealer player\r\n        playerAddresses.push(address(0));\r\n        players[address(0)].isDealer = true;\r\n        players[address(0)].hasVoted = true;\r\n        \r\n        // Set the phase to betting\r\n        phase = GamePhase.Ended;\r\n        totalBets = 0;\r\n    }\r\n}",
  "sourcePath": "C:\\Users\\Pablo\\Desktop\\DistributedCasino\\contracts\\Blackjack.sol",
  "compiler": {
    "name": "solc",
    "version": "0.8.19+commit.7dd6d404.Emscripten.clang"
  },
  "schemaVersion": "3.4.16",
  "updatedAt": "2023-12-10T14:48:39.695Z",
  "networkType": "ethereum",
  "devdoc": {
    "kind": "dev",
    "methods": {},
    "version": 1
  },
  "userdoc": {
    "kind": "user",
    "methods": {},
    "version": 1
  }
}