{
  "contractName": "Blackjack",
  "abi": [
    {
      "inputs": [
        {
          "internalType": "uint256",
          "name": "_minimumBet",
          "type": "uint256"
        },
        {
          "internalType": "uint8",
          "name": "_maxPlayers",
          "type": "uint8"
        },
        {
          "internalType": "address",
          "name": "_main_contract_addr",
          "type": "address"
        }
      ],
      "stateMutability": "nonpayable",
      "type": "constructor"
    },
    {
      "anonymous": false,
      "inputs": [
        {
          "indexed": true,
          "internalType": "address",
          "name": "player",
          "type": "address"
        },
        {
          "indexed": false,
          "internalType": "uint8",
          "name": "card",
          "type": "uint8"
        }
      ],
      "name": "CardDealt",
      "type": "event"
    },
    {
      "anonymous": false,
      "inputs": [
        {
          "indexed": true,
          "internalType": "address",
          "name": "player",
          "type": "address"
        },
        {
          "indexed": false,
          "internalType": "bool",
          "name": "hasWon",
          "type": "bool"
        },
        {
          "indexed": false,
          "internalType": "bool",
          "name": "hasBlackjack",
          "type": "bool"
        }
      ],
      "name": "GameResult",
      "type": "event"
    },
    {
      "anonymous": false,
      "inputs": [
        {
          "indexed": true,
          "internalType": "address",
          "name": "player",
          "type": "address"
        },
        {
          "indexed": false,
          "internalType": "uint256",
          "name": "amount",
          "type": "uint256"
        }
      ],
      "name": "PlayerJoined",
      "type": "event"
    },
    {
      "anonymous": false,
      "inputs": [
        {
          "indexed": true,
          "internalType": "address",
          "name": "player",
          "type": "address"
        },
        {
          "indexed": false,
          "internalType": "uint8",
          "name": "total",
          "type": "uint8"
        }
      ],
      "name": "PlayerStood",
      "type": "event"
    },
    {
      "inputs": [],
      "name": "mainContractAddr",
      "outputs": [
        {
          "internalType": "address",
          "name": "",
          "type": "address"
        }
      ],
      "stateMutability": "view",
      "type": "function",
      "constant": true
    },
    {
      "inputs": [],
      "name": "maxPlayers",
      "outputs": [
        {
          "internalType": "uint8",
          "name": "",
          "type": "uint8"
        }
      ],
      "stateMutability": "view",
      "type": "function",
      "constant": true
    },
    {
      "inputs": [],
      "name": "minimumBet",
      "outputs": [
        {
          "internalType": "uint256",
          "name": "",
          "type": "uint256"
        }
      ],
      "stateMutability": "view",
      "type": "function",
      "constant": true
    },
    {
      "inputs": [],
      "name": "owner",
      "outputs": [
        {
          "internalType": "address",
          "name": "",
          "type": "address"
        }
      ],
      "stateMutability": "view",
      "type": "function",
      "constant": true
    },
    {
      "inputs": [],
      "name": "phase",
      "outputs": [
        {
          "internalType": "enum Blackjack.GamePhase",
          "name": "",
          "type": "uint8"
        }
      ],
      "stateMutability": "view",
      "type": "function",
      "constant": true
    },
    {
      "inputs": [
        {
          "internalType": "uint256",
          "name": "",
          "type": "uint256"
        }
      ],
      "name": "playerAddresses",
      "outputs": [
        {
          "internalType": "address",
          "name": "",
          "type": "address"
        }
      ],
      "stateMutability": "view",
      "type": "function",
      "constant": true
    },
    {
      "inputs": [
        {
          "internalType": "address",
          "name": "",
          "type": "address"
        }
      ],
      "name": "players",
      "outputs": [
        {
          "internalType": "uint256",
          "name": "bet",
          "type": "uint256"
        },
        {
          "internalType": "bool",
          "name": "hasVoted",
          "type": "bool"
        },
        {
          "internalType": "bool",
          "name": "isDealer",
          "type": "bool"
        },
        {
          "internalType": "uint8",
          "name": "playerTotal",
          "type": "uint8"
        },
        {
          "internalType": "bool",
          "name": "hasStood",
          "type": "bool"
        }
      ],
      "stateMutability": "view",
      "type": "function",
      "constant": true
    },
    {
      "inputs": [],
      "name": "totalBets",
      "outputs": [
        {
          "internalType": "uint256",
          "name": "",
          "type": "uint256"
        }
      ],
      "stateMutability": "view",
      "type": "function",
      "constant": true
    },
    {
      "inputs": [
        {
          "internalType": "uint256",
          "name": "bet",
          "type": "uint256"
        }
      ],
      "name": "joinGame",
      "outputs": [],
      "stateMutability": "nonpayable",
      "type": "function"
    },
    {
      "inputs": [],
      "name": "voteStart",
      "outputs": [],
      "stateMutability": "nonpayable",
      "type": "function"
    },
    {
      "inputs": [],
      "name": "hit",
      "outputs": [],
      "stateMutability": "nonpayable",
      "type": "function"
    },
    {
      "inputs": [],
      "name": "stand",
      "outputs": [],
      "stateMutability": "nonpayable",
      "type": "function"
    }
  ],
  "bytecode": "0x60806040523480156200001157600080fd5b506040516200335b3803806200335b83398181016040528101906200003791906200034f565b336000806101000a81548173ffffffffffffffffffffffffffffffffffffffff021916908373ffffffffffffffffffffffffffffffffffffffff1602179055508260038190555081600460006101000a81548160ff021916908360ff16021790555080600160006101000a81548173ffffffffffffffffffffffffffffffffffffffff021916908373ffffffffffffffffffffffffffffffffffffffff16021790555080600260006101000a81548173ffffffffffffffffffffffffffffffffffffffff021916908373ffffffffffffffffffffffffffffffffffffffff1602179055506000600860006101000a81548160ff02191690836001811115620001445762000143620003ab565b5b0217905550600760009080600181540180825580915050600190039060005260206000200160009091909190916101000a81548173ffffffffffffffffffffffffffffffffffffffff021916908373ffffffffffffffffffffffffffffffffffffffff1602179055506001600660008073ffffffffffffffffffffffffffffffffffffffff1673ffffffffffffffffffffffffffffffffffffffff16815260200190815260200160002060010160016101000a81548160ff0219169083151502179055506001600660008073ffffffffffffffffffffffffffffffffffffffff1673ffffffffffffffffffffffffffffffffffffffff16815260200190815260200160002060010160006101000a81548160ff021916908315150217905550505050620003da565b600080fd5b6000819050919050565b620002868162000271565b81146200029257600080fd5b50565b600081519050620002a6816200027b565b92915050565b600060ff82169050919050565b620002c481620002ac565b8114620002d057600080fd5b50565b600081519050620002e481620002b9565b92915050565b600073ffffffffffffffffffffffffffffffffffffffff82169050919050565b60006200031782620002ea565b9050919050565b62000329816200030a565b81146200033557600080fd5b50565b60008151905062000349816200031e565b92915050565b6000806000606084860312156200036b576200036a6200026c565b5b60006200037b8682870162000295565b93505060206200038e86828701620002d3565b9250506040620003a18682870162000338565b9150509250925092565b7f4e487b7100000000000000000000000000000000000000000000000000000000600052602160045260246000fd5b612f7180620003ea6000396000f3fe608060405234801561001057600080fd5b50600436106100b45760003560e01c8063c2897b1011610071578063c2897b101461016b578063c2a5be8c14610175578063c38a8afd14610193578063e031535b146101b1578063e2eb41ff146101bb578063efaa55a0146101ef576100b4565b806315c6aee2146100b95780632ae3594a146100e95780634c2412a2146100f35780638da5cb5b14610111578063b1c9fe6e1461012f578063befa1e2f1461014d575b600080fd5b6100d360048036038101906100ce919061219c565b61020b565b6040516100e0919061220a565b60405180910390f35b6100f161024a565b005b6100fb6103e1565b6040516101089190612241565b60405180910390f35b6101196103f4565b604051610126919061220a565b60405180910390f35b610137610418565b60405161014491906122d3565b60405180910390f35b61015561042b565b60405161016291906122fd565b60405180910390f35b610173610431565b005b61017d6106bd565b60405161018a919061220a565b60405180910390f35b61019b6106e3565b6040516101a891906122fd565b60405180910390f35b6101b96106e9565b005b6101d560048036038101906101d09190612344565b6109b0565b6040516101e695949392919061238c565b60405180910390f35b6102096004803603810190610204919061219c565b610a1a565b005b6007818154811061021b57600080fd5b906000526020600020016000915054906101000a900473ffffffffffffffffffffffffffffffffffffffff1681565b6000600660003373ffffffffffffffffffffffffffffffffffffffff1673ffffffffffffffffffffffffffffffffffffffff16815260200190815260200160002060000154116102cf576040517f08c379a00000000000000000000000000000000000000000000000000000000081526004016102c690612462565b60405180910390fd5b6001808111156102e2576102e161225c565b5b600860009054906101000a900460ff1660018111156103045761030361225c565b5b14610344576040517f08c379a000000000000000000000000000000000000000000000000000000000815260040161033b906124f4565b60405180910390fd5b600660003373ffffffffffffffffffffffffffffffffffffffff1673ffffffffffffffffffffffffffffffffffffffff16815260200190815260200160002060030160019054906101000a900460ff16156103d4576040517f08c379a00000000000000000000000000000000000000000000000000000000081526004016103cb90612586565b60405180910390fd5b6103df336001610eaf565b565b600460009054906101000a900460ff1681565b60008054906101000a900473ffffffffffffffffffffffffffffffffffffffff1681565b600860009054906101000a900460ff1681565b60055481565b6000600660003373ffffffffffffffffffffffffffffffffffffffff1673ffffffffffffffffffffffffffffffffffffffff16815260200190815260200160002060000154116104b6576040517f08c379a00000000000000000000000000000000000000000000000000000000081526004016104ad90612462565b60405180910390fd5b6001808111156104c9576104c861225c565b5b600860009054906101000a900460ff1660018111156104eb576104ea61225c565b5b1461052b576040517f08c379a0000000000000000000000000000000000000000000000000000000008152600401610522906124f4565b60405180910390fd5b600660003373ffffffffffffffffffffffffffffffffffffffff1673ffffffffffffffffffffffffffffffffffffffff16815260200190815260200160002060030160019054906101000a900460ff16156105bb576040517f08c379a00000000000000000000000000000000000000000000000000000000081526004016105b290612586565b60405180910390fd5b6001600660003373ffffffffffffffffffffffffffffffffffffffff1673ffffffffffffffffffffffffffffffffffffffff16815260200190815260200160002060030160016101000a81548160ff0219169083151502179055503373ffffffffffffffffffffffffffffffffffffffff167fcf9491c50952c181187e767c568b4a5ba558d5b1d35f47d6307fa1d7709c5110600660003373ffffffffffffffffffffffffffffffffffffffff1673ffffffffffffffffffffffffffffffffffffffff16815260200190815260200160002060030160009054906101000a900460ff166040516106ab9190612241565b60405180910390a26106bb611028565b565b600160009054906101000a900473ffffffffffffffffffffffffffffffffffffffff1681565b60035481565b6000600660003373ffffffffffffffffffffffffffffffffffffffff1673ffffffffffffffffffffffffffffffffffffffff168152602001908152602001600020600001541161076e576040517f08c379a000000000000000000000000000000000000000000000000000000000815260040161076590612462565b60405180910390fd5b600060018111156107825761078161225c565b5b600860009054906101000a900460ff1660018111156107a4576107a361225c565b5b146107e4576040517f08c379a00000000000000000000000000000000000000000000000000000000081526004016107db90612618565b60405180910390fd5b600660003373ffffffffffffffffffffffffffffffffffffffff1673ffffffffffffffffffffffffffffffffffffffff16815260200190815260200160002060010160009054906101000a900460ff1615610874576040517f08c379a000000000000000000000000000000000000000000000000000000000815260040161086b906126aa565b60405180910390fd5b6001600660003373ffffffffffffffffffffffffffffffffffffffff1673ffffffffffffffffffffffffffffffffffffffff16815260200190815260200160002060010160006101000a81548160ff0219169083151502179055506000600190506000600190505b6007805490508160ff16101561099d576006600060078360ff1681548110610907576109066126ca565b5b9060005260206000200160009054906101000a900473ffffffffffffffffffffffffffffffffffffffff1673ffffffffffffffffffffffffffffffffffffffff1673ffffffffffffffffffffffffffffffffffffffff16815260200190815260200160002060010160009054906101000a900460ff1661098a576000915061099d565b808061099590612728565b9150506108dc565b5080156109ad576109ac611716565b5b50565b60066020528060005260406000206000915090508060000154908060010160009054906101000a900460ff16908060010160019054906101000a900460ff16908060030160009054906101000a900460ff16908060030160019054906101000a900460ff16905085565b60006001811115610a2e57610a2d61225c565b5b600860009054906101000a900460ff166001811115610a5057610a4f61225c565b5b14610a90576040517f08c379a0000000000000000000000000000000000000000000000000000000008152600401610a8790612618565b60405180910390fd5b600460009054906101000a900460ff1660ff166001600780549050610ab59190612751565b1115610af6576040517f08c379a0000000000000000000000000000000000000000000000000000000008152600401610aed906127f7565b60405180910390fd5b600354811015610b3b576040517f08c379a0000000000000000000000000000000000000000000000000000000008152600401610b3290612889565b60405180910390fd5b6000600260009054906101000a900473ffffffffffffffffffffffffffffffffffffffff1673ffffffffffffffffffffffffffffffffffffffff1663decebbce336040518263ffffffff1660e01b8152600401610b98919061220a565b602060405180830381865afa158015610bb5573d6000803e3d6000fd5b505050506040513d601f19601f82011682018060405250810190610bd991906128be565b9050808210610c1d576040517f08c379a0000000000000000000000000000000000000000000000000000000008152600401610c1490612937565b60405180910390fd5b600260009054906101000a900473ffffffffffffffffffffffffffffffffffffffff1673ffffffffffffffffffffffffffffffffffffffff166373d61b776040518163ffffffff1660e01b8152600401602060405180830381865afa158015610c8a573d6000803e3d6000fd5b505050506040513d601f19601f82011682018060405250810190610cae91906128be565b6002600384600554610cc09190612957565b610cca919061298b565b610cd491906129fc565b1115610d15576040517f08c379a0000000000000000000000000000000000000000000000000000000008152600401610d0c90612a79565b60405180910390fd5b6000600660003373ffffffffffffffffffffffffffffffffffffffff1673ffffffffffffffffffffffffffffffffffffffff1681526020019081526020016000206000015414610d9a576040517f08c379a0000000000000000000000000000000000000000000000000000000008152600401610d9190612ae5565b60405180910390fd5b81600660003373ffffffffffffffffffffffffffffffffffffffff1673ffffffffffffffffffffffffffffffffffffffff168152602001908152602001600020600001819055506007339080600181540180825580915050600190039060005260206000200160009091909190916101000a81548173ffffffffffffffffffffffffffffffffffffffff021916908373ffffffffffffffffffffffffffffffffffffffff1602179055508160056000828254610e569190612957565b925050819055503373ffffffffffffffffffffffffffffffffffffffff167f3330a6773675f31f62070870f40379f8c6d42e3761410011a4dfc42b18043d2f83604051610ea391906122fd565b60405180910390a25050565b600060016034424486600660008973ffffffffffffffffffffffffffffffffffffffff1673ffffffffffffffffffffffffffffffffffffffff16815260200190815260200160002060020180549050604051602001610f119493929190612b6e565b6040516020818303038152906040528051906020012060001c610f349190612bbc565b610f3e9190612bed565b9050600660008473ffffffffffffffffffffffffffffffffffffffff1673ffffffffffffffffffffffffffffffffffffffff1681526020019081526020016000206002018190806001815401808255809150506001900390600052602060002090602091828204019190069091909190916101000a81548160ff021916908360ff160217905550811561101a578273ffffffffffffffffffffffffffffffffffffffff167f946dcf24b8c08c25fbbe3a10158be25f72f147d17a725912e2af62a98ad05353826040516110119190612241565b60405180910390a25b61102383611968565b505050565b6000600190506000600190505b6007805490508110156110f057600660006007838154811061105a576110596126ca565b5b9060005260206000200160009054906101000a900473ffffffffffffffffffffffffffffffffffffffff1673ffffffffffffffffffffffffffffffffffffffff1673ffffffffffffffffffffffffffffffffffffffff16815260200190815260200160002060030160019054906101000a900460ff166110dd57600091506110f0565b80806110e890612c22565b915050611035565b508015611713576000600660008073ffffffffffffffffffffffffffffffffffffffff1673ffffffffffffffffffffffffffffffffffffffff16815260200190815260200160002060030160009054906101000a900460ff169050600073ffffffffffffffffffffffffffffffffffffffff167f946dcf24b8c08c25fbbe3a10158be25f72f147d17a725912e2af62a98ad05353600660008073ffffffffffffffffffffffffffffffffffffffff1673ffffffffffffffffffffffffffffffffffffffff1681526020019081526020016000206002016001815481106111d9576111d86126ca565b5b90600052602060002090602091828204019190069054906101000a900460ff166040516112069190612241565b60405180910390a25b60118160ff16101561122c5761122760006001610eaf565b61120f565b600060158260ff161190506000600160078054905061124b9190612751565b67ffffffffffffffff81111561126457611263612c6a565b5b60405190808252806020026020018201604052801561129d57816020015b61128a612041565b8152602001906001900390816112825790505b5090506000600190505b600780549050811015611676576000600782815481106112ca576112c96126ca565b5b9060005260206000200160009054906101000a900473ffffffffffffffffffffffffffffffffffffffff1690506000600660008373ffffffffffffffffffffffffffffffffffffffff1673ffffffffffffffffffffffffffffffffffffffff16815260200190815260200160002060030160009054906101000a900460ff169050600060158260ff161190506000811580156113745750868061137357508260ff168860ff1611155b5b9050600060158460ff161480156113d057506002600660008773ffffffffffffffffffffffffffffffffffffffff1673ffffffffffffffffffffffffffffffffffffffff16815260200190815260200160002060020180549050145b9050801561148c5760405180604001604052808673ffffffffffffffffffffffffffffffffffffffff16815260200160026003600660008a73ffffffffffffffffffffffffffffffffffffffff1673ffffffffffffffffffffffffffffffffffffffff16815260200190815260200160002060000154611450919061298b565b61145a91906129fc565b8152508760018861146b9190612751565b8151811061147c5761147b6126ca565b5b60200260200101819052506115d0565b811561152e5760405180604001604052808673ffffffffffffffffffffffffffffffffffffffff168152602001600660008873ffffffffffffffffffffffffffffffffffffffff1673ffffffffffffffffffffffffffffffffffffffff168152602001908152602001600020600001548152508760018861150d9190612751565b8151811061151e5761151d6126ca565b5b60200260200101819052506115cf565b60405180604001604052808673ffffffffffffffffffffffffffffffffffffffff168152602001600660008873ffffffffffffffffffffffffffffffffffffffff1673ffffffffffffffffffffffffffffffffffffffff168152602001908152602001600020600001546115a190612ca3565b815250876001886115b29190612751565b815181106115c3576115c26126ca565b5b60200260200101819052505b5b600786815481106115e4576115e36126ca565b5b9060005260206000200160009054906101000a900473ffffffffffffffffffffffffffffffffffffffff1673ffffffffffffffffffffffffffffffffffffffff167f27b3d3a8ae8f05414fbcd96abaebe645388209ffc816f9de9a0f4c92da5a3b428383604051611656929190612ceb565b60405180910390a25050505050808061166e90612c22565b9150506112a7565b50600260009054906101000a900473ffffffffffffffffffffffffffffffffffffffff1673ffffffffffffffffffffffffffffffffffffffff166385a28ff68260006040518363ffffffff1660e01b81526004016116d5929190612e10565b600060405180830381600087803b1580156116ef57600080fd5b505af1158015611703573d6000803e3d6000fd5b5050505061170f611d78565b5050505b50565b6000600181111561172a5761172961225c565b5b600860009054906101000a900460ff16600181111561174c5761174b61225c565b5b1461178c576040517f08c379a000000000000000000000000000000000000000000000000000000000815260040161178390612618565b60405180910390fd5b6001600780549050116117d4576040517f08c379a00000000000000000000000000000000000000000000000000000000081526004016117cb90612e8c565b60405180910390fd5b60005b600281101561193a5760005b6007805490508160ff161015611926576001821480156118705750600073ffffffffffffffffffffffffffffffffffffffff1660078260ff168154811061182d5761182c6126ca565b5b9060005260206000200160009054906101000a900473ffffffffffffffffffffffffffffffffffffffff1673ffffffffffffffffffffffffffffffffffffffff16145b156118c6576118c160078260ff168154811061188f5761188e6126ca565b5b9060005260206000200160009054906101000a900473ffffffffffffffffffffffffffffffffffffffff166000610eaf565b611913565b61191260078260ff16815481106118e0576118df6126ca565b5b9060005260206000200160009054906101000a900473ffffffffffffffffffffffffffffffffffffffff166001610eaf565b5b808061191e90612728565b9150506117e3565b50808061193290612c22565b9150506117d7565b506001600860006101000a81548160ff021916908360018111156119615761196061225c565b5b0217905550565b60008060005b600660008573ffffffffffffffffffffffffffffffffffffffff1673ffffffffffffffffffffffffffffffffffffffff16815260200190815260200160002060020180549050811015611abb5760006001600d600660008873ffffffffffffffffffffffffffffffffffffffff1673ffffffffffffffffffffffffffffffffffffffff1681526020019081526020016000206002018481548110611a1557611a146126ca565b5b90600052602060002090602091828204019190069054906101000a900460ff16611a3f9190612eac565b611a499190612bed565b905060018160ff1603611a78578280611a6190612728565b935050600b84611a719190612bed565b9350611aa7565b600a8160ff1610611a9757600a84611a909190612bed565b9350611aa6565b8084611aa39190612bed565b93505b5b508080611ab390612c22565b91505061196e565b505b60158260ff16118015611ad3575060008160ff16115b15611afa57600a82611ae59190612edd565b91508080611af290612f12565b915050611abd565b81600660008573ffffffffffffffffffffffffffffffffffffffff1673ffffffffffffffffffffffffffffffffffffffff16815260200190815260200160002060030160006101000a81548160ff021916908360ff16021790555060158260ff1603611c65576001600660008573ffffffffffffffffffffffffffffffffffffffff1673ffffffffffffffffffffffffffffffffffffffff16815260200190815260200160002060030160016101000a81548160ff0219169083151502179055508273ffffffffffffffffffffffffffffffffffffffff167fcf9491c50952c181187e767c568b4a5ba558d5b1d35f47d6307fa1d7709c5110600660008673ffffffffffffffffffffffffffffffffffffffff1673ffffffffffffffffffffffffffffffffffffffff16815260200190815260200160002060030160009054906101000a900460ff16604051611c509190612241565b60405180910390a2611c60611028565b611d73565b60158260ff161115611d72576001600660008573ffffffffffffffffffffffffffffffffffffffff1673ffffffffffffffffffffffffffffffffffffffff16815260200190815260200160002060030160016101000a81548160ff0219169083151502179055508273ffffffffffffffffffffffffffffffffffffffff167fcf9491c50952c181187e767c568b4a5ba558d5b1d35f47d6307fa1d7709c5110600660008673ffffffffffffffffffffffffffffffffffffffff1673ffffffffffffffffffffffffffffffffffffffff16815260200190815260200160002060030160009054906101000a900460ff16604051611d619190612241565b60405180910390a2611d71611028565b5b5b505050565b60005b600780549050811015611e83576006600060078381548110611da057611d9f6126ca565b5b9060005260206000200160009054906101000a900473ffffffffffffffffffffffffffffffffffffffff1673ffffffffffffffffffffffffffffffffffffffff1673ffffffffffffffffffffffffffffffffffffffff1681526020019081526020016000206000808201600090556001820160006101000a81549060ff02191690556001820160016101000a81549060ff0219169055600282016000611e469190612071565b6003820160006101000a81549060ff02191690556003820160016101000a81549060ff021916905550508080611e7b90612c22565b915050611d7b565b5060076000611e929190612099565b600067ffffffffffffffff811115611ead57611eac612c6a565b5b604051908082528060200260200182016040528015611edb5781602001602082028036833780820191505090505b5060079080519060200190611ef19291906120ba565b50600760009080600181540180825580915050600190039060005260206000200160009091909190916101000a81548173ffffffffffffffffffffffffffffffffffffffff021916908373ffffffffffffffffffffffffffffffffffffffff1602179055506001600660008073ffffffffffffffffffffffffffffffffffffffff1673ffffffffffffffffffffffffffffffffffffffff16815260200190815260200160002060010160016101000a81548160ff0219169083151502179055506001600660008073ffffffffffffffffffffffffffffffffffffffff1673ffffffffffffffffffffffffffffffffffffffff16815260200190815260200160002060010160006101000a81548160ff0219169083151502179055506000600860006101000a81548160ff021916908360018111156120325761203161225c565b5b02179055506000600581905550565b6040518060400160405280600073ffffffffffffffffffffffffffffffffffffffff168152602001600081525090565b50805460008255601f0160209004906000526020600020908101906120969190612144565b50565b50805460008255906000526020600020908101906120b79190612144565b50565b828054828255906000526020600020908101928215612133579160200282015b828111156121325782518260006101000a81548173ffffffffffffffffffffffffffffffffffffffff021916908373ffffffffffffffffffffffffffffffffffffffff160217905550916020019190600101906120da565b5b5090506121409190612144565b5090565b5b8082111561215d576000816000905550600101612145565b5090565b600080fd5b6000819050919050565b61217981612166565b811461218457600080fd5b50565b60008135905061219681612170565b92915050565b6000602082840312156121b2576121b1612161565b5b60006121c084828501612187565b91505092915050565b600073ffffffffffffffffffffffffffffffffffffffff82169050919050565b60006121f4826121c9565b9050919050565b612204816121e9565b82525050565b600060208201905061221f60008301846121fb565b92915050565b600060ff82169050919050565b61223b81612225565b82525050565b60006020820190506122566000830184612232565b92915050565b7f4e487b7100000000000000000000000000000000000000000000000000000000600052602160045260246000fd5b6002811061229c5761229b61225c565b5b50565b60008190506122ad8261228b565b919050565b60006122bd8261229f565b9050919050565b6122cd816122b2565b82525050565b60006020820190506122e860008301846122c4565b92915050565b6122f781612166565b82525050565b600060208201905061231260008301846122ee565b92915050565b612321816121e9565b811461232c57600080fd5b50565b60008135905061233e81612318565b92915050565b60006020828403121561235a57612359612161565b5b60006123688482850161232f565b91505092915050565b60008115159050919050565b61238681612371565b82525050565b600060a0820190506123a160008301886122ee565b6123ae602083018761237d565b6123bb604083018661237d565b6123c86060830185612232565b6123d5608083018461237d565b9695505050505050565b600082825260208201905092915050565b7f596f7520617265206e6f742061207061727469636970616e7420696e2074686560008201527f2063757272656e742067616d6500000000000000000000000000000000000000602082015250565b600061244c602d836123df565b9150612457826123f0565b604082019050919050565b6000602082019050818103600083015261247b8161243f565b9050919050565b7f5468652067616d65206973206e6f7420696e2074686520706c6179696e67207060008201527f6861736500000000000000000000000000000000000000000000000000000000602082015250565b60006124de6024836123df565b91506124e982612482565b604082019050919050565b6000602082019050818103600083015261250d816124d1565b9050919050565b7f596f75206861766520616c72656164792073746f6f64206f722062757374656460008201527f2e00000000000000000000000000000000000000000000000000000000000000602082015250565b60006125706021836123df565b915061257b82612514565b604082019050919050565b6000602082019050818103600083015261259f81612563565b9050919050565b7f5468652067616d65206973206e6f7420696e207468652062657474696e67207060008201527f6861736500000000000000000000000000000000000000000000000000000000602082015250565b60006126026024836123df565b915061260d826125a6565b604082019050919050565b60006020820190508181036000830152612631816125f5565b9050919050565b7f557365722068617320616c726561647920766f74656420666f7220746865207360008201527f74617274206f66207468652067616d6500000000000000000000000000000000602082015250565b60006126946030836123df565b915061269f82612638565b604082019050919050565b600060208201905081810360008301526126c381612687565b9050919050565b7f4e487b7100000000000000000000000000000000000000000000000000000000600052603260045260246000fd5b7f4e487b7100000000000000000000000000000000000000000000000000000000600052601160045260246000fd5b600061273382612225565b915060ff8203612746576127456126f9565b5b600182019050919050565b600061275c82612166565b915061276783612166565b925082820390508181111561277f5761277e6126f9565b5b92915050565b7f546865206d6178696d756d206e756d626572206f6620706c617965727320776160008201527f7320726561636865640000000000000000000000000000000000000000000000602082015250565b60006127e16029836123df565b91506127ec82612785565b604082019050919050565b60006020820190508181036000830152612810816127d4565b9050919050565b7f596f75206e65656420746f20626574206d6f7265207468616e20746865206d6960008201527f6e696d756d206265740000000000000000000000000000000000000000000000602082015250565b60006128736029836123df565b915061287e82612817565b604082019050919050565b600060208201905081810360008301526128a281612866565b9050919050565b6000815190506128b881612170565b92915050565b6000602082840312156128d4576128d3612161565b5b60006128e2848285016128a9565b91505092915050565b7f596f7520646f6e2774206861766520656e6f7567682066756e64730000000000600082015250565b6000612921601b836123df565b915061292c826128eb565b602082019050919050565b6000602082019050818103600083015261295081612914565b9050919050565b600061296282612166565b915061296d83612166565b9250828201905080821115612985576129846126f9565b5b92915050565b600061299682612166565b91506129a183612166565b92508282026129af81612166565b915082820484148315176129c6576129c56126f9565b5b5092915050565b7f4e487b7100000000000000000000000000000000000000000000000000000000600052601260045260246000fd5b6000612a0782612166565b9150612a1283612166565b925082612a2257612a216129cd565b5b828204905092915050565b7f54686520636173696e6f2063616e2774206166666f726420796f757220626574600082015250565b6000612a636020836123df565b9150612a6e82612a2d565b602082019050919050565b60006020820190508181036000830152612a9281612a56565b9050919050565b7f596f7527766520616c726561647920706c616365642061206265740000000000600082015250565b6000612acf601b836123df565b9150612ada82612a99565b602082019050919050565b60006020820190508181036000830152612afe81612ac2565b9050919050565b6000819050919050565b612b20612b1b82612166565b612b05565b82525050565b60008160601b9050919050565b6000612b3e82612b26565b9050919050565b6000612b5082612b33565b9050919050565b612b68612b63826121e9565b612b45565b82525050565b6000612b7a8287612b0f565b602082019150612b8a8286612b0f565b602082019150612b9a8285612b57565b601482019150612baa8284612b0f565b60208201915081905095945050505050565b6000612bc782612166565b9150612bd283612166565b925082612be257612be16129cd565b5b828206905092915050565b6000612bf882612225565b9150612c0383612225565b9250828201905060ff811115612c1c57612c1b6126f9565b5b92915050565b6000612c2d82612166565b91507fffffffffffffffffffffffffffffffffffffffffffffffffffffffffffffffff8203612c5f57612c5e6126f9565b5b600182019050919050565b7f4e487b7100000000000000000000000000000000000000000000000000000000600052604160045260246000fd5b6000819050919050565b6000612cae82612c99565b91507f80000000000000000000000000000000000000000000000000000000000000008203612ce057612cdf6126f9565b5b816000039050919050565b6000604082019050612d00600083018561237d565b612d0d602083018461237d565b9392505050565b600081519050919050565b600082825260208201905092915050565b6000819050602082019050919050565b612d49816121e9565b82525050565b612d5881612c99565b82525050565b604082016000820151612d746000850182612d40565b506020820151612d876020850182612d4f565b50505050565b6000612d998383612d5e565b60408301905092915050565b6000602082019050919050565b6000612dbd82612d14565b612dc78185612d1f565b9350612dd283612d30565b8060005b83811015612e03578151612dea8882612d8d565b9750612df583612da5565b925050600181019050612dd6565b5085935050505092915050565b60006040820190508181036000830152612e2a8185612db2565b9050612e39602083018461237d565b9392505050565b7f4e6f20706c6179657273206861766520706c6163656420626574730000000000600082015250565b6000612e76601b836123df565b9150612e8182612e40565b602082019050919050565b60006020820190508181036000830152612ea581612e69565b9050919050565b6000612eb782612225565b9150612ec283612225565b925082612ed257612ed16129cd565b5b828206905092915050565b6000612ee882612225565b9150612ef383612225565b9250828203905060ff811115612f0c57612f0b6126f9565b5b92915050565b6000612f1d82612225565b915060008203612f3057612f2f6126f9565b5b60018203905091905056fea2646970667358221220bc208edd04792a0591a09a7b39a5eae0c34bc15677ca191fe9ceba8693bf79f664736f6c63430008130033",
  "immutableReferences": {},
  "source": "// SPDX-License-Identifier: MIT\r\npragma solidity 0.8.19;\r\n\r\nimport \"./Structs.sol\";\r\n\r\n// Main contract interface\r\ninterface Main {\r\n\r\n    // The neccesary functions from the Main contract\r\n    function getFunds(address user) external view returns (uint256);\r\n    function getCasinoFunds() external view returns (uint256);\r\n    function modifyFunds(Structs.Payment[] memory payments, bool zero_sum) external;\r\n}\r\n\r\ncontract Blackjack {\r\n    address public owner;\r\n    address public mainContractAddr;\r\n    Main mainContract;\r\n    uint256 public minimumBet;\r\n    uint8 public maxPlayers;\r\n    uint256 public totalBets; // The sum of bets across all players\r\n\r\n    // Possible game phases\r\n    enum GamePhase { Betting, Playing }\r\n    \r\n    // Player info. structure\r\n    struct Player {\r\n        // Basic player data\r\n        uint256 bet;\r\n        bool hasVoted;\r\n        bool isDealer;\r\n\r\n        // Blackjack specific user data\r\n        uint8[] playerCards; \r\n        uint8 playerTotal;\r\n        bool hasStood;\r\n    }\r\n\r\n    // Mapping with players and list of them\r\n    mapping(address => Player) public players;\r\n    address[] public playerAddresses;\r\n\r\n    // Phase of the game\r\n    GamePhase public phase;\r\n    \r\n    // A player joined this game\r\n    event PlayerJoined(address indexed player, uint256 amount);\r\n    \r\n    // A card was dealt to a player\r\n    event CardDealt(address indexed player, uint8 card);\r\n\r\n    // A player has stood\r\n    event PlayerStood(address indexed player, uint8 total);\r\n\r\n    // What was the result of the player\r\n    event GameResult(address indexed player, bool hasWon, bool hasBlackjack);\r\n\r\n\r\n    // Modifiers for access to functions\r\n    modifier onlyOwner() {\r\n        require(msg.sender == owner, \"Only the owner can call this function\");\r\n        _;\r\n    }\r\n\r\n    modifier inBettingPhase() {\r\n        require(phase == GamePhase.Betting, \"The game is not in the betting phase\");\r\n        _;\r\n    }\r\n\r\n    modifier inPlayingPhase() {\r\n        require(phase == GamePhase.Playing, \"The game is not in the playing phase\");\r\n        _;\r\n    }\r\n\r\n    modifier onlyPlayers() {\r\n        require(players[msg.sender].bet > 0, \"You are not a participant in the current game\");\r\n        _;\r\n    }\r\n\r\n\r\n    constructor(uint256 _minimumBet, uint8 _maxPlayers, address _main_contract_addr) {\r\n        owner = msg.sender;\r\n        minimumBet = _minimumBet;\r\n        maxPlayers = _maxPlayers;\r\n        mainContractAddr = _main_contract_addr;\r\n        mainContract = Main(_main_contract_addr);\r\n        phase = GamePhase.Betting;\r\n\r\n        // Insert the dealer player\r\n        playerAddresses.push(address(0));\r\n        players[address(0)].isDealer = true;\r\n        players[address(0)].hasVoted = true;\r\n    }\r\n\r\n    function joinGame(uint256 bet) external inBettingPhase {\r\n        require(playerAddresses.length - 1 <= maxPlayers, \"The maximum number of players was reached\");\r\n        \r\n        require(bet >= minimumBet, \"You need to bet more than the minimum bet\");\r\n\r\n\r\n        // Check in main contract if funds are enough\r\n        uint256 userFunds = mainContract.getFunds(msg.sender);\r\n        require(bet < userFunds, \"You don't have enough funds\");\r\n        \r\n        require(uint256((totalBets + bet) * 3  / 2) <= mainContract.getCasinoFunds(), \"The casino can't afford your bet\");\r\n\r\n        // Check if user has already betted\r\n        require(players[msg.sender].bet == 0, \"You've already placed a bet\");\r\n\r\n        // Register player in the game\r\n        players[msg.sender].bet = bet;\r\n        playerAddresses.push(msg.sender);\r\n        totalBets += bet;\r\n\r\n        // Emit bet placed event\r\n        emit PlayerJoined(msg.sender, bet);\r\n    }\r\n\r\n    function voteStart() external onlyPlayers inBettingPhase {\r\n        // Check if player is registered for the game and has not voted\r\n        require(!players[msg.sender].hasVoted, \"User has already voted for the start of the game\");\r\n        players[msg.sender].hasVoted = true;\r\n        \r\n        // Check if all played have voted, then start the game\r\n        bool allVoted = true;\r\n        // Skip the dealer by starting at 1\r\n        for (uint8 i = 1; i < playerAddresses.length; i++) {\r\n            if(!players[playerAddresses[i]].hasVoted) {\r\n                allVoted = false;\r\n                break;\r\n            }\r\n        }\r\n\r\n        // Start the game\r\n        if(allVoted)\r\n            startGame();\r\n    }\r\n    \r\n    function startGame() internal inBettingPhase {\r\n        // Require there is at least one non-dealer user in the game\r\n        require(playerAddresses.length > 1, \"No players have placed bets\");\r\n\r\n        // Deal two cards to each player and the dealer (the contract is the dealer)\r\n        for (uint256 i = 0; i < 2; i++) {\r\n            for (uint8 j = 0; j < playerAddresses.length; j++) {\r\n                if(i == 1 && playerAddresses[j] == address(0)) // dont emit second dealer card\r\n                    dealCard(playerAddresses[j], false);\r\n                else\r\n                    dealCard(playerAddresses[j], true);\r\n            }\r\n        }\r\n\r\n        phase = GamePhase.Playing;\r\n    }\r\n\r\n    function dealCard(address _player, bool emitCard) internal {\r\n        // Player receives a card\r\n        uint8 card = uint8(uint256(keccak256(abi.encodePacked(block.timestamp, block.prevrandao, _player, players[_player].playerCards.length))) % 52) + 1;\r\n        players[_player].playerCards.push(card);\r\n        \r\n        if (emitCard)\r\n            emit CardDealt(_player, card);\r\n\r\n        calculatePlayerTotal(_player);\r\n    }\r\n\r\n    function calculatePlayerTotal(address _player) internal {\r\n        uint8 total = 0;\r\n        uint8 numAces = 0;\r\n\r\n        for (uint256 i = 0; i < players[_player].playerCards.length; i++) {\r\n            uint8 cardValue = (players[_player].playerCards[i] % 13) + 1;\r\n\r\n            if (cardValue == 1) {\r\n                // Ace\r\n                numAces++;\r\n                total += 11;\r\n            } else if (cardValue >= 10) {\r\n                // Face cards and 10\r\n                total += 10;\r\n            } else {\r\n                total += cardValue;\r\n            }\r\n        }\r\n\r\n        // Adjust for aces\r\n        while (total > 21 && numAces > 0) {\r\n            total -= 10;\r\n            numAces--;\r\n        }\r\n\r\n        players[_player].playerTotal = total;\r\n\r\n        // Check if player has stood or busted\r\n        if (total == 21) {\r\n            // Player got 21, stood automatically\r\n            players[_player].hasStood = true;\r\n            emit PlayerStood(_player, players[_player].playerTotal);\r\n            endPlayerTurn();\r\n        } else if (total > 21) {\r\n            // Player busted\r\n            players[_player].hasStood = true;\r\n            emit PlayerStood(_player, players[_player].playerTotal);\r\n            endPlayerTurn();\r\n        }\r\n    }\r\n\r\n    // User turn actions\r\n    function hit() external onlyPlayers inPlayingPhase {\r\n        // Ensure the player has not stood or busted\r\n        require(!players[msg.sender].hasStood, \"You have already stood or busted.\");\r\n\r\n        // Deal a new card to the player\r\n        dealCard(msg.sender, true);\r\n    }\r\n\r\n    function stand() external onlyPlayers inPlayingPhase {\r\n        // Ensure the player has not stood or busted\r\n        require(!players[msg.sender].hasStood, \"You have already stood or busted.\");\r\n\r\n        // Stand and end turn\r\n        players[msg.sender].hasStood = true;\r\n        emit PlayerStood(msg.sender, players[msg.sender].playerTotal);\r\n        endPlayerTurn();\r\n    }\r\n    \r\n    function endPlayerTurn() internal {\r\n        // Check if all players have stood or busted\r\n        bool allPlayersDone = true;\r\n        for (uint256 i = 1; i < playerAddresses.length; i++) {\r\n            if (!players[playerAddresses[i]].hasStood) {\r\n                allPlayersDone = false;\r\n                break;\r\n            }\r\n        }\r\n\r\n        if (allPlayersDone) {\r\n            // Dealer's turn\r\n            uint8 dealerTotal = players[address(0)].playerTotal;\r\n            // Reveal second dealer card\r\n            emit CardDealt(address(0), players[address(0)].playerCards[1]);\r\n            while (dealerTotal < 17) {\r\n                // Deal with emiting reveal of all other cards\r\n                dealCard(address(0), true);\r\n            }\r\n\r\n            // Determine the winner\r\n            bool dealerBusted = dealerTotal > 21;\r\n            \r\n            // Initialize winnings array\r\n            Structs.Payment[] memory winnings = new Structs.Payment[](playerAddresses.length - 1);\r\n\r\n            // Start at 1 to skip dealer\r\n            for (uint256 i = 1; i < playerAddresses.length; i++) {\r\n                address playerAddr = playerAddresses[i];\r\n                uint8 playerTotal = players[playerAddr].playerTotal;\r\n                bool busted = playerTotal > 21;\r\n\r\n                // si dealerBusted ganas si ests stood y no busted\r\n                // si no dealerBusted ganas si ests stood, no busted y tienes ms puntos que el dealer\r\n                bool playerWon = !busted && (dealerBusted || dealerTotal <= playerTotal);\r\n                bool playerBlackjack = playerTotal == 21 && players[playerAddr].playerCards.length == 2;\r\n    \r\n    \r\n                // Insert into winnings array\r\n                if (playerBlackjack) {\r\n                   winnings[i - 1] = Structs.Payment({\r\n                        addr: playerAddr,\r\n                        amount: int256(players[playerAddr].bet * 3 / 2)\r\n                    });\r\n                } else if (playerWon) {\r\n                    winnings[i - 1] = Structs.Payment({\r\n                        addr: playerAddr,\r\n                        amount: int256(players[playerAddr].bet)\r\n                    });\r\n                } else {\r\n                    winnings[i - 1] = Structs.Payment({\r\n                        addr: playerAddr,\r\n                        amount:  -int256(players[playerAddr].bet)\r\n                    });\r\n                }\r\n                emit GameResult(playerAddresses[i], playerWon, playerBlackjack);\r\n            }\r\n            // Pay out users\r\n            mainContract.modifyFunds(winnings, false);\r\n\r\n            // Reset game\r\n            resetGame();\r\n        }\r\n    }\r\n\r\n    function resetGame() internal {\r\n        // Delete players from previous game\r\n        for (uint256 i = 0; i < playerAddresses.length; i++) {\r\n            delete players[playerAddresses[i]];\r\n        }\r\n        // Clear the players array\r\n        delete playerAddresses;\r\n        playerAddresses = new address[](0);\r\n\r\n        // Insert the dealer player\r\n        playerAddresses.push(address(0));\r\n        players[address(0)].isDealer = true;\r\n        players[address(0)].hasVoted = true;\r\n        \r\n        // Set the phase to betting\r\n        phase = GamePhase.Betting;\r\n        totalBets = 0;\r\n    }\r\n}",
  "sourcePath": "C:\\Users\\Pablo\\Desktop\\DistributedCasino\\contracts\\Blackjack.sol",
  "compiler": {
    "name": "solc",
    "version": "0.8.19+commit.7dd6d404.Emscripten.clang"
  },
  "schemaVersion": "3.4.16",
  "updatedAt": "2023-12-07T23:23:31.518Z",
  "networkType": "ethereum",
  "devdoc": {
    "kind": "dev",
    "methods": {},
    "version": 1
  },
  "userdoc": {
    "kind": "user",
    "methods": {},
    "version": 1
  }
}