{
  "contractName": "Blackjack",
  "abi": [
    {
      "inputs": [
        {
          "internalType": "uint256",
          "name": "_minimumBet",
          "type": "uint256"
        },
        {
          "internalType": "uint8",
          "name": "_maxPlayers",
          "type": "uint8"
        },
        {
          "internalType": "address",
          "name": "_main_contract_addr",
          "type": "address"
        }
      ],
      "stateMutability": "nonpayable",
      "type": "constructor"
    },
    {
      "anonymous": false,
      "inputs": [
        {
          "components": [
            {
              "internalType": "address",
              "name": "addr",
              "type": "address"
            },
            {
              "internalType": "uint256",
              "name": "bet",
              "type": "uint256"
            },
            {
              "internalType": "bool",
              "name": "hasVoted",
              "type": "bool"
            },
            {
              "internalType": "bool",
              "name": "isDealer",
              "type": "bool"
            },
            {
              "internalType": "uint8[]",
              "name": "playerCards",
              "type": "uint8[]"
            },
            {
              "internalType": "uint8",
              "name": "playerTotal",
              "type": "uint8"
            },
            {
              "internalType": "bool",
              "name": "hasStood",
              "type": "bool"
            },
            {
              "internalType": "int256",
              "name": "betResult",
              "type": "int256"
            }
          ],
          "indexed": false,
          "internalType": "struct Blackjack.Player[]",
          "name": "players",
          "type": "tuple[]"
        },
        {
          "indexed": false,
          "internalType": "enum Blackjack.GamePhase",
          "name": "phase",
          "type": "uint8"
        }
      ],
      "name": "GameStateChanged",
      "type": "event"
    },
    {
      "inputs": [],
      "name": "mainContractAddr",
      "outputs": [
        {
          "internalType": "address",
          "name": "",
          "type": "address"
        }
      ],
      "stateMutability": "view",
      "type": "function",
      "constant": true
    },
    {
      "inputs": [],
      "name": "maxPlayers",
      "outputs": [
        {
          "internalType": "uint8",
          "name": "",
          "type": "uint8"
        }
      ],
      "stateMutability": "view",
      "type": "function",
      "constant": true
    },
    {
      "inputs": [],
      "name": "minimumBet",
      "outputs": [
        {
          "internalType": "uint256",
          "name": "",
          "type": "uint256"
        }
      ],
      "stateMutability": "view",
      "type": "function",
      "constant": true
    },
    {
      "inputs": [],
      "name": "owner",
      "outputs": [
        {
          "internalType": "address",
          "name": "",
          "type": "address"
        }
      ],
      "stateMutability": "view",
      "type": "function",
      "constant": true
    },
    {
      "inputs": [],
      "name": "phase",
      "outputs": [
        {
          "internalType": "enum Blackjack.GamePhase",
          "name": "",
          "type": "uint8"
        }
      ],
      "stateMutability": "view",
      "type": "function",
      "constant": true
    },
    {
      "inputs": [],
      "name": "totalBets",
      "outputs": [
        {
          "internalType": "uint256",
          "name": "",
          "type": "uint256"
        }
      ],
      "stateMutability": "view",
      "type": "function",
      "constant": true
    },
    {
      "inputs": [],
      "name": "getPlayers",
      "outputs": [
        {
          "components": [
            {
              "internalType": "address",
              "name": "addr",
              "type": "address"
            },
            {
              "internalType": "uint256",
              "name": "bet",
              "type": "uint256"
            },
            {
              "internalType": "bool",
              "name": "hasVoted",
              "type": "bool"
            },
            {
              "internalType": "bool",
              "name": "isDealer",
              "type": "bool"
            },
            {
              "internalType": "uint8[]",
              "name": "playerCards",
              "type": "uint8[]"
            },
            {
              "internalType": "uint8",
              "name": "playerTotal",
              "type": "uint8"
            },
            {
              "internalType": "bool",
              "name": "hasStood",
              "type": "bool"
            },
            {
              "internalType": "int256",
              "name": "betResult",
              "type": "int256"
            }
          ],
          "internalType": "struct Blackjack.Player[]",
          "name": "",
          "type": "tuple[]"
        }
      ],
      "stateMutability": "view",
      "type": "function",
      "constant": true
    },
    {
      "inputs": [
        {
          "internalType": "uint256",
          "name": "bet",
          "type": "uint256"
        }
      ],
      "name": "joinGame",
      "outputs": [],
      "stateMutability": "nonpayable",
      "type": "function"
    },
    {
      "inputs": [],
      "name": "voteStart",
      "outputs": [],
      "stateMutability": "nonpayable",
      "type": "function"
    },
    {
      "inputs": [],
      "name": "hit",
      "outputs": [],
      "stateMutability": "nonpayable",
      "type": "function"
    },
    {
      "inputs": [],
      "name": "stand",
      "outputs": [],
      "stateMutability": "nonpayable",
      "type": "function"
    }
  ],
  "bytecode": "0x60806040526000600560006101000a81548160ff021916908360028111156200002d576200002c6200029a565b5b02179055503480156200003f57600080fd5b506040516200367e3803806200367e8339818101604052810190620000659190620003ac565b336000806101000a81548173ffffffffffffffffffffffffffffffffffffffff021916908373ffffffffffffffffffffffffffffffffffffffff1602179055508260028190555081600360006101000a81548160ff021916908360ff16021790555080600160006101000a81548173ffffffffffffffffffffffffffffffffffffffff021916908373ffffffffffffffffffffffffffffffffffffffff16021790555080600860006101000a81548173ffffffffffffffffffffffffffffffffffffffff021916908373ffffffffffffffffffffffffffffffffffffffff1602179055506001600560006101000a81548160ff021916908360028111156200017257620001716200029a565b5b0217905550600760009080600181540180825580915050600190039060005260206000200160009091909190916101000a81548173ffffffffffffffffffffffffffffffffffffffff021916908373ffffffffffffffffffffffffffffffffffffffff1602179055506001600660008073ffffffffffffffffffffffffffffffffffffffff1673ffffffffffffffffffffffffffffffffffffffff16815260200190815260200160002060020160016101000a81548160ff0219169083151502179055506001600660008073ffffffffffffffffffffffffffffffffffffffff1673ffffffffffffffffffffffffffffffffffffffff16815260200190815260200160002060020160006101000a81548160ff02191690831515021790555050505062000408565b7f4e487b7100000000000000000000000000000000000000000000000000000000600052602160045260246000fd5b600080fd5b6000819050919050565b620002e381620002ce565b8114620002ef57600080fd5b50565b6000815190506200030381620002d8565b92915050565b600060ff82169050919050565b620003218162000309565b81146200032d57600080fd5b50565b600081519050620003418162000316565b92915050565b600073ffffffffffffffffffffffffffffffffffffffff82169050919050565b6000620003748262000347565b9050919050565b620003868162000367565b81146200039257600080fd5b50565b600081519050620003a6816200037b565b92915050565b600080600060608486031215620003c857620003c7620002c9565b5b6000620003d886828701620002f2565b9350506020620003eb8682870162000330565b9250506040620003fe8682870162000395565b9150509250925092565b61326680620004186000396000f3fe608060405234801561001057600080fd5b50600436106100a95760003560e01c8063befa1e2f11610071578063befa1e2f14610130578063c2897b101461014e578063c2a5be8c14610158578063c38a8afd14610176578063e031535b14610194578063efaa55a01461019e576100a9565b80632ae3594a146100ae5780634c2412a2146100b85780638b5b9ccc146100d65780638da5cb5b146100f4578063b1c9fe6e14610112575b600080fd5b6100b66101ba565b005b6100c061034f565b6040516100cd91906122a7565b60405180910390f35b6100de610362565b6040516100eb9190612580565b60405180910390f35b6100fc610371565b60405161010991906125b1565b60405180910390f35b61011a610395565b6040516101279190612643565b60405180910390f35b6101386103a8565b604051610145919061266d565b60405180910390f35b6101566103ae565b005b61016061059d565b60405161016d91906125b1565b60405180910390f35b61017e6105c3565b60405161018b919061266d565b60405180910390f35b61019c6105c9565b005b6101b860048036038101906101b391906126b9565b610931565b005b6000600660003373ffffffffffffffffffffffffffffffffffffffff1673ffffffffffffffffffffffffffffffffffffffff168152602001908152602001600020600101541161023f576040517f08c379a000000000000000000000000000000000000000000000000000000000815260040161023690612769565b60405180910390fd5b600280811115610252576102516125cc565b5b600560009054906101000a900460ff166002811115610274576102736125cc565b5b146102b4576040517f08c379a00000000000000000000000000000000000000000000000000000000081526004016102ab906127fb565b60405180910390fd5b600660003373ffffffffffffffffffffffffffffffffffffffff1673ffffffffffffffffffffffffffffffffffffffff16815260200190815260200160002060040160019054906101000a900460ff1615610344576040517f08c379a000000000000000000000000000000000000000000000000000000000815260040161033b9061288d565b60405180910390fd5b61034d33610df1565b565b600360009054906101000a900460ff1681565b606061036c610f14565b905090565b60008054906101000a900473ffffffffffffffffffffffffffffffffffffffff1681565b600560009054906101000a900460ff1681565b60045481565b6000600660003373ffffffffffffffffffffffffffffffffffffffff1673ffffffffffffffffffffffffffffffffffffffff1681526020019081526020016000206001015411610433576040517f08c379a000000000000000000000000000000000000000000000000000000000815260040161042a90612769565b60405180910390fd5b600280811115610446576104456125cc565b5b600560009054906101000a900460ff166002811115610468576104676125cc565b5b146104a8576040517f08c379a000000000000000000000000000000000000000000000000000000000815260040161049f906127fb565b60405180910390fd5b600660003373ffffffffffffffffffffffffffffffffffffffff1673ffffffffffffffffffffffffffffffffffffffff16815260200190815260200160002060040160019054906101000a900460ff1615610538576040517f08c379a000000000000000000000000000000000000000000000000000000000815260040161052f9061288d565b60405180910390fd5b6001600660003373ffffffffffffffffffffffffffffffffffffffff1673ffffffffffffffffffffffffffffffffffffffff16815260200190815260200160002060040160016101000a81548160ff02191690831515021790555061059b61122b565b565b600160009054906101000a900473ffffffffffffffffffffffffffffffffffffffff1681565b60025481565b6000600660003373ffffffffffffffffffffffffffffffffffffffff1673ffffffffffffffffffffffffffffffffffffffff168152602001908152602001600020600101541161064e576040517f08c379a000000000000000000000000000000000000000000000000000000000815260040161064590612769565b60405180910390fd5b600280811115610661576106606125cc565b5b600560009054906101000a900460ff166002811115610683576106826125cc565b5b036106c3576040517f08c379a00000000000000000000000000000000000000000000000000000000081526004016106ba906128f9565b60405180910390fd5b600660003373ffffffffffffffffffffffffffffffffffffffff1673ffffffffffffffffffffffffffffffffffffffff16815260200190815260200160002060020160009054906101000a900460ff1615610753576040517f08c379a000000000000000000000000000000000000000000000000000000000815260040161074a9061298b565b60405180910390fd5b6001600660003373ffffffffffffffffffffffffffffffffffffffff1673ffffffffffffffffffffffffffffffffffffffff16815260200190815260200160002060020160006101000a81548160ff021916908315150217905550600080600190505b6007805490508160ff16101561087e576006600060078360ff16815481106107e1576107e06129ab565b5b9060005260206000200160009054906101000a900473ffffffffffffffffffffffffffffffffffffffff1673ffffffffffffffffffffffffffffffffffffffff1673ffffffffffffffffffffffffffffffffffffffff16815260200190815260200160002060020160009054906101000a900460ff161561086b57818061086790612a09565b9250505b808061087690612a09565b9150506107b6565b5060016007805490506108919190612a32565b8160ff16036108a3576108a26119c4565b5b600060028111156108b7576108b66125cc565b5b600560009054906101000a900460ff1660028111156108d9576108d86125cc565b5b1461092e577ff322854e3396ba8cfe425eb22e44069de26977155aacda4d776c2aa28354fb10610907610f14565b600560009054906101000a900460ff16604051610925929190612a66565b60405180910390a15b50565b600280811115610944576109436125cc565b5b600560009054906101000a900460ff166002811115610966576109656125cc565b5b036109a6576040517f08c379a000000000000000000000000000000000000000000000000000000000815260040161099d906128f9565b60405180910390fd5b600360009054906101000a900460ff1660ff1660016007805490506109cb9190612a32565b1115610a0c576040517f08c379a0000000000000000000000000000000000000000000000000000000008152600401610a0390612b08565b60405180910390fd5b600254811015610a51576040517f08c379a0000000000000000000000000000000000000000000000000000000008152600401610a4890612b9a565b60405180910390fd5b6000600660003373ffffffffffffffffffffffffffffffffffffffff1673ffffffffffffffffffffffffffffffffffffffff1681526020019081526020016000206001015414610ad6576040517f08c379a0000000000000000000000000000000000000000000000000000000008152600401610acd90612c2c565b60405180910390fd5b6000600860009054906101000a900473ffffffffffffffffffffffffffffffffffffffff1673ffffffffffffffffffffffffffffffffffffffff1663decebbce336040518263ffffffff1660e01b8152600401610b3391906125b1565b602060405180830381865afa158015610b50573d6000803e3d6000fd5b505050506040513d601f19601f82011682018060405250810190610b749190612c61565b9050808210610bb8576040517f08c379a0000000000000000000000000000000000000000000000000000000008152600401610baf90612cda565b60405180910390fd5b600860009054906101000a900473ffffffffffffffffffffffffffffffffffffffff1673ffffffffffffffffffffffffffffffffffffffff166373d61b776040518163ffffffff1660e01b8152600401602060405180830381865afa158015610c25573d6000803e3d6000fd5b505050506040513d601f19601f82011682018060405250810190610c499190612c61565b6002600384600454610c5b9190612cfa565b610c659190612d2e565b610c6f9190612d9f565b1115610cb0576040517f08c379a0000000000000000000000000000000000000000000000000000000008152600401610ca790612e1c565b60405180910390fd5b81600660003373ffffffffffffffffffffffffffffffffffffffff1673ffffffffffffffffffffffffffffffffffffffff168152602001908152602001600020600101819055506007339080600181540180825580915050600190039060005260206000200160009091909190916101000a81548173ffffffffffffffffffffffffffffffffffffffff021916908373ffffffffffffffffffffffffffffffffffffffff1602179055508160046000828254610d6c9190612cfa565b925050819055506001600560006101000a81548160ff02191690836002811115610d9957610d986125cc565b5b02179055507ff322854e3396ba8cfe425eb22e44069de26977155aacda4d776c2aa28354fb10610dc7610f14565b600560009054906101000a900460ff16604051610de5929190612a66565b60405180910390a15050565b600060016034424485600660008873ffffffffffffffffffffffffffffffffffffffff1673ffffffffffffffffffffffffffffffffffffffff16815260200190815260200160002060030180549050604051602001610e539493929190612ea5565b6040516020818303038152906040528051906020012060001c610e769190612ef3565b610e809190612f24565b9050600660008373ffffffffffffffffffffffffffffffffffffffff1673ffffffffffffffffffffffffffffffffffffffff1681526020019081526020016000206003018190806001815401808255809150506001900390600052602060002090602091828204019190069091909190916101000a81548160ff021916908360ff160217905550610f1082611b4c565b5050565b6060600060078054905067ffffffffffffffff811115610f3757610f36612f59565b5b604051908082528060200260200182016040528015610f7057816020015b610f5d612107565b815260200190600190039081610f555790505b50905060005b600780549050811015611223576006600060078381548110610f9b57610f9a6129ab565b5b9060005260206000200160009054906101000a900473ffffffffffffffffffffffffffffffffffffffff1673ffffffffffffffffffffffffffffffffffffffff1673ffffffffffffffffffffffffffffffffffffffff168152602001908152602001600020604051806101000160405290816000820160009054906101000a900473ffffffffffffffffffffffffffffffffffffffff1673ffffffffffffffffffffffffffffffffffffffff1673ffffffffffffffffffffffffffffffffffffffff168152602001600182015481526020016002820160009054906101000a900460ff161515151581526020016002820160019054906101000a900460ff161515151581526020016003820180548060200260200160405190810160405280929190818152602001828054801561111757602002820191906000526020600020906000905b82829054906101000a900460ff1660ff16815260200190600101906020826000010492830192600103820291508084116110e05790505b505050505081526020016004820160009054906101000a900460ff1660ff1660ff1681526020016004820160019054906101000a900460ff16151515158152602001600582015481525050828281518110611175576111746129ab565b5b602002602001018190525060078181548110611194576111936129ab565b5b9060005260206000200160009054906101000a900473ffffffffffffffffffffffffffffffffffffffff168282815181106111d2576111d16129ab565b5b60200260200101516000019073ffffffffffffffffffffffffffffffffffffffff16908173ffffffffffffffffffffffffffffffffffffffff1681525050808061121b90612f88565b915050610f76565b508091505090565b6000600190506000600190505b6007805490508110156112f357600660006007838154811061125d5761125c6129ab565b5b9060005260206000200160009054906101000a900473ffffffffffffffffffffffffffffffffffffffff1673ffffffffffffffffffffffffffffffffffffffff1673ffffffffffffffffffffffffffffffffffffffff16815260200190815260200160002060040160019054906101000a900460ff166112e057600091506112f3565b80806112eb90612f88565b915050611238565b508015611971575b6011600660008073ffffffffffffffffffffffffffffffffffffffff1673ffffffffffffffffffffffffffffffffffffffff16815260200190815260200160002060040160009054906101000a900460ff1660ff161015611365576113606000610df1565b6112fb565b6000600660008073ffffffffffffffffffffffffffffffffffffffff1673ffffffffffffffffffffffffffffffffffffffff16815260200190815260200160002060040160009054906101000a900460ff169050600060158260ff16119050600060016007805490506113d89190612a32565b67ffffffffffffffff8111156113f1576113f0612f59565b5b60405190808252806020026020018201604052801561142a57816020015b61141761216b565b81526020019060019003908161140f5790505b5090506000600190505b60078054905081101561185557600060078281548110611457576114566129ab565b5b9060005260206000200160009054906101000a900473ffffffffffffffffffffffffffffffffffffffff1690506000600660008373ffffffffffffffffffffffffffffffffffffffff1673ffffffffffffffffffffffffffffffffffffffff16815260200190815260200160002060040160009054906101000a900460ff169050600060158260ff161190506000811580156115015750868061150057508260ff168860ff1611155b5b9050600060158460ff1614801561155d57506002600660008773ffffffffffffffffffffffffffffffffffffffff1673ffffffffffffffffffffffffffffffffffffffff16815260200190815260200160002060030180549050145b90506000811561161e5760026003600660008973ffffffffffffffffffffffffffffffffffffffff1673ffffffffffffffffffffffffffffffffffffffff168152602001908152602001600020600101546115b89190612d2e565b6115c29190612d9f565b905060405180604001604052808773ffffffffffffffffffffffffffffffffffffffff16815260200182815250886001896115fd9190612a32565b8151811061160e5761160d6129ab565b5b60200260200101819052506117f5565b821561170557600660008773ffffffffffffffffffffffffffffffffffffffff1673ffffffffffffffffffffffffffffffffffffffff16815260200190815260200160002060010154905060405180604001604052808773ffffffffffffffffffffffffffffffffffffffff168152602001600660008973ffffffffffffffffffffffffffffffffffffffff1673ffffffffffffffffffffffffffffffffffffffff16815260200190815260200160002060010154815250886001896116e49190612a32565b815181106116f5576116f46129ab565b5b60200260200101819052506117f4565b600660008773ffffffffffffffffffffffffffffffffffffffff1673ffffffffffffffffffffffffffffffffffffffff1681526020019081526020016000206001015461175190612fd0565b905060405180604001604052808773ffffffffffffffffffffffffffffffffffffffff168152602001600660008973ffffffffffffffffffffffffffffffffffffffff1673ffffffffffffffffffffffffffffffffffffffff168152602001908152602001600020600101546117c690612fd0565b815250886001896117d79190612a32565b815181106117e8576117e76129ab565b5b60200260200101819052505b5b80600660008873ffffffffffffffffffffffffffffffffffffffff1673ffffffffffffffffffffffffffffffffffffffff16815260200190815260200160002060050181905550505050505050808061184d90612f88565b915050611434565b50600860009054906101000a900473ffffffffffffffffffffffffffffffffffffffff1673ffffffffffffffffffffffffffffffffffffffff166385a28ff68260006040518363ffffffff1660e01b81526004016118b4929190613105565b600060405180830381600087803b1580156118ce57600080fd5b505af11580156118e2573d6000803e3d6000fd5b505050506000600560006101000a81548160ff0219169083600281111561190c5761190b6125cc565b5b02179055507ff322854e3396ba8cfe425eb22e44069de26977155aacda4d776c2aa28354fb1061193a610f14565b600560009054906101000a900460ff16604051611958929190612a66565b60405180910390a1611968611e3a565b505050506119c2565b7ff322854e3396ba8cfe425eb22e44069de26977155aacda4d776c2aa28354fb1061199a610f14565b600560009054906101000a900460ff166040516119b8929190612a66565b60405180910390a1505b565b600160078054905011611a0c576040517f08c379a0000000000000000000000000000000000000000000000000000000008152600401611a0390613181565b60405180910390fd5b60005b6002811015611b1e5760005b6007805490508160ff161015611b0a57600182148015611aa85750600073ffffffffffffffffffffffffffffffffffffffff1660078260ff1681548110611a6557611a646129ab565b5b9060005260206000200160009054906101000a900473ffffffffffffffffffffffffffffffffffffffff1673ffffffffffffffffffffffffffffffffffffffff16145b611af757611af660078260ff1681548110611ac657611ac56129ab565b5b9060005260206000200160009054906101000a900473ffffffffffffffffffffffffffffffffffffffff16610df1565b5b8080611b0290612a09565b915050611a1b565b508080611b1690612f88565b915050611a0f565b506002600560006101000a81548160ff02191690836002811115611b4557611b446125cc565b5b0217905550565b60008060005b600660008573ffffffffffffffffffffffffffffffffffffffff1673ffffffffffffffffffffffffffffffffffffffff16815260200190815260200160002060030180549050811015611ca3576000600d600660008773ffffffffffffffffffffffffffffffffffffffff1673ffffffffffffffffffffffffffffffffffffffff1681526020019081526020016000206003018381548110611bf757611bf66129ab565b5b90600052602060002090602091828204019190069054906101000a900460ff16611c2191906131a1565b905060018160ff1603611c50578280611c3990612a09565b935050600b84611c499190612f24565b9350611c8f565b600a8160ff16101580611c66575060008160ff16145b15611c7f57600a84611c789190612f24565b9350611c8e565b8084611c8b9190612f24565b93505b5b508080611c9b90612f88565b915050611b52565b505b60158260ff16118015611cbb575060008160ff16115b15611ce257600a82611ccd91906131d2565b91508080611cda90613207565b915050611ca5565b81600660008573ffffffffffffffffffffffffffffffffffffffff1673ffffffffffffffffffffffffffffffffffffffff16815260200190815260200160002060040160006101000a81548160ff021916908360ff160217905550600073ffffffffffffffffffffffffffffffffffffffff168373ffffffffffffffffffffffffffffffffffffffff1614611e355760158260ff1610611de4576001600660008573ffffffffffffffffffffffffffffffffffffffff1673ffffffffffffffffffffffffffffffffffffffff16815260200190815260200160002060040160016101000a81548160ff021916908315150217905550611ddf61122b565b611e34565b7ff322854e3396ba8cfe425eb22e44069de26977155aacda4d776c2aa28354fb10611e0d610f14565b600560009054906101000a900460ff16604051611e2b929190612a66565b60405180910390a15b5b505050565b60005b600780549050811015611f74576006600060078381548110611e6257611e616129ab565b5b9060005260206000200160009054906101000a900473ffffffffffffffffffffffffffffffffffffffff1673ffffffffffffffffffffffffffffffffffffffff1673ffffffffffffffffffffffffffffffffffffffff168152602001908152602001600020600080820160006101000a81549073ffffffffffffffffffffffffffffffffffffffff021916905560018201600090556002820160006101000a81549060ff02191690556002820160016101000a81549060ff0219169055600382016000611f2f919061219b565b6004820160006101000a81549060ff02191690556004820160016101000a81549060ff0219169055600582016000905550508080611f6c90612f88565b915050611e3d565b5060076000611f8391906121c3565b600067ffffffffffffffff811115611f9e57611f9d612f59565b5b604051908082528060200260200182016040528015611fcc5781602001602082028036833780820191505090505b5060079080519060200190611fe29291906121e4565b50600760009080600181540180825580915050600190039060005260206000200160009091909190916101000a81548173ffffffffffffffffffffffffffffffffffffffff021916908373ffffffffffffffffffffffffffffffffffffffff1602179055506001600660008073ffffffffffffffffffffffffffffffffffffffff1673ffffffffffffffffffffffffffffffffffffffff16815260200190815260200160002060020160016101000a81548160ff0219169083151502179055506001600660008073ffffffffffffffffffffffffffffffffffffffff1673ffffffffffffffffffffffffffffffffffffffff16815260200190815260200160002060020160006101000a81548160ff0219169083151502179055506000600481905550565b604051806101000160405280600073ffffffffffffffffffffffffffffffffffffffff1681526020016000815260200160001515815260200160001515815260200160608152602001600060ff168152602001600015158152602001600081525090565b6040518060400160405280600073ffffffffffffffffffffffffffffffffffffffff168152602001600081525090565b50805460008255601f0160209004906000526020600020908101906121c0919061226e565b50565b50805460008255906000526020600020908101906121e1919061226e565b50565b82805482825590600052602060002090810192821561225d579160200282015b8281111561225c5782518260006101000a81548173ffffffffffffffffffffffffffffffffffffffff021916908373ffffffffffffffffffffffffffffffffffffffff16021790555091602001919060010190612204565b5b50905061226a919061226e565b5090565b5b8082111561228757600081600090555060010161226f565b5090565b600060ff82169050919050565b6122a18161228b565b82525050565b60006020820190506122bc6000830184612298565b92915050565b600081519050919050565b600082825260208201905092915050565b6000819050602082019050919050565b600073ffffffffffffffffffffffffffffffffffffffff82169050919050565b6000612319826122ee565b9050919050565b6123298161230e565b82525050565b6000819050919050565b6123428161232f565b82525050565b60008115159050919050565b61235d81612348565b82525050565b600081519050919050565b600082825260208201905092915050565b6000819050602082019050919050565b6123988161228b565b82525050565b60006123aa838361238f565b60208301905092915050565b6000602082019050919050565b60006123ce82612363565b6123d8818561236e565b93506123e38361237f565b8060005b838110156124145781516123fb888261239e565b9750612406836123b6565b9250506001810190506123e7565b5085935050505092915050565b6000819050919050565b61243481612421565b82525050565b6000610100830160008301516124536000860182612320565b5060208301516124666020860182612339565b5060408301516124796040860182612354565b50606083015161248c6060860182612354565b50608083015184820360808601526124a482826123c3565b91505060a08301516124b960a086018261238f565b5060c08301516124cc60c0860182612354565b5060e08301516124df60e086018261242b565b508091505092915050565b60006124f6838361243a565b905092915050565b6000602082019050919050565b6000612516826122c2565b61252081856122cd565b935083602082028501612532856122de565b8060005b8581101561256e578484038952815161254f85826124ea565b945061255a836124fe565b925060208a01995050600181019050612536565b50829750879550505050505092915050565b6000602082019050818103600083015261259a818461250b565b905092915050565b6125ab8161230e565b82525050565b60006020820190506125c660008301846125a2565b92915050565b7f4e487b7100000000000000000000000000000000000000000000000000000000600052602160045260246000fd5b6003811061260c5761260b6125cc565b5b50565b600081905061261d826125fb565b919050565b600061262d8261260f565b9050919050565b61263d81612622565b82525050565b60006020820190506126586000830184612634565b92915050565b6126678161232f565b82525050565b6000602082019050612682600083018461265e565b92915050565b600080fd5b6126968161232f565b81146126a157600080fd5b50565b6000813590506126b38161268d565b92915050565b6000602082840312156126cf576126ce612688565b5b60006126dd848285016126a4565b91505092915050565b600082825260208201905092915050565b7f596f7520617265206e6f742061207061727469636970616e7420696e2074686560008201527f2063757272656e742067616d6500000000000000000000000000000000000000602082015250565b6000612753602d836126e6565b915061275e826126f7565b604082019050919050565b6000602082019050818103600083015261278281612746565b9050919050565b7f5468652067616d65206973206e6f7420696e2074686520706c6179696e67207060008201527f6861736500000000000000000000000000000000000000000000000000000000602082015250565b60006127e56024836126e6565b91506127f082612789565b604082019050919050565b60006020820190508181036000830152612814816127d8565b9050919050565b7f596f75206861766520616c72656164792073746f6f64206f722062757374656460008201527f2e00000000000000000000000000000000000000000000000000000000000000602082015250565b60006128776021836126e6565b91506128828261281b565b604082019050919050565b600060208201905081810360008301526128a68161286a565b9050919050565b7f5468652067616d652068617320616c7265616479207374617274656400000000600082015250565b60006128e3601c836126e6565b91506128ee826128ad565b602082019050919050565b60006020820190508181036000830152612912816128d6565b9050919050565b7f557365722068617320616c726561647920766f74656420666f7220746865207360008201527f74617274206f66207468652067616d6500000000000000000000000000000000602082015250565b60006129756030836126e6565b915061298082612919565b604082019050919050565b600060208201905081810360008301526129a481612968565b9050919050565b7f4e487b7100000000000000000000000000000000000000000000000000000000600052603260045260246000fd5b7f4e487b7100000000000000000000000000000000000000000000000000000000600052601160045260246000fd5b6000612a148261228b565b915060ff8203612a2757612a266129da565b5b600182019050919050565b6000612a3d8261232f565b9150612a488361232f565b9250828203905081811115612a6057612a5f6129da565b5b92915050565b60006040820190508181036000830152612a80818561250b565b9050612a8f6020830184612634565b9392505050565b7f546865206d6178696d756d206e756d626572206f6620706c617965727320776160008201527f7320726561636865640000000000000000000000000000000000000000000000602082015250565b6000612af26029836126e6565b9150612afd82612a96565b604082019050919050565b60006020820190508181036000830152612b2181612ae5565b9050919050565b7f596f75206e65656420746f20626574206d6f7265207468616e20746865206d6960008201527f6e696d756d206265740000000000000000000000000000000000000000000000602082015250565b6000612b846029836126e6565b9150612b8f82612b28565b604082019050919050565b60006020820190508181036000830152612bb381612b77565b9050919050565b7f596f75206861766520616c726561647920656e7465726564207468652067616d60008201527f6500000000000000000000000000000000000000000000000000000000000000602082015250565b6000612c166021836126e6565b9150612c2182612bba565b604082019050919050565b60006020820190508181036000830152612c4581612c09565b9050919050565b600081519050612c5b8161268d565b92915050565b600060208284031215612c7757612c76612688565b5b6000612c8584828501612c4c565b91505092915050565b7f596f7520646f6e2774206861766520656e6f7567682066756e64730000000000600082015250565b6000612cc4601b836126e6565b9150612ccf82612c8e565b602082019050919050565b60006020820190508181036000830152612cf381612cb7565b9050919050565b6000612d058261232f565b9150612d108361232f565b9250828201905080821115612d2857612d276129da565b5b92915050565b6000612d398261232f565b9150612d448361232f565b9250828202612d528161232f565b91508282048414831517612d6957612d686129da565b5b5092915050565b7f4e487b7100000000000000000000000000000000000000000000000000000000600052601260045260246000fd5b6000612daa8261232f565b9150612db58361232f565b925082612dc557612dc4612d70565b5b828204905092915050565b7f54686520636173696e6f2063616e2774206166666f726420796f757220626574600082015250565b6000612e066020836126e6565b9150612e1182612dd0565b602082019050919050565b60006020820190508181036000830152612e3581612df9565b9050919050565b6000819050919050565b612e57612e528261232f565b612e3c565b82525050565b60008160601b9050919050565b6000612e7582612e5d565b9050919050565b6000612e8782612e6a565b9050919050565b612e9f612e9a8261230e565b612e7c565b82525050565b6000612eb18287612e46565b602082019150612ec18286612e46565b602082019150612ed18285612e8e565b601482019150612ee18284612e46565b60208201915081905095945050505050565b6000612efe8261232f565b9150612f098361232f565b925082612f1957612f18612d70565b5b828206905092915050565b6000612f2f8261228b565b9150612f3a8361228b565b9250828201905060ff811115612f5357612f526129da565b5b92915050565b7f4e487b7100000000000000000000000000000000000000000000000000000000600052604160045260246000fd5b6000612f938261232f565b91507fffffffffffffffffffffffffffffffffffffffffffffffffffffffffffffffff8203612fc557612fc46129da565b5b600182019050919050565b6000612fdb82612421565b91507f8000000000000000000000000000000000000000000000000000000000000000820361300d5761300c6129da565b5b816000039050919050565b600081519050919050565b600082825260208201905092915050565b6000819050602082019050919050565b60408201600082015161305a6000850182612320565b50602082015161306d602085018261242b565b50505050565b600061307f8383613044565b60408301905092915050565b6000602082019050919050565b60006130a382613018565b6130ad8185613023565b93506130b883613034565b8060005b838110156130e95781516130d08882613073565b97506130db8361308b565b9250506001810190506130bc565b5085935050505092915050565b6130ff81612348565b82525050565b6000604082019050818103600083015261311f8185613098565b905061312e60208301846130f6565b9392505050565b7f4e6f20706c6179657273206861766520706c6163656420626574730000000000600082015250565b600061316b601b836126e6565b915061317682613135565b602082019050919050565b6000602082019050818103600083015261319a8161315e565b9050919050565b60006131ac8261228b565b91506131b78361228b565b9250826131c7576131c6612d70565b5b828206905092915050565b60006131dd8261228b565b91506131e88361228b565b9250828203905060ff811115613201576132006129da565b5b92915050565b60006132128261228b565b915060008203613225576132246129da565b5b60018203905091905056fea26469706673582212207c06bd328e1dc810b66d2022aa971f347c6516eb50955e4cda5b883877e08d1f64736f6c63430008130033",
  "immutableReferences": {},
  "source": "// SPDX-License-Identifier: MIT\r\npragma solidity 0.8.19;\r\n\r\nimport \"./Structs.sol\";\r\n\r\n// Main contract interface\r\ninterface Main {\r\n\r\n    // The neccesary functions from the Main contract\r\n    function getFunds(address user) external view returns (uint256);\r\n    function getCasinoFunds() external view returns (uint256);\r\n    function modifyFunds(Structs.Payment[] memory payments, bool zero_sum) external;\r\n}\r\n\r\ncontract Blackjack {\r\n    // Possible game phases\r\n    enum GamePhase { Ended, Betting, Playing }\r\n\r\n    // Public variables\r\n    address public owner;\r\n    address public mainContractAddr;\r\n    uint256 public minimumBet;\r\n    uint8 public maxPlayers;\r\n    uint256 public totalBets; // The sum of bets across all players\r\n    GamePhase public phase = GamePhase.Ended;\r\n\r\n    // Player info. structure\r\n    struct Player {\r\n        // Basic player data\r\n        address addr;\r\n        uint256 bet;\r\n        bool hasVoted;\r\n        bool isDealer;\r\n\r\n        // Blackjack specific user data\r\n        uint8[] playerCards; \r\n        uint8 playerTotal;\r\n        bool hasStood;\r\n        int256 betResult;\r\n    }\r\n\r\n    // Private variables\r\n    mapping(address => Player) players;\r\n    address[] playerAddresses;\r\n    Main mainContract;\r\n\r\n    // Fired on state changes in the game, sends the information\r\n    event GameStateChanged(Player[] players, GamePhase phase);\r\n\r\n    // Modifiers for access to functions\r\n    modifier onlyOwner() {\r\n        require(msg.sender == owner, \"Only the owner can call this function\");\r\n        _;\r\n    }\r\n\r\n    modifier notInPlayingPhase() {\r\n        require(phase != GamePhase.Playing, \"The game has already started\");\r\n        _;\r\n    }\r\n\r\n    modifier inPlayingPhase() {\r\n        require(phase == GamePhase.Playing, \"The game is not in the playing phase\");\r\n        _;\r\n    }\r\n\r\n    modifier onlyPlayers() {\r\n        require(players[msg.sender].bet > 0, \"You are not a participant in the current game\");\r\n        _;\r\n    }\r\n\r\n    constructor(uint256 _minimumBet, uint8 _maxPlayers, address _main_contract_addr) {\r\n        owner = msg.sender;\r\n        minimumBet = _minimumBet;\r\n        maxPlayers = _maxPlayers;\r\n        mainContractAddr = _main_contract_addr;\r\n        mainContract = Main(_main_contract_addr);\r\n        phase = GamePhase.Betting;\r\n\r\n        // Insert the dealer player\r\n        playerAddresses.push(address(0));\r\n        players[address(0)].isDealer = true;\r\n        players[address(0)].hasVoted = true;\r\n    }\r\n\r\n        \r\n    // Get player information, only available at betting phase to not reveal dealer cards\r\n    function getPlayers() external view returns (Player[] memory) {\r\n        return getPlayersInternal();\r\n    } \r\n\r\n    function getPlayersInternal() internal view returns (Player[] memory) {\r\n        Player[] memory allPlayers = new Player[](playerAddresses.length);\r\n        for(uint256 i = 0; i < playerAddresses.length; i++ ) {\r\n            allPlayers[i] = players[playerAddresses[i]];\r\n            allPlayers[i].addr = playerAddresses[i]; // also add the address of the player to the emitted object\r\n        }\r\n        return allPlayers;\r\n    }\r\n\r\n    function joinGame(uint256 bet) external notInPlayingPhase {\r\n        require(playerAddresses.length - 1 <= maxPlayers, \"The maximum number of players was reached\");\r\n        \r\n        require(bet >= minimumBet, \"You need to bet more than the minimum bet\");\r\n\r\n        require(players[msg.sender].bet == 0, \"You have already entered the game\");\r\n\r\n        // Check in main contract if funds are enough\r\n        uint256 userFunds = mainContract.getFunds(msg.sender);\r\n        require(bet < userFunds, \"You don't have enough funds\");\r\n        \r\n        require(uint256((totalBets + bet) * 3  / 2) <= mainContract.getCasinoFunds(), \"The casino can't afford your bet\");\r\n\r\n        // Register player in the game\r\n        players[msg.sender].bet = bet;\r\n        playerAddresses.push(msg.sender);\r\n        totalBets += bet;\r\n\r\n        // Set phase to betting\r\n        phase = GamePhase.Betting;\r\n        emit GameStateChanged(getPlayersInternal(), phase);\r\n    }\r\n\r\n    function voteStart() external onlyPlayers notInPlayingPhase {\r\n        // Check if player is registered for the game and has not voted\r\n        require(!players[msg.sender].hasVoted, \"User has already voted for the start of the game\");\r\n        players[msg.sender].hasVoted = true;\r\n        \r\n        // Check if all played have voted, then start the game\r\n        uint8 votedCount;\r\n        // Skip the dealer by starting at 1\r\n        for (uint8 i = 1; i < playerAddresses.length; i++) {\r\n            if(players[playerAddresses[i]].hasVoted)\r\n                votedCount++;\r\n        }\r\n        // Start the game if all players have voted\r\n        if(votedCount == playerAddresses.length - 1)\r\n            startGame();\r\n        if(phase != GamePhase.Ended)\r\n            emit GameStateChanged(getPlayersInternal(), phase);\r\n    }\r\n    \r\n    function startGame() internal {\r\n        // Require there is at least one non-dealer user in the game\r\n        require(playerAddresses.length > 1, \"No players have placed bets\");\r\n\r\n        // Deal two cards to each player and the dealer (the contract is the dealer)\r\n        for (uint256 i = 0; i < 2; i++) {\r\n            for (uint8 j = 0; j < playerAddresses.length; j++) {\r\n                if(i == 1 && playerAddresses[j] == address(0)) // dont create second dealer card\r\n                    continue;\r\n                else\r\n                    dealCard(playerAddresses[j]);\r\n            }\r\n        }\r\n        phase = GamePhase.Playing;\r\n    }\r\n\r\n    function dealCard(address _player) internal {\r\n        // Player receives a card\r\n        uint8 card = uint8(uint256(keccak256(abi.encodePacked(block.timestamp, block.prevrandao, _player, players[_player].playerCards.length))) % 52) + 1;\r\n        players[_player].playerCards.push(card);\r\n        calculatePlayerTotal(_player);\r\n    }\r\n\r\n    function calculatePlayerTotal(address _player) internal {\r\n        uint8 total = 0;\r\n        uint8 numAces = 0;\r\n\r\n        // Count nominal value\r\n        for (uint256 i = 0; i < players[_player].playerCards.length; i++) {\r\n            uint8 cardValue = (players[_player].playerCards[i] % 13);\r\n\r\n            if (cardValue == 1) {\r\n                // Ace\r\n                numAces++;\r\n                total += 11;\r\n            } else if (cardValue >= 10 || cardValue == 0) { // a king is zero in modulo 13\r\n                // Face cards and 10\r\n                total += 10;\r\n            } else {\r\n                total += cardValue;\r\n            }\r\n        }\r\n\r\n        // Adjust for aces\r\n        while (total > 21 && numAces > 0) {\r\n            total -= 10;\r\n            numAces--;\r\n        }\r\n\r\n        players[_player].playerTotal = total;\r\n\r\n        // Check if player has stood or busted\r\n        if(_player != address(0)){\r\n            if (total >= 21) {\r\n                // Player got 21 or busted, stand and end turn\r\n                players[_player].hasStood = true;\r\n                endPlayerTurn();\r\n            } else {\r\n                // Notify about new card\r\n                 emit GameStateChanged(getPlayersInternal(), phase);\r\n            }\r\n        }\r\n    }\r\n\r\n    // User turn actions\r\n    function hit() external onlyPlayers inPlayingPhase {\r\n        // Ensure the player has not stood or busted\r\n        require(!players[msg.sender].hasStood, \"You have already stood or busted.\");\r\n\r\n        // Deal a new card to the player\r\n        dealCard(msg.sender);\r\n    }\r\n\r\n    function stand() external onlyPlayers inPlayingPhase {\r\n        // Ensure the player has not stood or busted\r\n        require(!players[msg.sender].hasStood, \"You have already stood or busted.\");\r\n\r\n        // Stand and end turn\r\n        players[msg.sender].hasStood = true;\r\n        endPlayerTurn();\r\n    }\r\n    \r\n    function endPlayerTurn() internal {\r\n        // Check if all players have stood or busted\r\n        bool allPlayersDone = true;\r\n        for (uint256 i = 1; i < playerAddresses.length; i++) {\r\n            if (!players[playerAddresses[i]].hasStood) {\r\n                allPlayersDone = false;\r\n                break;\r\n            }\r\n        }\r\n        \r\n        if (allPlayersDone) {\r\n            // Dealer's turn\r\n            // Reveal second dealer card\r\n            while (players[address(0)].playerTotal < 17) {\r\n                // Deal with emiting reveal of all other cards\r\n                dealCard(address(0));\r\n            }\r\n\r\n            // Determine the winner\r\n            uint8 dealerTotal = players[address(0)].playerTotal;\r\n            bool dealerBusted = dealerTotal > 21;\r\n            // Initialize winnings array\r\n            Structs.Payment[] memory winnings = new Structs.Payment[](playerAddresses.length - 1);\r\n\r\n            // Start at 1 to skip dealer\r\n            for (uint256 i = 1; i < playerAddresses.length; i++) {\r\n                address playerAddr = playerAddresses[i];\r\n                uint8 playerTotal = players[playerAddr].playerTotal;\r\n                bool busted = playerTotal > 21;\r\n\r\n                // si dealerBusted ganas si ests stood y no busted\r\n                // si no dealerBusted ganas si ests stood, no busted y tienes ms puntos que el dealer\r\n                bool playerWon = !busted && (dealerBusted || dealerTotal <= playerTotal);\r\n                bool playerBlackjack = playerTotal == 21 && players[playerAddr].playerCards.length == 2;\r\n    \r\n    \r\n                // Insert into winnings array\r\n                int256 betResult;\r\n                if (playerBlackjack) {\r\n                    betResult = int256(players[playerAddr].bet * 3 / 2);\r\n                     winnings[i - 1] = Structs.Payment({\r\n                        addr: playerAddr,\r\n                        amount: betResult\r\n                    });\r\n                } else if (playerWon) {\r\n                    betResult = int256(players[playerAddr].bet);\r\n                    winnings[i - 1] = Structs.Payment({\r\n                        addr: playerAddr,\r\n                        amount: int256(players[playerAddr].bet)\r\n                    });\r\n                } else {\r\n                    betResult = -int256(players[playerAddr].bet);\r\n                    winnings[i - 1] = Structs.Payment({\r\n                        addr: playerAddr,\r\n                        amount:  -int256(players[playerAddr].bet)\r\n                    });\r\n                }\r\n                // Set the bet result in the player object\r\n                players[playerAddr].betResult = betResult;\r\n            }\r\n\r\n            // Pay out users\r\n            mainContract.modifyFunds(winnings, false);\r\n\r\n            // Set the phase to ended\r\n            phase = GamePhase.Ended;\r\n\r\n            // Emit one last event with the game results\r\n            emit GameStateChanged(getPlayersInternal(), phase);\r\n\r\n            // Reset game state\r\n            resetGame();\r\n            return;\r\n        } else { \r\n            emit GameStateChanged(getPlayersInternal(), phase);\r\n        }\r\n    }\r\n\r\n    function resetGame() internal {\r\n        // Delete players from previous game\r\n        for (uint256 i = 0; i < playerAddresses.length; i++) {\r\n            delete players[playerAddresses[i]];\r\n        }\r\n        // Clear the players array\r\n        delete playerAddresses;\r\n        playerAddresses = new address[](0);\r\n\r\n        // Insert the dealer player\r\n        playerAddresses.push(address(0));\r\n        players[address(0)].isDealer = true;\r\n        players[address(0)].hasVoted = true;\r\n        \r\n        totalBets = 0;\r\n    }\r\n}",
  "sourcePath": "C:\\Users\\Pablo\\Desktop\\DistributedCasino\\contracts\\Blackjack.sol",
  "compiler": {
    "name": "solc",
    "version": "0.8.19+commit.7dd6d404.Emscripten.clang"
  },
  "schemaVersion": "3.4.16",
  "updatedAt": "2023-12-10T18:09:25.111Z",
  "networkType": "ethereum",
  "devdoc": {
    "kind": "dev",
    "methods": {},
    "version": 1
  },
  "userdoc": {
    "kind": "user",
    "methods": {},
    "version": 1
  }
}