{
  "contractName": "Main",
  "abi": [
    {
      "inputs": [],
      "stateMutability": "nonpayable",
      "type": "constructor"
    },
    {
      "inputs": [],
      "name": "owner",
      "outputs": [
        {
          "internalType": "address",
          "name": "",
          "type": "address"
        }
      ],
      "stateMutability": "view",
      "type": "function",
      "constant": true
    },
    {
      "inputs": [
        {
          "internalType": "address",
          "name": "",
          "type": "address"
        }
      ],
      "name": "userFunds",
      "outputs": [
        {
          "internalType": "uint256",
          "name": "funds",
          "type": "uint256"
        },
        {
          "internalType": "bool",
          "name": "exists",
          "type": "bool"
        }
      ],
      "stateMutability": "view",
      "type": "function",
      "constant": true
    },
    {
      "inputs": [
        {
          "internalType": "uint256",
          "name": "",
          "type": "uint256"
        }
      ],
      "name": "userList",
      "outputs": [
        {
          "internalType": "address",
          "name": "",
          "type": "address"
        }
      ],
      "stateMutability": "view",
      "type": "function",
      "constant": true
    },
    {
      "inputs": [
        {
          "internalType": "address",
          "name": "game_contract",
          "type": "address"
        }
      ],
      "name": "isGameContract",
      "outputs": [
        {
          "internalType": "bool",
          "name": "",
          "type": "bool"
        }
      ],
      "stateMutability": "view",
      "type": "function",
      "constant": true
    },
    {
      "inputs": [
        {
          "internalType": "address",
          "name": "game_contract",
          "type": "address"
        }
      ],
      "name": "addGameContract",
      "outputs": [],
      "stateMutability": "nonpayable",
      "type": "function"
    },
    {
      "inputs": [
        {
          "internalType": "address",
          "name": "game_contract",
          "type": "address"
        }
      ],
      "name": "removeGameContract",
      "outputs": [],
      "stateMutability": "nonpayable",
      "type": "function"
    },
    {
      "inputs": [],
      "name": "addFunds",
      "outputs": [],
      "stateMutability": "payable",
      "type": "function",
      "payable": true
    },
    {
      "inputs": [
        {
          "internalType": "uint256",
          "name": "amount",
          "type": "uint256"
        }
      ],
      "name": "retrieveFunds",
      "outputs": [],
      "stateMutability": "nonpayable",
      "type": "function"
    },
    {
      "inputs": [
        {
          "internalType": "address",
          "name": "user",
          "type": "address"
        }
      ],
      "name": "getFunds",
      "outputs": [
        {
          "internalType": "uint256",
          "name": "",
          "type": "uint256"
        }
      ],
      "stateMutability": "view",
      "type": "function",
      "constant": true
    },
    {
      "inputs": [],
      "name": "getCasinoFunds",
      "outputs": [
        {
          "internalType": "uint256",
          "name": "",
          "type": "uint256"
        }
      ],
      "stateMutability": "view",
      "type": "function",
      "constant": true
    },
    {
      "inputs": [
        {
          "components": [
            {
              "internalType": "address",
              "name": "addr",
              "type": "address"
            },
            {
              "internalType": "int256",
              "name": "amount",
              "type": "int256"
            }
          ],
          "internalType": "struct Structs.Payment[]",
          "name": "payments",
          "type": "tuple[]"
        },
        {
          "internalType": "bool",
          "name": "zero_sum",
          "type": "bool"
        }
      ],
      "name": "modifyFunds",
      "outputs": [],
      "stateMutability": "nonpayable",
      "type": "function"
    }
  ],
  "bytecode": "0x608060405234801561001057600080fd5b50336000806101000a81548173ffffffffffffffffffffffffffffffffffffffff021916908373ffffffffffffffffffffffffffffffffffffffff160217905550611572806100606000396000f3fe60806040526004361061009c5760003560e01c80638da5cb5b116100645780638da5cb5b146101855780639f4216e8146101b0578063a26759cb146101ed578063c04a7d0d146101f7578063decebbce14610234578063fc41491e146102715761009c565b80635c74e025146100a157806373d61b77146100ca57806381cd08ee146100f55780638387c6e11461011e57806385a28ff61461015c575b600080fd5b3480156100ad57600080fd5b506100c860048036038101906100c39190610c33565b61029a565b005b3480156100d657600080fd5b506100df610383565b6040516100ec9190610c79565b60405180910390f35b34801561010157600080fd5b5061011c60048036038101906101179190610c33565b61038b565b005b34801561012a57600080fd5b5061014560048036038101906101409190610c33565b610473565b604051610153929190610caf565b60405180910390f35b34801561016857600080fd5b50610183600480360381019061017e9190610ee8565b6104a4565b005b34801561019157600080fd5b5061019a6107df565b6040516101a79190610f53565b60405180910390f35b3480156101bc57600080fd5b506101d760048036038101906101d29190610f9a565b610803565b6040516101e49190610f53565b60405180910390f35b6101f5610842565b005b34801561020357600080fd5b5061021e60048036038101906102199190610c33565b610936565b60405161022b9190610fc7565b60405180910390f35b34801561024057600080fd5b5061025b60048036038101906102569190610c33565b61098c565b6040516102689190610c79565b60405180910390f35b34801561027d57600080fd5b5061029860048036038101906102939190610f9a565b6109d8565b005b60008054906101000a900473ffffffffffffffffffffffffffffffffffffffff1673ffffffffffffffffffffffffffffffffffffffff163373ffffffffffffffffffffffffffffffffffffffff1614610328576040517f08c379a000000000000000000000000000000000000000000000000000000000815260040161031f90611065565b60405180910390fd5b6000600160008373ffffffffffffffffffffffffffffffffffffffff1673ffffffffffffffffffffffffffffffffffffffff16815260200190815260200160002060006101000a81548160ff02191690831515021790555050565b600047905090565b60008054906101000a900473ffffffffffffffffffffffffffffffffffffffff1673ffffffffffffffffffffffffffffffffffffffff163373ffffffffffffffffffffffffffffffffffffffff1614610419576040517f08c379a000000000000000000000000000000000000000000000000000000000815260040161041090611065565b60405180910390fd5b60018060008373ffffffffffffffffffffffffffffffffffffffff1673ffffffffffffffffffffffffffffffffffffffff16815260200190815260200160002060006101000a81548160ff02191690831515021790555050565b60036020528060005260406000206000915090508060000154908060010160009054906101000a900460ff16905082565b600160003373ffffffffffffffffffffffffffffffffffffffff1673ffffffffffffffffffffffffffffffffffffffff16815260200190815260200160002060009054906101000a900460ff16610530576040517f08c379a0000000000000000000000000000000000000000000000000000000008152600401610527906110f7565b60405180910390fd5b6000805b835181101561078b57600084828151811061055257610551611117565b5b6020026020010151905060036000826000015173ffffffffffffffffffffffffffffffffffffffff1673ffffffffffffffffffffffffffffffffffffffff16815260200190815260200160002060010160009054906101000a900460ff166105ef576040517f08c379a00000000000000000000000000000000000000000000000000000000081526004016105e690611192565b60405180910390fd5b600081602001511261066157806020015160036000836000015173ffffffffffffffffffffffffffffffffffffffff1673ffffffffffffffffffffffffffffffffffffffff168152602001908152602001600020600001600082825461065591906111e1565b92505081905550610765565b6000816020015160036000846000015173ffffffffffffffffffffffffffffffffffffffff1673ffffffffffffffffffffffffffffffffffffffff168152602001908152602001600020600001546106b99190611215565b12156106fa576040517f08c379a00000000000000000000000000000000000000000000000000000000081526004016106f1906112ca565b60405180910390fd5b8060200151610708906112ea565b60036000836000015173ffffffffffffffffffffffffffffffffffffffff1673ffffffffffffffffffffffffffffffffffffffff168152602001908152602001600020600001600082825461075d9190611332565b925050819055505b8060200151836107759190611366565b9250508080610783906113aa565b915050610534565b506000811415801561079a5750815b156107da576040517f08c379a00000000000000000000000000000000000000000000000000000000081526004016107d19061148a565b60405180910390fd5b505050565b60008054906101000a900473ffffffffffffffffffffffffffffffffffffffff1681565b6002818154811061081357600080fd5b906000526020600020016000915054906101000a900473ffffffffffffffffffffffffffffffffffffffff1681565b600360003373ffffffffffffffffffffffffffffffffffffffff1673ffffffffffffffffffffffffffffffffffffffff16815260200190815260200160002060010160009054906101000a900460ff166108a05761089f33610b00565b5b600360003373ffffffffffffffffffffffffffffffffffffffff1673ffffffffffffffffffffffffffffffffffffffff16815260200190815260200160002060000154346108ee91906111e1565b600360003373ffffffffffffffffffffffffffffffffffffffff1673ffffffffffffffffffffffffffffffffffffffff16815260200190815260200160002060000181905550565b6000600160008373ffffffffffffffffffffffffffffffffffffffff1673ffffffffffffffffffffffffffffffffffffffff16815260200190815260200160002060009054906101000a900460ff169050919050565b6000600360008373ffffffffffffffffffffffffffffffffffffffff1673ffffffffffffffffffffffffffffffffffffffff168152602001908152602001600020600001549050919050565b600360003373ffffffffffffffffffffffffffffffffffffffff1673ffffffffffffffffffffffffffffffffffffffff16815260200190815260200160002060000154811115610a5d576040517f08c379a0000000000000000000000000000000000000000000000000000000008152600401610a549061151c565b60405180910390fd5b3373ffffffffffffffffffffffffffffffffffffffff166108fc829081150290604051600060405180830381858888f19350505050158015610aa3573d6000803e3d6000fd5b5080600360003373ffffffffffffffffffffffffffffffffffffffff1673ffffffffffffffffffffffffffffffffffffffff1681526020019081526020016000206000016000828254610af69190611332565b9250508190555050565b6002819080600181540180825580915050600190039060005260206000200160009091909190916101000a81548173ffffffffffffffffffffffffffffffffffffffff021916908373ffffffffffffffffffffffffffffffffffffffff1602179055506001600360008373ffffffffffffffffffffffffffffffffffffffff1673ffffffffffffffffffffffffffffffffffffffff16815260200190815260200160002060010160006101000a81548160ff02191690831515021790555050565b6000604051905090565b600080fd5b600080fd5b600073ffffffffffffffffffffffffffffffffffffffff82169050919050565b6000610c0082610bd5565b9050919050565b610c1081610bf5565b8114610c1b57600080fd5b50565b600081359050610c2d81610c07565b92915050565b600060208284031215610c4957610c48610bcb565b5b6000610c5784828501610c1e565b91505092915050565b6000819050919050565b610c7381610c60565b82525050565b6000602082019050610c8e6000830184610c6a565b92915050565b60008115159050919050565b610ca981610c94565b82525050565b6000604082019050610cc46000830185610c6a565b610cd16020830184610ca0565b9392505050565b600080fd5b6000601f19601f8301169050919050565b7f4e487b7100000000000000000000000000000000000000000000000000000000600052604160045260246000fd5b610d2682610cdd565b810181811067ffffffffffffffff82111715610d4557610d44610cee565b5b80604052505050565b6000610d58610bc1565b9050610d648282610d1d565b919050565b600067ffffffffffffffff821115610d8457610d83610cee565b5b602082029050602081019050919050565b600080fd5b600080fd5b6000819050919050565b610db281610d9f565b8114610dbd57600080fd5b50565b600081359050610dcf81610da9565b92915050565b600060408284031215610deb57610dea610d9a565b5b610df56040610d4e565b90506000610e0584828501610c1e565b6000830152506020610e1984828501610dc0565b60208301525092915050565b6000610e38610e3384610d69565b610d4e565b90508083825260208201905060408402830185811115610e5b57610e5a610d95565b5b835b81811015610e845780610e708882610dd5565b845260208401935050604081019050610e5d565b5050509392505050565b600082601f830112610ea357610ea2610cd8565b5b8135610eb3848260208601610e25565b91505092915050565b610ec581610c94565b8114610ed057600080fd5b50565b600081359050610ee281610ebc565b92915050565b60008060408385031215610eff57610efe610bcb565b5b600083013567ffffffffffffffff811115610f1d57610f1c610bd0565b5b610f2985828601610e8e565b9250506020610f3a85828601610ed3565b9150509250929050565b610f4d81610bf5565b82525050565b6000602082019050610f686000830184610f44565b92915050565b610f7781610c60565b8114610f8257600080fd5b50565b600081359050610f9481610f6e565b92915050565b600060208284031215610fb057610faf610bcb565b5b6000610fbe84828501610f85565b91505092915050565b6000602082019050610fdc6000830184610ca0565b92915050565b600082825260208201905092915050565b7f4f6e6c79206f776e65722063616e2063616c6c20746869732066756e6374696f60008201527f6e00000000000000000000000000000000000000000000000000000000000000602082015250565b600061104f602183610fe2565b915061105a82610ff3565b604082019050919050565b6000602082019050818103600083015261107e81611042565b9050919050565b7f4f6e6c792067616d6520636f6e7472616374732063616e2063616c6c2074686960008201527f732066756e6374696f6e00000000000000000000000000000000000000000000602082015250565b60006110e1602a83610fe2565b91506110ec82611085565b604082019050919050565b60006020820190508181036000830152611110816110d4565b9050919050565b7f4e487b7100000000000000000000000000000000000000000000000000000000600052603260045260246000fd5b7f4f6e65206f662074686520757365727320646f6573206e6f7420657869737400600082015250565b600061117c601f83610fe2565b915061118782611146565b602082019050919050565b600060208201905081810360008301526111ab8161116f565b9050919050565b7f4e487b7100000000000000000000000000000000000000000000000000000000600052601160045260246000fd5b60006111ec82610c60565b91506111f783610c60565b925082820190508082111561120f5761120e6111b2565b5b92915050565b600061122082610d9f565b915061122b83610d9f565b9250828203905081811260008412168282136000851215161715611252576112516111b2565b5b92915050565b7f4f6e65206f66207468652075736572732068617320696e737566696369656e7460008201527f2066756e64730000000000000000000000000000000000000000000000000000602082015250565b60006112b4602683610fe2565b91506112bf82611258565b604082019050919050565b600060208201905081810360008301526112e3816112a7565b9050919050565b60006112f582610d9f565b91507f80000000000000000000000000000000000000000000000000000000000000008203611327576113266111b2565b5b816000039050919050565b600061133d82610c60565b915061134883610c60565b92508282039050818111156113605761135f6111b2565b5b92915050565b600061137182610d9f565b915061137c83610d9f565b9250828201905082811215600083121683821260008412151617156113a4576113a36111b2565b5b92915050565b60006113b582610c60565b91507fffffffffffffffffffffffffffffffffffffffffffffffffffffffffffffffff82036113e7576113e66111b2565b5b600182019050919050565b7f556e636f6e73697374656e74207061796d656e7473207769746820302d73756d60008201527f2067616d6520706f6c696379202873756d206f66207061796f7574732077617360208201527f206e6f7420302900000000000000000000000000000000000000000000000000604082015250565b6000611474604783610fe2565b915061147f826113f2565b606082019050919050565b600060208201905081810360008301526114a381611467565b9050919050565b7f546865207573657220646f65736e2774206861766520616e6f7567682066756e60008201527f6473000000000000000000000000000000000000000000000000000000000000602082015250565b6000611506602283610fe2565b9150611511826114aa565b604082019050919050565b60006020820190508181036000830152611535816114f9565b905091905056fea2646970667358221220cf4f1d0e644a48716f0003903694097054dac60d30cfe860c004c0a38c2dc8be64736f6c63430008130033",
  "immutableReferences": {},
  "source": "// SPDX-License-Identifier: MIT\r\npragma solidity 0.8.19;\r\n\r\nimport \"./Structs.sol\";\r\n\r\ncontract Main {\r\n    \r\n    struct Users {\r\n        uint256 funds;\r\n        bool exists;\r\n    }\r\n\r\n    address public owner;\r\n    mapping(address => bool) gameContracts;\r\n\r\n    address[] public userList;\r\n    mapping(address => Users) public userFunds;\r\n\r\n    constructor() {\r\n        owner = msg.sender;\r\n    }\r\n    \r\n    // Access modifiers for owner and game contracts\r\n    modifier onlyOwner() {\r\n        require(msg.sender == owner, \"Only owner can call this function\");\r\n        _;\r\n    }\r\n\r\n    modifier onlyGameContracts() {\r\n        require(gameContracts[msg.sender], \"Only game contracts can call this function\");\r\n        _;\r\n    }\r\n\r\n    function isGameContract(address game_contract) external view returns (bool) {\r\n        return gameContracts[game_contract];\r\n    }\r\n\r\n    // Add addresses of game contracts, can only be invoked by owner\r\n    function addGameContract(address game_contract) external onlyOwner {\r\n        gameContracts[game_contract] = true;\r\n    }\r\n\r\n    // Removes addresses of game contracts, can only be invoked by owner\r\n    function removeGameContract(address game_contract) external onlyOwner {\r\n        gameContracts[game_contract] = false;\r\n    }\r\n\r\n    function registerUser(address _user) internal {\r\n        userList.push(_user);\r\n        userFunds[_user].exists = true;\r\n    }\r\n    // Adds funds to the user account\r\n    function addFunds() external payable {\r\n        if(!userFunds[msg.sender].exists)\r\n            registerUser(msg.sender);\r\n        userFunds[msg.sender].funds = msg.value + userFunds[msg.sender].funds;\r\n    }\r\n\r\n    // Let's a user retrieve his funds from the casino\r\n    function retrieveFunds(uint256 amount) external {\r\n        require(amount <= userFunds[msg.sender].funds, \"The user doesn't have anough funds\");\r\n        payable(msg.sender).transfer(amount); \r\n        userFunds[msg.sender].funds -= amount;\r\n    }\r\n\r\n    // Gets the user funds\r\n    function getFunds(address user) external view returns (uint256) {\r\n        return userFunds[user].funds;\r\n    }\r\n\r\n    function getCasinoFunds() external view returns (uint256) {\r\n        return address(this).balance;\r\n    }\r\n    \r\n    /**\r\n     * Receives an array of Payment[] objects representing the payouts from the result of a game\r\n     * ensures that:\r\n     * 1. the sum of the amounts is 0, that is, no money enters or leaves the system here (fair betting)\r\n     * 2. all users exist and have enough money in case they are losing money here\r\n     */\r\n    function modifyFunds(Structs.Payment[] memory payments, bool zero_sum) external onlyGameContracts {\r\n        int256 result = 0;\r\n\r\n        for(uint256 i = 0; i < payments.length; i++) {\r\n            Structs.Payment memory aux = payments[i];\r\n            if (!userFunds[aux.addr].exists)\r\n                revert(\"One of the users does not exist\");\r\n            if(aux.amount >= 0 ){\r\n                userFunds[aux.addr].funds += uint256(aux.amount);\r\n            } else {\r\n                require((int256(userFunds[aux.addr].funds) - aux.amount) >= 0, \r\n                    \"One of the users has insuficient funds\");\r\n                userFunds[aux.addr].funds -= uint256(-aux.amount);\r\n            }\r\n            result += aux.amount;\r\n        }\r\n        \r\n        if (result != 0 && zero_sum)\r\n            revert(\"Unconsistent payments with 0-sum game policy (sum of payouts was not 0)\");\r\n    }\r\n    \r\n}   ",
  "sourcePath": "C:\\Users\\Pablo\\Desktop\\DistributedCasino\\contracts\\Main.sol",
  "compiler": {
    "name": "solc",
    "version": "0.8.19+commit.7dd6d404.Emscripten.clang"
  },
  "schemaVersion": "3.4.16",
  "updatedAt": "2023-12-08T17:50:21.731Z",
  "networkType": "ethereum",
  "devdoc": {
    "kind": "dev",
    "methods": {},
    "version": 1
  },
  "userdoc": {
    "kind": "user",
    "methods": {
      "modifyFunds((address,int256)[],bool)": {
        "notice": "Receives an array of Payment[] objects representing the payouts from the result of a game ensures that: 1. the sum of the amounts is 0, that is, no money enters or leaves the system here (fair betting) 2. all users exist and have enough money in case they are losing money here"
      }
    },
    "version": 1
  }
}