{
  "contractName": "Main",
  "abi": [
    {
      "inputs": [],
      "stateMutability": "nonpayable",
      "type": "constructor"
    },
    {
      "inputs": [],
      "name": "owner",
      "outputs": [
        {
          "internalType": "address",
          "name": "",
          "type": "address"
        }
      ],
      "stateMutability": "view",
      "type": "function",
      "constant": true
    },
    {
      "inputs": [
        {
          "internalType": "address",
          "name": "",
          "type": "address"
        }
      ],
      "name": "userFunds",
      "outputs": [
        {
          "internalType": "uint256",
          "name": "funds",
          "type": "uint256"
        },
        {
          "internalType": "bool",
          "name": "exists",
          "type": "bool"
        }
      ],
      "stateMutability": "view",
      "type": "function",
      "constant": true
    },
    {
      "inputs": [
        {
          "internalType": "uint256",
          "name": "",
          "type": "uint256"
        }
      ],
      "name": "userList",
      "outputs": [
        {
          "internalType": "address",
          "name": "",
          "type": "address"
        }
      ],
      "stateMutability": "view",
      "type": "function",
      "constant": true
    },
    {
      "inputs": [
        {
          "internalType": "address",
          "name": "game_contract",
          "type": "address"
        }
      ],
      "name": "isGameContract",
      "outputs": [
        {
          "internalType": "bool",
          "name": "",
          "type": "bool"
        }
      ],
      "stateMutability": "view",
      "type": "function",
      "constant": true
    },
    {
      "inputs": [
        {
          "internalType": "address",
          "name": "game_contract",
          "type": "address"
        }
      ],
      "name": "addGameContract",
      "outputs": [],
      "stateMutability": "nonpayable",
      "type": "function"
    },
    {
      "inputs": [
        {
          "internalType": "address",
          "name": "game_contract",
          "type": "address"
        }
      ],
      "name": "removeGameContract",
      "outputs": [],
      "stateMutability": "nonpayable",
      "type": "function"
    },
    {
      "inputs": [],
      "name": "registerUser",
      "outputs": [],
      "stateMutability": "nonpayable",
      "type": "function"
    },
    {
      "inputs": [],
      "name": "addFunds",
      "outputs": [],
      "stateMutability": "payable",
      "type": "function",
      "payable": true
    },
    {
      "inputs": [],
      "name": "retrieveFunds",
      "outputs": [],
      "stateMutability": "nonpayable",
      "type": "function"
    },
    {
      "inputs": [
        {
          "internalType": "address",
          "name": "user",
          "type": "address"
        }
      ],
      "name": "getFunds",
      "outputs": [
        {
          "internalType": "uint256",
          "name": "",
          "type": "uint256"
        }
      ],
      "stateMutability": "view",
      "type": "function",
      "constant": true
    },
    {
      "inputs": [],
      "name": "getCasinoFunds",
      "outputs": [
        {
          "internalType": "uint256",
          "name": "",
          "type": "uint256"
        }
      ],
      "stateMutability": "view",
      "type": "function",
      "constant": true
    },
    {
      "inputs": [
        {
          "components": [
            {
              "internalType": "address",
              "name": "addr",
              "type": "address"
            },
            {
              "internalType": "int256",
              "name": "amount",
              "type": "int256"
            }
          ],
          "internalType": "struct Structs.Payment[]",
          "name": "payments",
          "type": "tuple[]"
        },
        {
          "internalType": "bool",
          "name": "zero_sum",
          "type": "bool"
        }
      ],
      "name": "modifyFunds",
      "outputs": [],
      "stateMutability": "nonpayable",
      "type": "function"
    }
  ],
  "bytecode": "0x608060405234801561001057600080fd5b50336000806101000a81548173ffffffffffffffffffffffffffffffffffffffff021916908373ffffffffffffffffffffffffffffffffffffffff1602179055506113f1806100606000396000f3fe6080604052600436106100a75760003560e01c806385a28ff61161006457806385a28ff6146101955780638da5cb5b146101be5780639f4216e8146101e9578063a26759cb14610226578063c04a7d0d14610230578063decebbce1461026d576100a7565b80634d3820eb146100ac5780635c74e025146100c357806361b20d8c146100ec57806373d61b771461010357806381cd08ee1461012e5780638387c6e114610157575b600080fd5b3480156100b857600080fd5b506100c16102aa565b005b3480156100cf57600080fd5b506100ea60048036038101906100e59190610b44565b61036a565b005b3480156100f857600080fd5b50610101610453565b005b34801561010f57600080fd5b50610118610526565b6040516101259190610b8a565b60405180910390f35b34801561013a57600080fd5b5061015560048036038101906101509190610b44565b61052e565b005b34801561016357600080fd5b5061017e60048036038101906101799190610b44565b610616565b60405161018c929190610bc0565b60405180910390f35b3480156101a157600080fd5b506101bc60048036038101906101b79190610df9565b610647565b005b3480156101ca57600080fd5b506101d3610982565b6040516101e09190610e64565b60405180910390f35b3480156101f557600080fd5b50610210600480360381019061020b9190610eab565b6109a6565b60405161021d9190610e64565b60405180910390f35b61022e6109e5565b005b34801561023c57600080fd5b5061025760048036038101906102529190610b44565b610a7b565b6040516102649190610ed8565b60405180910390f35b34801561027957600080fd5b50610294600480360381019061028f9190610b44565b610a86565b6040516102a19190610b8a565b60405180910390f35b6002339080600181540180825580915050600190039060005260206000200160009091909190916101000a81548173ffffffffffffffffffffffffffffffffffffffff021916908373ffffffffffffffffffffffffffffffffffffffff1602179055506001600360003373ffffffffffffffffffffffffffffffffffffffff1673ffffffffffffffffffffffffffffffffffffffff16815260200190815260200160002060010160006101000a81548160ff021916908315150217905550565b60008054906101000a900473ffffffffffffffffffffffffffffffffffffffff1673ffffffffffffffffffffffffffffffffffffffff163373ffffffffffffffffffffffffffffffffffffffff16146103f8576040517f08c379a00000000000000000000000000000000000000000000000000000000081526004016103ef90610f76565b60405180910390fd5b6000600160008373ffffffffffffffffffffffffffffffffffffffff1673ffffffffffffffffffffffffffffffffffffffff16815260200190815260200160002060006101000a81548160ff02191690831515021790555050565b3373ffffffffffffffffffffffffffffffffffffffff166108fc600360003373ffffffffffffffffffffffffffffffffffffffff1673ffffffffffffffffffffffffffffffffffffffff168152602001908152602001600020600001549081150290604051600060405180830381858888f193505050501580156104db573d6000803e3d6000fd5b506000600360003373ffffffffffffffffffffffffffffffffffffffff1673ffffffffffffffffffffffffffffffffffffffff16815260200190815260200160002060000181905550565b600047905090565b60008054906101000a900473ffffffffffffffffffffffffffffffffffffffff1673ffffffffffffffffffffffffffffffffffffffff163373ffffffffffffffffffffffffffffffffffffffff16146105bc576040517f08c379a00000000000000000000000000000000000000000000000000000000081526004016105b390610f76565b60405180910390fd5b60018060008373ffffffffffffffffffffffffffffffffffffffff1673ffffffffffffffffffffffffffffffffffffffff16815260200190815260200160002060006101000a81548160ff02191690831515021790555050565b60036020528060005260406000206000915090508060000154908060010160009054906101000a900460ff16905082565b600160003373ffffffffffffffffffffffffffffffffffffffff1673ffffffffffffffffffffffffffffffffffffffff16815260200190815260200160002060009054906101000a900460ff166106d3576040517f08c379a00000000000000000000000000000000000000000000000000000000081526004016106ca90611008565b60405180910390fd5b6000805b835181101561092e5760008482815181106106f5576106f4611028565b5b6020026020010151905060036000826000015173ffffffffffffffffffffffffffffffffffffffff1673ffffffffffffffffffffffffffffffffffffffff16815260200190815260200160002060010160009054906101000a900460ff16610792576040517f08c379a0000000000000000000000000000000000000000000000000000000008152600401610789906110a3565b60405180910390fd5b600081602001511261080457806020015160036000836000015173ffffffffffffffffffffffffffffffffffffffff1673ffffffffffffffffffffffffffffffffffffffff16815260200190815260200160002060000160008282546107f891906110f2565b92505081905550610908565b6000816020015160036000846000015173ffffffffffffffffffffffffffffffffffffffff1673ffffffffffffffffffffffffffffffffffffffff1681526020019081526020016000206000015461085c9190611126565b121561089d576040517f08c379a0000000000000000000000000000000000000000000000000000000008152600401610894906111db565b60405180910390fd5b80602001516108ab906111fb565b60036000836000015173ffffffffffffffffffffffffffffffffffffffff1673ffffffffffffffffffffffffffffffffffffffff16815260200190815260200160002060000160008282546109009190611243565b925050819055505b8060200151836109189190611277565b9250508080610926906112bb565b9150506106d7565b506000811415801561093d5750815b1561097d576040517f08c379a00000000000000000000000000000000000000000000000000000000081526004016109749061139b565b60405180910390fd5b505050565b60008054906101000a900473ffffffffffffffffffffffffffffffffffffffff1681565b600281815481106109b657600080fd5b906000526020600020016000915054906101000a900473ffffffffffffffffffffffffffffffffffffffff1681565b600360003373ffffffffffffffffffffffffffffffffffffffff1673ffffffffffffffffffffffffffffffffffffffff1681526020019081526020016000206000015434610a3391906110f2565b600360003373ffffffffffffffffffffffffffffffffffffffff1673ffffffffffffffffffffffffffffffffffffffff16815260200190815260200160002060000181905550565b600060019050919050565b6000600360008373ffffffffffffffffffffffffffffffffffffffff1673ffffffffffffffffffffffffffffffffffffffff168152602001908152602001600020600001549050919050565b6000604051905090565b600080fd5b600080fd5b600073ffffffffffffffffffffffffffffffffffffffff82169050919050565b6000610b1182610ae6565b9050919050565b610b2181610b06565b8114610b2c57600080fd5b50565b600081359050610b3e81610b18565b92915050565b600060208284031215610b5a57610b59610adc565b5b6000610b6884828501610b2f565b91505092915050565b6000819050919050565b610b8481610b71565b82525050565b6000602082019050610b9f6000830184610b7b565b92915050565b60008115159050919050565b610bba81610ba5565b82525050565b6000604082019050610bd56000830185610b7b565b610be26020830184610bb1565b9392505050565b600080fd5b6000601f19601f8301169050919050565b7f4e487b7100000000000000000000000000000000000000000000000000000000600052604160045260246000fd5b610c3782610bee565b810181811067ffffffffffffffff82111715610c5657610c55610bff565b5b80604052505050565b6000610c69610ad2565b9050610c758282610c2e565b919050565b600067ffffffffffffffff821115610c9557610c94610bff565b5b602082029050602081019050919050565b600080fd5b600080fd5b6000819050919050565b610cc381610cb0565b8114610cce57600080fd5b50565b600081359050610ce081610cba565b92915050565b600060408284031215610cfc57610cfb610cab565b5b610d066040610c5f565b90506000610d1684828501610b2f565b6000830152506020610d2a84828501610cd1565b60208301525092915050565b6000610d49610d4484610c7a565b610c5f565b90508083825260208201905060408402830185811115610d6c57610d6b610ca6565b5b835b81811015610d955780610d818882610ce6565b845260208401935050604081019050610d6e565b5050509392505050565b600082601f830112610db457610db3610be9565b5b8135610dc4848260208601610d36565b91505092915050565b610dd681610ba5565b8114610de157600080fd5b50565b600081359050610df381610dcd565b92915050565b60008060408385031215610e1057610e0f610adc565b5b600083013567ffffffffffffffff811115610e2e57610e2d610ae1565b5b610e3a85828601610d9f565b9250506020610e4b85828601610de4565b9150509250929050565b610e5e81610b06565b82525050565b6000602082019050610e796000830184610e55565b92915050565b610e8881610b71565b8114610e9357600080fd5b50565b600081359050610ea581610e7f565b92915050565b600060208284031215610ec157610ec0610adc565b5b6000610ecf84828501610e96565b91505092915050565b6000602082019050610eed6000830184610bb1565b92915050565b600082825260208201905092915050565b7f4f6e6c79206f776e65722063616e2063616c6c20746869732066756e6374696f60008201527f6e00000000000000000000000000000000000000000000000000000000000000602082015250565b6000610f60602183610ef3565b9150610f6b82610f04565b604082019050919050565b60006020820190508181036000830152610f8f81610f53565b9050919050565b7f4f6e6c792067616d6520636f6e7472616374732063616e2063616c6c2074686960008201527f732066756e6374696f6e00000000000000000000000000000000000000000000602082015250565b6000610ff2602a83610ef3565b9150610ffd82610f96565b604082019050919050565b6000602082019050818103600083015261102181610fe5565b9050919050565b7f4e487b7100000000000000000000000000000000000000000000000000000000600052603260045260246000fd5b7f4f6e65206f662074686520757365727320646f6573206e6f7420657869737400600082015250565b600061108d601f83610ef3565b915061109882611057565b602082019050919050565b600060208201905081810360008301526110bc81611080565b9050919050565b7f4e487b7100000000000000000000000000000000000000000000000000000000600052601160045260246000fd5b60006110fd82610b71565b915061110883610b71565b92508282019050808211156111205761111f6110c3565b5b92915050565b600061113182610cb0565b915061113c83610cb0565b9250828203905081811260008412168282136000851215161715611163576111626110c3565b5b92915050565b7f4f6e65206f66207468652075736572732068617320696e737566696369656e7460008201527f2066756e64730000000000000000000000000000000000000000000000000000602082015250565b60006111c5602683610ef3565b91506111d082611169565b604082019050919050565b600060208201905081810360008301526111f4816111b8565b9050919050565b600061120682610cb0565b91507f80000000000000000000000000000000000000000000000000000000000000008203611238576112376110c3565b5b816000039050919050565b600061124e82610b71565b915061125983610b71565b9250828203905081811115611271576112706110c3565b5b92915050565b600061128282610cb0565b915061128d83610cb0565b9250828201905082811215600083121683821260008412151617156112b5576112b46110c3565b5b92915050565b60006112c682610b71565b91507fffffffffffffffffffffffffffffffffffffffffffffffffffffffffffffffff82036112f8576112f76110c3565b5b600182019050919050565b7f556e636f6e73697374656e74207061796d656e7473207769746820302d73756d60008201527f2067616d6520706f6c696379202873756d206f66207061796f7574732077617360208201527f206e6f7420302900000000000000000000000000000000000000000000000000604082015250565b6000611385604783610ef3565b915061139082611303565b606082019050919050565b600060208201905081810360008301526113b481611378565b905091905056fea2646970667358221220acdbefbcd898616db2b9efd539f8f290846d5277644828c00817dd8735be447a64736f6c63430008130033",
  "immutableReferences": {},
  "source": "// SPDX-License-Identifier: MIT\r\npragma solidity 0.8.19;\r\n\r\nimport \"./Structs.sol\";\r\n\r\ncontract Main {\r\n    \r\n    struct Users {\r\n        uint256 funds;\r\n        bool exists;\r\n    }\r\n\r\n    address public owner;\r\n    mapping(address => bool) gameContracts;\r\n\r\n    address[] public userList;\r\n    mapping(address => Users) public userFunds;\r\n\r\n    constructor() {\r\n        owner = msg.sender;\r\n    }\r\n    \r\n    // Access modifiers for owner and game contracts\r\n    modifier onlyOwner() {\r\n        require(msg.sender == owner, \"Only owner can call this function\");\r\n        _;\r\n    }\r\n\r\n    modifier onlyGameContracts() {\r\n        require(gameContracts[msg.sender], \"Only game contracts can call this function\");\r\n        _;\r\n    }\r\n\r\n    function isGameContract(address game_contract) external view returns (bool) {\r\n        return true;\r\n    }\r\n\r\n    // Add addresses of game contracts, can only be invoked by owner\r\n    function addGameContract(address game_contract) external onlyOwner {\r\n        gameContracts[game_contract] = true;\r\n    }\r\n\r\n    // Removes addresses of game contracts, can only be invoked by owner\r\n    function removeGameContract(address game_contract) external onlyOwner {\r\n        gameContracts[game_contract] = false;\r\n    }\r\n\r\n    // Adds the user to the list of userss\r\n    function registerUser() external {\r\n        userList.push(msg.sender);\r\n        userFunds[msg.sender].exists = true;\r\n    }\r\n    \r\n    // Adds funds to the user account\r\n    function addFunds() external payable {\r\n        userFunds[msg.sender].funds = msg.value + userFunds[msg.sender].funds;\r\n    }\r\n\r\n\r\n    // Let's a user retrieve his funds from the casino\r\n    function retrieveFunds() external {\r\n        payable(msg.sender).transfer(userFunds[msg.sender].funds); \r\n        userFunds[msg.sender].funds = 0;\r\n    }\r\n\r\n    // Gets the user funds\r\n    function getFunds(address user) external view returns (uint256) {\r\n        return userFunds[user].funds;\r\n    }\r\n\r\n    function getCasinoFunds() external view returns (uint256) {\r\n        return address(this).balance;\r\n    }\r\n    \r\n    /**\r\n     * Receives an array of Payment[] objects representing the payouts from the result of a game\r\n     * ensures that:\r\n     * 1. the sum of the amounts is 0, that is, no money enters or leaves the system here (fair betting)\r\n     * 2. all users exist and have enough money in case they are losing money here\r\n     */\r\n    function modifyFunds(Structs.Payment[] memory payments, bool zero_sum) external onlyGameContracts {\r\n        int256 result = 0;\r\n\r\n        for(uint256 i = 0; i < payments.length; i++) {\r\n            Structs.Payment memory aux = payments[i];\r\n            if (!userFunds[aux.addr].exists)\r\n                revert(\"One of the users does not exist\");\r\n            if(aux.amount >= 0 ){\r\n                userFunds[aux.addr].funds += uint256(aux.amount);\r\n            } else {\r\n                require((int256(userFunds[aux.addr].funds) - aux.amount) >= 0, \r\n                    \"One of the users has insuficient funds\");\r\n                userFunds[aux.addr].funds -= uint256(-aux.amount);\r\n            }\r\n            result += aux.amount;\r\n        }\r\n        \r\n        if (result != 0 && zero_sum)\r\n            revert(\"Unconsistent payments with 0-sum game policy (sum of payouts was not 0)\");\r\n    }\r\n    \r\n}   ",
  "sourcePath": "C:\\Users\\Pablo\\Desktop\\DistributedCasino\\contracts\\Main.sol",
  "compiler": {
    "name": "solc",
    "version": "0.8.19+commit.7dd6d404.Emscripten.clang"
  },
  "schemaVersion": "3.4.16",
  "updatedAt": "2023-12-07T19:42:33.094Z",
  "networkType": "ethereum",
  "devdoc": {
    "kind": "dev",
    "methods": {},
    "version": 1
  },
  "userdoc": {
    "kind": "user",
    "methods": {
      "modifyFunds((address,int256)[],bool)": {
        "notice": "Receives an array of Payment[] objects representing the payouts from the result of a game ensures that: 1. the sum of the amounts is 0, that is, no money enters or leaves the system here (fair betting) 2. all users exist and have enough money in case they are losing money here"
      }
    },
    "version": 1
  }
}