{
  "contractName": "Main",
  "abi": [
    {
      "inputs": [],
      "stateMutability": "nonpayable",
      "type": "constructor"
    },
    {
      "inputs": [],
      "name": "owner",
      "outputs": [
        {
          "internalType": "address",
          "name": "",
          "type": "address"
        }
      ],
      "stateMutability": "view",
      "type": "function",
      "constant": true
    },
    {
      "inputs": [
        {
          "internalType": "address",
          "name": "",
          "type": "address"
        }
      ],
      "name": "userFunds",
      "outputs": [
        {
          "internalType": "uint256",
          "name": "funds",
          "type": "uint256"
        },
        {
          "internalType": "bool",
          "name": "exists",
          "type": "bool"
        }
      ],
      "stateMutability": "view",
      "type": "function",
      "constant": true
    },
    {
      "inputs": [
        {
          "internalType": "uint256",
          "name": "",
          "type": "uint256"
        }
      ],
      "name": "userList",
      "outputs": [
        {
          "internalType": "address",
          "name": "",
          "type": "address"
        }
      ],
      "stateMutability": "view",
      "type": "function",
      "constant": true
    },
    {
      "inputs": [
        {
          "internalType": "address",
          "name": "game_contract",
          "type": "address"
        }
      ],
      "name": "isGameContract",
      "outputs": [
        {
          "internalType": "bool",
          "name": "",
          "type": "bool"
        }
      ],
      "stateMutability": "view",
      "type": "function",
      "constant": true
    },
    {
      "inputs": [
        {
          "internalType": "address",
          "name": "game_contract",
          "type": "address"
        }
      ],
      "name": "addGameContract",
      "outputs": [],
      "stateMutability": "nonpayable",
      "type": "function"
    },
    {
      "inputs": [
        {
          "internalType": "address",
          "name": "game_contract",
          "type": "address"
        }
      ],
      "name": "removeGameContract",
      "outputs": [],
      "stateMutability": "nonpayable",
      "type": "function"
    },
    {
      "inputs": [],
      "name": "registerUser",
      "outputs": [],
      "stateMutability": "nonpayable",
      "type": "function"
    },
    {
      "inputs": [],
      "name": "addFunds",
      "outputs": [],
      "stateMutability": "payable",
      "type": "function",
      "payable": true
    },
    {
      "inputs": [
        {
          "internalType": "uint256",
          "name": "amount",
          "type": "uint256"
        }
      ],
      "name": "retrieveFunds",
      "outputs": [],
      "stateMutability": "nonpayable",
      "type": "function"
    },
    {
      "inputs": [
        {
          "internalType": "address",
          "name": "user",
          "type": "address"
        }
      ],
      "name": "getFunds",
      "outputs": [
        {
          "internalType": "uint256",
          "name": "",
          "type": "uint256"
        }
      ],
      "stateMutability": "view",
      "type": "function",
      "constant": true
    },
    {
      "inputs": [],
      "name": "getCasinoFunds",
      "outputs": [
        {
          "internalType": "uint256",
          "name": "",
          "type": "uint256"
        }
      ],
      "stateMutability": "view",
      "type": "function",
      "constant": true
    },
    {
      "inputs": [
        {
          "components": [
            {
              "internalType": "address",
              "name": "addr",
              "type": "address"
            },
            {
              "internalType": "int256",
              "name": "amount",
              "type": "int256"
            }
          ],
          "internalType": "struct Structs.Payment[]",
          "name": "payments",
          "type": "tuple[]"
        },
        {
          "internalType": "bool",
          "name": "zero_sum",
          "type": "bool"
        }
      ],
      "name": "modifyFunds",
      "outputs": [],
      "stateMutability": "nonpayable",
      "type": "function"
    }
  ],
  "bytecode": "0x608060405234801561001057600080fd5b50336000806101000a81548173ffffffffffffffffffffffffffffffffffffffff021916908373ffffffffffffffffffffffffffffffffffffffff160217905550611535806100606000396000f3fe6080604052600436106100a75760003560e01c80638da5cb5b116100645780638da5cb5b146101a75780639f4216e8146101d2578063a26759cb1461020f578063c04a7d0d14610219578063decebbce14610256578063fc41491e14610293576100a7565b80634d3820eb146100ac5780635c74e025146100c357806373d61b77146100ec57806381cd08ee146101175780638387c6e11461014057806385a28ff61461017e575b600080fd5b3480156100b857600080fd5b506100c16102bc565b005b3480156100cf57600080fd5b506100ea60048036038101906100e59190610bf6565b61037c565b005b3480156100f857600080fd5b50610101610465565b60405161010e9190610c3c565b60405180910390f35b34801561012357600080fd5b5061013e60048036038101906101399190610bf6565b61046d565b005b34801561014c57600080fd5b5061016760048036038101906101629190610bf6565b610555565b604051610175929190610c72565b60405180910390f35b34801561018a57600080fd5b506101a560048036038101906101a09190610eab565b610586565b005b3480156101b357600080fd5b506101bc6108c1565b6040516101c99190610f16565b60405180910390f35b3480156101de57600080fd5b506101f960048036038101906101f49190610f5d565b6108e5565b6040516102069190610f16565b60405180910390f35b610217610924565b005b34801561022557600080fd5b50610240600480360381019061023b9190610bf6565b6109ba565b60405161024d9190610f8a565b60405180910390f35b34801561026257600080fd5b5061027d60048036038101906102789190610bf6565b610a10565b60405161028a9190610c3c565b60405180910390f35b34801561029f57600080fd5b506102ba60048036038101906102b59190610f5d565b610a5c565b005b6002339080600181540180825580915050600190039060005260206000200160009091909190916101000a81548173ffffffffffffffffffffffffffffffffffffffff021916908373ffffffffffffffffffffffffffffffffffffffff1602179055506001600360003373ffffffffffffffffffffffffffffffffffffffff1673ffffffffffffffffffffffffffffffffffffffff16815260200190815260200160002060010160006101000a81548160ff021916908315150217905550565b60008054906101000a900473ffffffffffffffffffffffffffffffffffffffff1673ffffffffffffffffffffffffffffffffffffffff163373ffffffffffffffffffffffffffffffffffffffff161461040a576040517f08c379a000000000000000000000000000000000000000000000000000000000815260040161040190611028565b60405180910390fd5b6000600160008373ffffffffffffffffffffffffffffffffffffffff1673ffffffffffffffffffffffffffffffffffffffff16815260200190815260200160002060006101000a81548160ff02191690831515021790555050565b600047905090565b60008054906101000a900473ffffffffffffffffffffffffffffffffffffffff1673ffffffffffffffffffffffffffffffffffffffff163373ffffffffffffffffffffffffffffffffffffffff16146104fb576040517f08c379a00000000000000000000000000000000000000000000000000000000081526004016104f290611028565b60405180910390fd5b60018060008373ffffffffffffffffffffffffffffffffffffffff1673ffffffffffffffffffffffffffffffffffffffff16815260200190815260200160002060006101000a81548160ff02191690831515021790555050565b60036020528060005260406000206000915090508060000154908060010160009054906101000a900460ff16905082565b600160003373ffffffffffffffffffffffffffffffffffffffff1673ffffffffffffffffffffffffffffffffffffffff16815260200190815260200160002060009054906101000a900460ff16610612576040517f08c379a0000000000000000000000000000000000000000000000000000000008152600401610609906110ba565b60405180910390fd5b6000805b835181101561086d576000848281518110610634576106336110da565b5b6020026020010151905060036000826000015173ffffffffffffffffffffffffffffffffffffffff1673ffffffffffffffffffffffffffffffffffffffff16815260200190815260200160002060010160009054906101000a900460ff166106d1576040517f08c379a00000000000000000000000000000000000000000000000000000000081526004016106c890611155565b60405180910390fd5b600081602001511261074357806020015160036000836000015173ffffffffffffffffffffffffffffffffffffffff1673ffffffffffffffffffffffffffffffffffffffff168152602001908152602001600020600001600082825461073791906111a4565b92505081905550610847565b6000816020015160036000846000015173ffffffffffffffffffffffffffffffffffffffff1673ffffffffffffffffffffffffffffffffffffffff1681526020019081526020016000206000015461079b91906111d8565b12156107dc576040517f08c379a00000000000000000000000000000000000000000000000000000000081526004016107d39061128d565b60405180910390fd5b80602001516107ea906112ad565b60036000836000015173ffffffffffffffffffffffffffffffffffffffff1673ffffffffffffffffffffffffffffffffffffffff168152602001908152602001600020600001600082825461083f91906112f5565b925050819055505b8060200151836108579190611329565b92505080806108659061136d565b915050610616565b506000811415801561087c5750815b156108bc576040517f08c379a00000000000000000000000000000000000000000000000000000000081526004016108b39061144d565b60405180910390fd5b505050565b60008054906101000a900473ffffffffffffffffffffffffffffffffffffffff1681565b600281815481106108f557600080fd5b906000526020600020016000915054906101000a900473ffffffffffffffffffffffffffffffffffffffff1681565b600360003373ffffffffffffffffffffffffffffffffffffffff1673ffffffffffffffffffffffffffffffffffffffff168152602001908152602001600020600001543461097291906111a4565b600360003373ffffffffffffffffffffffffffffffffffffffff1673ffffffffffffffffffffffffffffffffffffffff16815260200190815260200160002060000181905550565b6000600160008373ffffffffffffffffffffffffffffffffffffffff1673ffffffffffffffffffffffffffffffffffffffff16815260200190815260200160002060009054906101000a900460ff169050919050565b6000600360008373ffffffffffffffffffffffffffffffffffffffff1673ffffffffffffffffffffffffffffffffffffffff168152602001908152602001600020600001549050919050565b600360003373ffffffffffffffffffffffffffffffffffffffff1673ffffffffffffffffffffffffffffffffffffffff16815260200190815260200160002060000154811115610ae1576040517f08c379a0000000000000000000000000000000000000000000000000000000008152600401610ad8906114df565b60405180910390fd5b3373ffffffffffffffffffffffffffffffffffffffff166108fc829081150290604051600060405180830381858888f19350505050158015610b27573d6000803e3d6000fd5b5080600360003373ffffffffffffffffffffffffffffffffffffffff1673ffffffffffffffffffffffffffffffffffffffff1681526020019081526020016000206000016000828254610b7a91906112f5565b9250508190555050565b6000604051905090565b600080fd5b600080fd5b600073ffffffffffffffffffffffffffffffffffffffff82169050919050565b6000610bc382610b98565b9050919050565b610bd381610bb8565b8114610bde57600080fd5b50565b600081359050610bf081610bca565b92915050565b600060208284031215610c0c57610c0b610b8e565b5b6000610c1a84828501610be1565b91505092915050565b6000819050919050565b610c3681610c23565b82525050565b6000602082019050610c516000830184610c2d565b92915050565b60008115159050919050565b610c6c81610c57565b82525050565b6000604082019050610c876000830185610c2d565b610c946020830184610c63565b9392505050565b600080fd5b6000601f19601f8301169050919050565b7f4e487b7100000000000000000000000000000000000000000000000000000000600052604160045260246000fd5b610ce982610ca0565b810181811067ffffffffffffffff82111715610d0857610d07610cb1565b5b80604052505050565b6000610d1b610b84565b9050610d278282610ce0565b919050565b600067ffffffffffffffff821115610d4757610d46610cb1565b5b602082029050602081019050919050565b600080fd5b600080fd5b6000819050919050565b610d7581610d62565b8114610d8057600080fd5b50565b600081359050610d9281610d6c565b92915050565b600060408284031215610dae57610dad610d5d565b5b610db86040610d11565b90506000610dc884828501610be1565b6000830152506020610ddc84828501610d83565b60208301525092915050565b6000610dfb610df684610d2c565b610d11565b90508083825260208201905060408402830185811115610e1e57610e1d610d58565b5b835b81811015610e475780610e338882610d98565b845260208401935050604081019050610e20565b5050509392505050565b600082601f830112610e6657610e65610c9b565b5b8135610e76848260208601610de8565b91505092915050565b610e8881610c57565b8114610e9357600080fd5b50565b600081359050610ea581610e7f565b92915050565b60008060408385031215610ec257610ec1610b8e565b5b600083013567ffffffffffffffff811115610ee057610edf610b93565b5b610eec85828601610e51565b9250506020610efd85828601610e96565b9150509250929050565b610f1081610bb8565b82525050565b6000602082019050610f2b6000830184610f07565b92915050565b610f3a81610c23565b8114610f4557600080fd5b50565b600081359050610f5781610f31565b92915050565b600060208284031215610f7357610f72610b8e565b5b6000610f8184828501610f48565b91505092915050565b6000602082019050610f9f6000830184610c63565b92915050565b600082825260208201905092915050565b7f4f6e6c79206f776e65722063616e2063616c6c20746869732066756e6374696f60008201527f6e00000000000000000000000000000000000000000000000000000000000000602082015250565b6000611012602183610fa5565b915061101d82610fb6565b604082019050919050565b6000602082019050818103600083015261104181611005565b9050919050565b7f4f6e6c792067616d6520636f6e7472616374732063616e2063616c6c2074686960008201527f732066756e6374696f6e00000000000000000000000000000000000000000000602082015250565b60006110a4602a83610fa5565b91506110af82611048565b604082019050919050565b600060208201905081810360008301526110d381611097565b9050919050565b7f4e487b7100000000000000000000000000000000000000000000000000000000600052603260045260246000fd5b7f4f6e65206f662074686520757365727320646f6573206e6f7420657869737400600082015250565b600061113f601f83610fa5565b915061114a82611109565b602082019050919050565b6000602082019050818103600083015261116e81611132565b9050919050565b7f4e487b7100000000000000000000000000000000000000000000000000000000600052601160045260246000fd5b60006111af82610c23565b91506111ba83610c23565b92508282019050808211156111d2576111d1611175565b5b92915050565b60006111e382610d62565b91506111ee83610d62565b925082820390508181126000841216828213600085121516171561121557611214611175565b5b92915050565b7f4f6e65206f66207468652075736572732068617320696e737566696369656e7460008201527f2066756e64730000000000000000000000000000000000000000000000000000602082015250565b6000611277602683610fa5565b91506112828261121b565b604082019050919050565b600060208201905081810360008301526112a68161126a565b9050919050565b60006112b882610d62565b91507f800000000000000000000000000000000000000000000000000000000000000082036112ea576112e9611175565b5b816000039050919050565b600061130082610c23565b915061130b83610c23565b925082820390508181111561132357611322611175565b5b92915050565b600061133482610d62565b915061133f83610d62565b92508282019050828112156000831216838212600084121516171561136757611366611175565b5b92915050565b600061137882610c23565b91507fffffffffffffffffffffffffffffffffffffffffffffffffffffffffffffffff82036113aa576113a9611175565b5b600182019050919050565b7f556e636f6e73697374656e74207061796d656e7473207769746820302d73756d60008201527f2067616d6520706f6c696379202873756d206f66207061796f7574732077617360208201527f206e6f7420302900000000000000000000000000000000000000000000000000604082015250565b6000611437604783610fa5565b9150611442826113b5565b606082019050919050565b600060208201905081810360008301526114668161142a565b9050919050565b7f546865207573657220646f65736e2774206861766520616e6f7567682066756e60008201527f6473000000000000000000000000000000000000000000000000000000000000602082015250565b60006114c9602283610fa5565b91506114d48261146d565b604082019050919050565b600060208201905081810360008301526114f8816114bc565b905091905056fea26469706673582212208e1551ec0c5705587e9f8c91cb1acaab4082b9ae1b2d28df963ad857053c7aef64736f6c63430008130033",
  "immutableReferences": {},
  "source": "// SPDX-License-Identifier: MIT\r\npragma solidity 0.8.19;\r\n\r\nimport \"./Structs.sol\";\r\n\r\ncontract Main {\r\n    \r\n    struct Users {\r\n        uint256 funds;\r\n        bool exists;\r\n    }\r\n\r\n    address public owner;\r\n    mapping(address => bool) gameContracts;\r\n\r\n    address[] public userList;\r\n    mapping(address => Users) public userFunds;\r\n\r\n    constructor() {\r\n        owner = msg.sender;\r\n    }\r\n    \r\n    // Access modifiers for owner and game contracts\r\n    modifier onlyOwner() {\r\n        require(msg.sender == owner, \"Only owner can call this function\");\r\n        _;\r\n    }\r\n\r\n    modifier onlyGameContracts() {\r\n        require(gameContracts[msg.sender], \"Only game contracts can call this function\");\r\n        _;\r\n    }\r\n\r\n    function isGameContract(address game_contract) external view returns (bool) {\r\n        return gameContracts[game_contract];\r\n    }\r\n\r\n    // Add addresses of game contracts, can only be invoked by owner\r\n    function addGameContract(address game_contract) external onlyOwner {\r\n        gameContracts[game_contract] = true;\r\n    }\r\n\r\n    // Removes addresses of game contracts, can only be invoked by owner\r\n    function removeGameContract(address game_contract) external onlyOwner {\r\n        gameContracts[game_contract] = false;\r\n    }\r\n\r\n    // Adds the user to the list of userss\r\n    function registerUser() external {\r\n        userList.push(msg.sender);\r\n        userFunds[msg.sender].exists = true;\r\n    }\r\n    \r\n    // Adds funds to the user account\r\n    function addFunds() external payable {\r\n        userFunds[msg.sender].funds = msg.value + userFunds[msg.sender].funds;\r\n    }\r\n\r\n\r\n    // Let's a user retrieve his funds from the casino\r\n    function retrieveFunds(uint256 amount) external {\r\n        require(amount <= userFunds[msg.sender].funds, \"The user doesn't have anough funds\");\r\n        payable(msg.sender).transfer(amount); \r\n        userFunds[msg.sender].funds -= amount;\r\n    }\r\n\r\n    // Gets the user funds\r\n    function getFunds(address user) external view returns (uint256) {\r\n        return userFunds[user].funds;\r\n    }\r\n\r\n    function getCasinoFunds() external view returns (uint256) {\r\n        return address(this).balance;\r\n    }\r\n    \r\n    /**\r\n     * Receives an array of Payment[] objects representing the payouts from the result of a game\r\n     * ensures that:\r\n     * 1. the sum of the amounts is 0, that is, no money enters or leaves the system here (fair betting)\r\n     * 2. all users exist and have enough money in case they are losing money here\r\n     */\r\n    function modifyFunds(Structs.Payment[] memory payments, bool zero_sum) external onlyGameContracts {\r\n        int256 result = 0;\r\n\r\n        for(uint256 i = 0; i < payments.length; i++) {\r\n            Structs.Payment memory aux = payments[i];\r\n            if (!userFunds[aux.addr].exists)\r\n                revert(\"One of the users does not exist\");\r\n            if(aux.amount >= 0 ){\r\n                userFunds[aux.addr].funds += uint256(aux.amount);\r\n            } else {\r\n                require((int256(userFunds[aux.addr].funds) - aux.amount) >= 0, \r\n                    \"One of the users has insuficient funds\");\r\n                userFunds[aux.addr].funds -= uint256(-aux.amount);\r\n            }\r\n            result += aux.amount;\r\n        }\r\n        \r\n        if (result != 0 && zero_sum)\r\n            revert(\"Unconsistent payments with 0-sum game policy (sum of payouts was not 0)\");\r\n    }\r\n    \r\n}   ",
  "sourcePath": "C:\\Users\\Pablo\\Desktop\\DistributedCasino\\contracts\\Main.sol",
  "compiler": {
    "name": "solc",
    "version": "0.8.19+commit.7dd6d404.Emscripten.clang"
  },
  "schemaVersion": "3.4.16",
  "updatedAt": "2023-12-07T23:23:31.544Z",
  "networkType": "ethereum",
  "devdoc": {
    "kind": "dev",
    "methods": {},
    "version": 1
  },
  "userdoc": {
    "kind": "user",
    "methods": {
      "modifyFunds((address,int256)[],bool)": {
        "notice": "Receives an array of Payment[] objects representing the payouts from the result of a game ensures that: 1. the sum of the amounts is 0, that is, no money enters or leaves the system here (fair betting) 2. all users exist and have enough money in case they are losing money here"
      }
    },
    "version": 1
  }
}