{
  "contractName": "Blackjack",
  "abi": [
    {
      "inputs": [
        {
          "internalType": "uint256",
          "name": "_minimumBet",
          "type": "uint256"
        },
        {
          "internalType": "uint8",
          "name": "_maxPlayers",
          "type": "uint8"
        },
        {
          "internalType": "address",
          "name": "_main_contract_addr",
          "type": "address"
        }
      ],
      "stateMutability": "nonpayable",
      "type": "constructor"
    },
    {
      "anonymous": false,
      "inputs": [
        {
          "indexed": true,
          "internalType": "address",
          "name": "player",
          "type": "address"
        },
        {
          "indexed": false,
          "internalType": "uint8",
          "name": "card",
          "type": "uint8"
        }
      ],
      "name": "CardDealt",
      "type": "event"
    },
    {
      "anonymous": false,
      "inputs": [
        {
          "indexed": false,
          "internalType": "enum Blackjack.GamePhase",
          "name": "phase",
          "type": "uint8"
        }
      ],
      "name": "GamePhasedChanged",
      "type": "event"
    },
    {
      "anonymous": false,
      "inputs": [
        {
          "indexed": true,
          "internalType": "address",
          "name": "player",
          "type": "address"
        },
        {
          "indexed": false,
          "internalType": "bool",
          "name": "hasWon",
          "type": "bool"
        },
        {
          "indexed": false,
          "internalType": "bool",
          "name": "hasBlackjack",
          "type": "bool"
        }
      ],
      "name": "GameResult",
      "type": "event"
    },
    {
      "anonymous": false,
      "inputs": [
        {
          "indexed": true,
          "internalType": "address",
          "name": "player",
          "type": "address"
        },
        {
          "indexed": false,
          "internalType": "uint256",
          "name": "amount",
          "type": "uint256"
        },
        {
          "indexed": false,
          "internalType": "uint8",
          "name": "totalPlayers",
          "type": "uint8"
        }
      ],
      "name": "PlayerJoined",
      "type": "event"
    },
    {
      "anonymous": false,
      "inputs": [
        {
          "indexed": true,
          "internalType": "address",
          "name": "player",
          "type": "address"
        },
        {
          "indexed": false,
          "internalType": "uint8",
          "name": "total",
          "type": "uint8"
        }
      ],
      "name": "PlayerStood",
      "type": "event"
    },
    {
      "anonymous": false,
      "inputs": [
        {
          "indexed": true,
          "internalType": "address",
          "name": "player",
          "type": "address"
        },
        {
          "indexed": false,
          "internalType": "uint8",
          "name": "totalVoted",
          "type": "uint8"
        }
      ],
      "name": "PlayerVoted",
      "type": "event"
    },
    {
      "inputs": [],
      "name": "mainContract",
      "outputs": [
        {
          "internalType": "contract Main",
          "name": "",
          "type": "address"
        }
      ],
      "stateMutability": "view",
      "type": "function",
      "constant": true
    },
    {
      "inputs": [],
      "name": "mainContractAddr",
      "outputs": [
        {
          "internalType": "address",
          "name": "",
          "type": "address"
        }
      ],
      "stateMutability": "view",
      "type": "function",
      "constant": true
    },
    {
      "inputs": [],
      "name": "maxPlayers",
      "outputs": [
        {
          "internalType": "uint8",
          "name": "",
          "type": "uint8"
        }
      ],
      "stateMutability": "view",
      "type": "function",
      "constant": true
    },
    {
      "inputs": [],
      "name": "minimumBet",
      "outputs": [
        {
          "internalType": "uint256",
          "name": "",
          "type": "uint256"
        }
      ],
      "stateMutability": "view",
      "type": "function",
      "constant": true
    },
    {
      "inputs": [],
      "name": "owner",
      "outputs": [
        {
          "internalType": "address",
          "name": "",
          "type": "address"
        }
      ],
      "stateMutability": "view",
      "type": "function",
      "constant": true
    },
    {
      "inputs": [],
      "name": "phase",
      "outputs": [
        {
          "internalType": "enum Blackjack.GamePhase",
          "name": "",
          "type": "uint8"
        }
      ],
      "stateMutability": "view",
      "type": "function",
      "constant": true
    },
    {
      "inputs": [],
      "name": "totalBets",
      "outputs": [
        {
          "internalType": "uint256",
          "name": "",
          "type": "uint256"
        }
      ],
      "stateMutability": "view",
      "type": "function",
      "constant": true
    },
    {
      "inputs": [
        {
          "internalType": "uint256",
          "name": "bet",
          "type": "uint256"
        }
      ],
      "name": "joinGame",
      "outputs": [],
      "stateMutability": "nonpayable",
      "type": "function"
    },
    {
      "inputs": [],
      "name": "voteStart",
      "outputs": [],
      "stateMutability": "nonpayable",
      "type": "function"
    },
    {
      "inputs": [],
      "name": "getTotalUsers",
      "outputs": [
        {
          "internalType": "uint256",
          "name": "",
          "type": "uint256"
        }
      ],
      "stateMutability": "view",
      "type": "function",
      "constant": true
    },
    {
      "inputs": [],
      "name": "getTotalVoted",
      "outputs": [
        {
          "internalType": "uint8",
          "name": "",
          "type": "uint8"
        }
      ],
      "stateMutability": "view",
      "type": "function",
      "constant": true
    },
    {
      "inputs": [],
      "name": "getCards",
      "outputs": [
        {
          "internalType": "uint8[]",
          "name": "",
          "type": "uint8[]"
        }
      ],
      "stateMutability": "view",
      "type": "function",
      "constant": true
    },
    {
      "inputs": [],
      "name": "getPlayerTotal",
      "outputs": [
        {
          "internalType": "uint8",
          "name": "",
          "type": "uint8"
        }
      ],
      "stateMutability": "view",
      "type": "function",
      "constant": true
    },
    {
      "inputs": [],
      "name": "hasStood",
      "outputs": [
        {
          "internalType": "bool",
          "name": "",
          "type": "bool"
        }
      ],
      "stateMutability": "view",
      "type": "function",
      "constant": true
    },
    {
      "inputs": [],
      "name": "getDealerCard",
      "outputs": [
        {
          "internalType": "uint8",
          "name": "",
          "type": "uint8"
        }
      ],
      "stateMutability": "view",
      "type": "function",
      "constant": true
    },
    {
      "inputs": [],
      "name": "hit",
      "outputs": [],
      "stateMutability": "nonpayable",
      "type": "function"
    },
    {
      "inputs": [],
      "name": "stand",
      "outputs": [],
      "stateMutability": "nonpayable",
      "type": "function"
    }
  ],
  "bytecode": "0x60806040523480156200001157600080fd5b5060405162003f2738038062003f2783398181016040528101906200003791906200034f565b336000806101000a81548173ffffffffffffffffffffffffffffffffffffffff021916908373ffffffffffffffffffffffffffffffffffffffff1602179055508260038190555081600460006101000a81548160ff021916908360ff16021790555080600160006101000a81548173ffffffffffffffffffffffffffffffffffffffff021916908373ffffffffffffffffffffffffffffffffffffffff16021790555080600260006101000a81548173ffffffffffffffffffffffffffffffffffffffff021916908373ffffffffffffffffffffffffffffffffffffffff1602179055506000600860006101000a81548160ff02191690836001811115620001445762000143620003ab565b5b0217905550600760009080600181540180825580915050600190039060005260206000200160009091909190916101000a81548173ffffffffffffffffffffffffffffffffffffffff021916908373ffffffffffffffffffffffffffffffffffffffff1602179055506001600660008073ffffffffffffffffffffffffffffffffffffffff1673ffffffffffffffffffffffffffffffffffffffff16815260200190815260200160002060010160016101000a81548160ff0219169083151502179055506001600660008073ffffffffffffffffffffffffffffffffffffffff1673ffffffffffffffffffffffffffffffffffffffff16815260200190815260200160002060010160006101000a81548160ff021916908315150217905550505050620003da565b600080fd5b6000819050919050565b620002868162000271565b81146200029257600080fd5b50565b600081519050620002a6816200027b565b92915050565b600060ff82169050919050565b620002c481620002ac565b8114620002d057600080fd5b50565b600081519050620002e481620002b9565b92915050565b600073ffffffffffffffffffffffffffffffffffffffff82169050919050565b60006200031782620002ea565b9050919050565b62000329816200030a565b81146200033557600080fd5b50565b60008151905062000349816200031e565b92915050565b6000806000606084860312156200036b576200036a6200026c565b5b60006200037b8682870162000295565b93505060206200038e86828701620002d3565b9250506040620003a18682870162000338565b9150509250925092565b7f4e487b7100000000000000000000000000000000000000000000000000000000600052602160045260246000fd5b613b3d80620003ea6000396000f3fe608060405234801561001057600080fd5b506004361061010b5760003560e01c8063b0df9e53116100a2578063c2a5be8c11610071578063c2a5be8c14610250578063c38a8afd1461026e578063d270e7ab1461028c578063e031535b146102aa578063efaa55a0146102b45761010b565b8063b0df9e53146101ec578063b1c9fe6e1461020a578063befa1e2f14610228578063c2897b10146102465761010b565b806390f45379116100de57806390f453791461017457806392d282e2146101925780639998a8eb146101b05780639be572f6146101ce5761010b565b80632ae3594a146101105780634c2412a21461011a578063772cab23146101385780638da5cb5b14610156575b600080fd5b6101186102d0565b005b610122610467565b60405161012f9190612b59565b60405180910390f35b61014061047a565b60405161014d9190612b8f565b60405180910390f35b61015e6105ca565b60405161016b9190612beb565b60405180910390f35b61017c6105ee565b6040516101899190612b59565b60405180910390f35b61019a6106c8565b6040516101a79190612b59565b60405180910390f35b6101b86108c5565b6040516101c59190612b59565b60405180910390f35b6101d6610a15565b6040516101e39190612c1f565b60405180910390f35b6101f4610a2e565b6040516102019190612cf8565b60405180910390f35b610212610c6e565b60405161021f9190612d91565b60405180910390f35b610230610c81565b60405161023d9190612c1f565b60405180910390f35b61024e610c87565b005b610258610f13565b6040516102659190612beb565b60405180910390f35b610276610f39565b6040516102839190612c1f565b60405180910390f35b610294610f3f565b6040516102a19190612e0b565b60405180910390f35b6102b2610f65565b005b6102ce60048036038101906102c99190612e57565b611291565b005b6000600660003373ffffffffffffffffffffffffffffffffffffffff1673ffffffffffffffffffffffffffffffffffffffff1681526020019081526020016000206000015411610355576040517f08c379a000000000000000000000000000000000000000000000000000000000815260040161034c90612f07565b60405180910390fd5b60018081111561036857610367612d1a565b5b600860009054906101000a900460ff16600181111561038a57610389612d1a565b5b146103ca576040517f08c379a00000000000000000000000000000000000000000000000000000000081526004016103c190612f99565b60405180910390fd5b600660003373ffffffffffffffffffffffffffffffffffffffff1673ffffffffffffffffffffffffffffffffffffffff16815260200190815260200160002060030160019054906101000a900460ff161561045a576040517f08c379a00000000000000000000000000000000000000000000000000000000081526004016104519061302b565b60405180910390fd5b610465336001611739565b565b600460009054906101000a900460ff1681565b600080600660003373ffffffffffffffffffffffffffffffffffffffff1673ffffffffffffffffffffffffffffffffffffffff1681526020019081526020016000206000015411610500576040517f08c379a00000000000000000000000000000000000000000000000000000000081526004016104f790612f07565b60405180910390fd5b60018081111561051357610512612d1a565b5b600860009054906101000a900460ff16600181111561053557610534612d1a565b5b14610575576040517f08c379a000000000000000000000000000000000000000000000000000000000815260040161056c90612f99565b60405180910390fd5b600660003373ffffffffffffffffffffffffffffffffffffffff1673ffffffffffffffffffffffffffffffffffffffff16815260200190815260200160002060030160019054906101000a900460ff16905090565b60008054906101000a900473ffffffffffffffffffffffffffffffffffffffff1681565b6000806000600190505b6007805490508160ff1610156106c0576006600060078360ff16815481106106235761062261304b565b5b9060005260206000200160009054906101000a900473ffffffffffffffffffffffffffffffffffffffff1673ffffffffffffffffffffffffffffffffffffffff1673ffffffffffffffffffffffffffffffffffffffff16815260200190815260200160002060010160009054906101000a900460ff16156106ad5781806106a9906130a9565b9250505b80806106b8906130a9565b9150506105f8565b508091505090565b600080600660003373ffffffffffffffffffffffffffffffffffffffff1673ffffffffffffffffffffffffffffffffffffffff168152602001908152602001600020600001541161074e576040517f08c379a000000000000000000000000000000000000000000000000000000000815260040161074590612f07565b60405180910390fd5b60018081111561076157610760612d1a565b5b600860009054906101000a900460ff16600181111561078357610782612d1a565b5b146107c3576040517f08c379a00000000000000000000000000000000000000000000000000000000081526004016107ba90612f99565b60405180910390fd5b6000600660008073ffffffffffffffffffffffffffffffffffffffff1673ffffffffffffffffffffffffffffffffffffffff168152602001908152602001600020600201805490501161084b576040517f08c379a00000000000000000000000000000000000000000000000000000000081526004016108429061311e565b60405180910390fd5b600660008073ffffffffffffffffffffffffffffffffffffffff1673ffffffffffffffffffffffffffffffffffffffff1681526020019081526020016000206002016000815481106108a05761089f61304b565b5b90600052602060002090602091828204019190069054906101000a900460ff16905090565b600080600660003373ffffffffffffffffffffffffffffffffffffffff1673ffffffffffffffffffffffffffffffffffffffff168152602001908152602001600020600001541161094b576040517f08c379a000000000000000000000000000000000000000000000000000000000815260040161094290612f07565b60405180910390fd5b60018081111561095e5761095d612d1a565b5b600860009054906101000a900460ff1660018111156109805761097f612d1a565b5b146109c0576040517f08c379a00000000000000000000000000000000000000000000000000000000081526004016109b790612f99565b60405180910390fd5b600660003373ffffffffffffffffffffffffffffffffffffffff1673ffffffffffffffffffffffffffffffffffffffff16815260200190815260200160002060030160009054906101000a900460ff16905090565b60006001600780549050610a29919061313e565b905090565b60606000600660003373ffffffffffffffffffffffffffffffffffffffff1673ffffffffffffffffffffffffffffffffffffffff1681526020019081526020016000206000015411610ab5576040517f08c379a0000000000000000000000000000000000000000000000000000000008152600401610aac90612f07565b60405180910390fd5b600180811115610ac857610ac7612d1a565b5b600860009054906101000a900460ff166001811115610aea57610ae9612d1a565b5b14610b2a576040517f08c379a0000000000000000000000000000000000000000000000000000000008152600401610b2190612f99565b60405180910390fd5b6000600660003373ffffffffffffffffffffffffffffffffffffffff1673ffffffffffffffffffffffffffffffffffffffff1681526020019081526020016000206002018054905011610bb2576040517f08c379a0000000000000000000000000000000000000000000000000000000008152600401610ba9906131be565b60405180910390fd5b600660003373ffffffffffffffffffffffffffffffffffffffff1673ffffffffffffffffffffffffffffffffffffffff168152602001908152602001600020600201805480602002602001604051908101604052809291908181526020018280548015610c6457602002820191906000526020600020906000905b82829054906101000a900460ff1660ff1681526020019060010190602082600001049283019260010382029150808411610c2d5790505b5050505050905090565b600860009054906101000a900460ff1681565b60055481565b6000600660003373ffffffffffffffffffffffffffffffffffffffff1673ffffffffffffffffffffffffffffffffffffffff1681526020019081526020016000206000015411610d0c576040517f08c379a0000000000000000000000000000000000000000000000000000000008152600401610d0390612f07565b60405180910390fd5b600180811115610d1f57610d1e612d1a565b5b600860009054906101000a900460ff166001811115610d4157610d40612d1a565b5b14610d81576040517f08c379a0000000000000000000000000000000000000000000000000000000008152600401610d7890612f99565b60405180910390fd5b600660003373ffffffffffffffffffffffffffffffffffffffff1673ffffffffffffffffffffffffffffffffffffffff16815260200190815260200160002060030160019054906101000a900460ff1615610e11576040517f08c379a0000000000000000000000000000000000000000000000000000000008152600401610e089061302b565b60405180910390fd5b6001600660003373ffffffffffffffffffffffffffffffffffffffff1673ffffffffffffffffffffffffffffffffffffffff16815260200190815260200160002060030160016101000a81548160ff0219169083151502179055503373ffffffffffffffffffffffffffffffffffffffff167fcf9491c50952c181187e767c568b4a5ba558d5b1d35f47d6307fa1d7709c5110600660003373ffffffffffffffffffffffffffffffffffffffff1673ffffffffffffffffffffffffffffffffffffffff16815260200190815260200160002060030160009054906101000a900460ff16604051610f019190612b59565b60405180910390a2610f116118b2565b565b600160009054906101000a900473ffffffffffffffffffffffffffffffffffffffff1681565b60035481565b600260009054906101000a900473ffffffffffffffffffffffffffffffffffffffff1681565b6000600660003373ffffffffffffffffffffffffffffffffffffffff1673ffffffffffffffffffffffffffffffffffffffff1681526020019081526020016000206000015411610fea576040517f08c379a0000000000000000000000000000000000000000000000000000000008152600401610fe190612f07565b60405180910390fd5b60006001811115610ffe57610ffd612d1a565b5b600860009054906101000a900460ff1660018111156110205761101f612d1a565b5b14611060576040517f08c379a000000000000000000000000000000000000000000000000000000000815260040161105790613250565b60405180910390fd5b600660003373ffffffffffffffffffffffffffffffffffffffff1673ffffffffffffffffffffffffffffffffffffffff16815260200190815260200160002060010160009054906101000a900460ff16156110f0576040517f08c379a00000000000000000000000000000000000000000000000000000000081526004016110e7906132e2565b60405180910390fd5b6001600660003373ffffffffffffffffffffffffffffffffffffffff1673ffffffffffffffffffffffffffffffffffffffff16815260200190815260200160002060010160006101000a81548160ff021916908315150217905550600080600190505b6007805490508160ff16101561121b576006600060078360ff168154811061117e5761117d61304b565b5b9060005260206000200160009054906101000a900473ffffffffffffffffffffffffffffffffffffffff1673ffffffffffffffffffffffffffffffffffffffff1673ffffffffffffffffffffffffffffffffffffffff16815260200190815260200160002060010160009054906101000a900460ff1615611208578180611204906130a9565b9250505b8080611213906130a9565b915050611153565b503373ffffffffffffffffffffffffffffffffffffffff167fbdca30de69aea5f738a34de8ae974c96ffe743d647d208ef2b5a8e56074fca5c826040516112629190612b59565b60405180910390a2600160078054905061127c919061313e565b8160ff160361128e5761128d611fef565b5b50565b600060018111156112a5576112a4612d1a565b5b600860009054906101000a900460ff1660018111156112c7576112c6612d1a565b5b14611307576040517f08c379a00000000000000000000000000000000000000000000000000000000081526004016112fe90613250565b60405180910390fd5b600460009054906101000a900460ff1660ff16600160078054905061132c919061313e565b111561136d576040517f08c379a000000000000000000000000000000000000000000000000000000000815260040161136490613374565b60405180910390fd5b6003548110156113b2576040517f08c379a00000000000000000000000000000000000000000000000000000000081526004016113a990613406565b60405180910390fd5b6000600660003373ffffffffffffffffffffffffffffffffffffffff1673ffffffffffffffffffffffffffffffffffffffff1681526020019081526020016000206000015414611437576040517f08c379a000000000000000000000000000000000000000000000000000000000815260040161142e90613498565b60405180910390fd5b6000600260009054906101000a900473ffffffffffffffffffffffffffffffffffffffff1673ffffffffffffffffffffffffffffffffffffffff1663decebbce336040518263ffffffff1660e01b81526004016114949190612beb565b602060405180830381865afa1580156114b1573d6000803e3d6000fd5b505050506040513d601f19601f820116820180604052508101906114d591906134cd565b9050808210611519576040517f08c379a000000000000000000000000000000000000000000000000000000000815260040161151090613546565b60405180910390fd5b600260009054906101000a900473ffffffffffffffffffffffffffffffffffffffff1673ffffffffffffffffffffffffffffffffffffffff166373d61b776040518163ffffffff1660e01b8152600401602060405180830381865afa158015611586573d6000803e3d6000fd5b505050506040513d601f19601f820116820180604052508101906115aa91906134cd565b60026003846005546115bc9190613566565b6115c6919061359a565b6115d0919061360b565b1115611611576040517f08c379a000000000000000000000000000000000000000000000000000000000815260040161160890613688565b60405180910390fd5b81600660003373ffffffffffffffffffffffffffffffffffffffff1673ffffffffffffffffffffffffffffffffffffffff168152602001908152602001600020600001819055506007339080600181540180825580915050600190039060005260206000200160009091909190916101000a81548173ffffffffffffffffffffffffffffffffffffffff021916908373ffffffffffffffffffffffffffffffffffffffff16021790555081600560008282546116cd9190613566565b925050819055503373ffffffffffffffffffffffffffffffffffffffff167febe12099148ec1d7275ba796ef2cbc6b1cee92adde5e9f1bcc5cd6fce2764a6683600160078054905061171f919061313e565b60405161172d9291906136a8565b60405180910390a25050565b600060016034424486600660008973ffffffffffffffffffffffffffffffffffffffff1673ffffffffffffffffffffffffffffffffffffffff1681526020019081526020016000206002018054905060405160200161179b949392919061373a565b6040516020818303038152906040528051906020012060001c6117be9190613788565b6117c891906137b9565b9050600660008473ffffffffffffffffffffffffffffffffffffffff1673ffffffffffffffffffffffffffffffffffffffff1681526020019081526020016000206002018190806001815401808255809150506001900390600052602060002090602091828204019190069091909190916101000a81548160ff021916908360ff16021790555081156118a4578273ffffffffffffffffffffffffffffffffffffffff167f946dcf24b8c08c25fbbe3a10158be25f72f147d17a725912e2af62a98ad053538260405161189b9190612b59565b60405180910390a25b6118ad83612287565b505050565b6000600190506000600190505b60078054905081101561197a5760066000600783815481106118e4576118e361304b565b5b9060005260206000200160009054906101000a900473ffffffffffffffffffffffffffffffffffffffff1673ffffffffffffffffffffffffffffffffffffffff1673ffffffffffffffffffffffffffffffffffffffff16815260200190815260200160002060030160019054906101000a900460ff16611967576000915061197a565b8080611972906137ee565b9150506118bf565b508015611fec57600073ffffffffffffffffffffffffffffffffffffffff167f946dcf24b8c08c25fbbe3a10158be25f72f147d17a725912e2af62a98ad05353600660008073ffffffffffffffffffffffffffffffffffffffff1673ffffffffffffffffffffffffffffffffffffffff168152602001908152602001600020600201600181548110611a0f57611a0e61304b565b5b90600052602060002090602091828204019190069054906101000a900460ff16604051611a3c9190612b59565b60405180910390a25b6011600660008073ffffffffffffffffffffffffffffffffffffffff1673ffffffffffffffffffffffffffffffffffffffff16815260200190815260200160002060030160009054906101000a900460ff1660ff161015611ab157611aac60006001611739565b611a45565b6000600660008073ffffffffffffffffffffffffffffffffffffffff1673ffffffffffffffffffffffffffffffffffffffff16815260200190815260200160002060030160009054906101000a900460ff169050600060158260ff1611905060006001600780549050611b24919061313e565b67ffffffffffffffff811115611b3d57611b3c613836565b5b604051908082528060200260200182016040528015611b7657816020015b611b63612a1d565b815260200190600190039081611b5b5790505b5090506000600190505b600780549050811015611f4f57600060078281548110611ba357611ba261304b565b5b9060005260206000200160009054906101000a900473ffffffffffffffffffffffffffffffffffffffff1690506000600660008373ffffffffffffffffffffffffffffffffffffffff1673ffffffffffffffffffffffffffffffffffffffff16815260200190815260200160002060030160009054906101000a900460ff169050600060158260ff16119050600081158015611c4d57508680611c4c57508260ff168860ff1611155b5b9050600060158460ff16148015611ca957506002600660008773ffffffffffffffffffffffffffffffffffffffff1673ffffffffffffffffffffffffffffffffffffffff16815260200190815260200160002060020180549050145b90508015611d655760405180604001604052808673ffffffffffffffffffffffffffffffffffffffff16815260200160026003600660008a73ffffffffffffffffffffffffffffffffffffffff1673ffffffffffffffffffffffffffffffffffffffff16815260200190815260200160002060000154611d29919061359a565b611d33919061360b565b81525087600188611d44919061313e565b81518110611d5557611d5461304b565b5b6020026020010181905250611ea9565b8115611e075760405180604001604052808673ffffffffffffffffffffffffffffffffffffffff168152602001600660008873ffffffffffffffffffffffffffffffffffffffff1673ffffffffffffffffffffffffffffffffffffffff1681526020019081526020016000206000015481525087600188611de6919061313e565b81518110611df757611df661304b565b5b6020026020010181905250611ea8565b60405180604001604052808673ffffffffffffffffffffffffffffffffffffffff168152602001600660008873ffffffffffffffffffffffffffffffffffffffff1673ffffffffffffffffffffffffffffffffffffffff16815260200190815260200160002060000154611e7a9061386f565b81525087600188611e8b919061313e565b81518110611e9c57611e9b61304b565b5b60200260200101819052505b5b60078681548110611ebd57611ebc61304b565b5b9060005260206000200160009054906101000a900473ffffffffffffffffffffffffffffffffffffffff1673ffffffffffffffffffffffffffffffffffffffff167f27b3d3a8ae8f05414fbcd96abaebe645388209ffc816f9de9a0f4c92da5a3b428383604051611f2f9291906138b7565b60405180910390a250505050508080611f47906137ee565b915050611b80565b50600260009054906101000a900473ffffffffffffffffffffffffffffffffffffffff1673ffffffffffffffffffffffffffffffffffffffff166385a28ff68260006040518363ffffffff1660e01b8152600401611fae9291906139dc565b600060405180830381600087803b158015611fc857600080fd5b505af1158015611fdc573d6000803e3d6000fd5b50505050611fe861270e565b5050505b50565b6000600181111561200357612002612d1a565b5b600860009054906101000a900460ff16600181111561202557612024612d1a565b5b14612065576040517f08c379a000000000000000000000000000000000000000000000000000000000815260040161205c90613250565b60405180910390fd5b6001600780549050116120ad576040517f08c379a00000000000000000000000000000000000000000000000000000000081526004016120a490613a58565b60405180910390fd5b60005b60028110156122135760005b6007805490508160ff1610156121ff576001821480156121495750600073ffffffffffffffffffffffffffffffffffffffff1660078260ff16815481106121065761210561304b565b5b9060005260206000200160009054906101000a900473ffffffffffffffffffffffffffffffffffffffff1673ffffffffffffffffffffffffffffffffffffffff16145b1561219f5761219a60078260ff16815481106121685761216761304b565b5b9060005260206000200160009054906101000a900473ffffffffffffffffffffffffffffffffffffffff166000611739565b6121ec565b6121eb60078260ff16815481106121b9576121b861304b565b5b9060005260206000200160009054906101000a900473ffffffffffffffffffffffffffffffffffffffff166001611739565b5b80806121f7906130a9565b9150506120bc565b50808061220b906137ee565b9150506120b0565b506001600860006101000a81548160ff0219169083600181111561223a57612239612d1a565b5b02179055507feab6ddd16ffd361ec79acb976f5fce5a7bc2000d6b24f6453ca0dfd30a755994600860009054906101000a900460ff1660405161227d9190612d91565b60405180910390a1565b60008060005b600660008573ffffffffffffffffffffffffffffffffffffffff1673ffffffffffffffffffffffffffffffffffffffff168152602001908152602001600020600201805490508110156123de576000600d600660008773ffffffffffffffffffffffffffffffffffffffff1673ffffffffffffffffffffffffffffffffffffffff16815260200190815260200160002060020183815481106123325761233161304b565b5b90600052602060002090602091828204019190069054906101000a900460ff1661235c9190613a78565b905060018160ff160361238b578280612374906130a9565b935050600b8461238491906137b9565b93506123ca565b600a8160ff161015806123a1575060008160ff16145b156123ba57600a846123b391906137b9565b93506123c9565b80846123c691906137b9565b93505b5b5080806123d6906137ee565b91505061228d565b505b60158260ff161180156123f6575060008160ff16115b1561241d57600a826124089190613aa9565b9150808061241590613ade565b9150506123e0565b81600660008573ffffffffffffffffffffffffffffffffffffffff1673ffffffffffffffffffffffffffffffffffffffff16815260200190815260200160002060030160006101000a81548160ff021916908360ff16021790555060158260ff161480156124b85750600073ffffffffffffffffffffffffffffffffffffffff168373ffffffffffffffffffffffffffffffffffffffff1614155b156125c2576001600660008573ffffffffffffffffffffffffffffffffffffffff1673ffffffffffffffffffffffffffffffffffffffff16815260200190815260200160002060030160016101000a81548160ff0219169083151502179055508273ffffffffffffffffffffffffffffffffffffffff167fcf9491c50952c181187e767c568b4a5ba558d5b1d35f47d6307fa1d7709c5110600660008673ffffffffffffffffffffffffffffffffffffffff1673ffffffffffffffffffffffffffffffffffffffff16815260200190815260200160002060030160009054906101000a900460ff166040516125ad9190612b59565b60405180910390a26125bd6118b2565b612709565b60158260ff161180156126025750600073ffffffffffffffffffffffffffffffffffffffff168373ffffffffffffffffffffffffffffffffffffffff1614155b15612708576001600660008573ffffffffffffffffffffffffffffffffffffffff1673ffffffffffffffffffffffffffffffffffffffff16815260200190815260200160002060030160016101000a81548160ff0219169083151502179055508273ffffffffffffffffffffffffffffffffffffffff167fcf9491c50952c181187e767c568b4a5ba558d5b1d35f47d6307fa1d7709c5110600660008673ffffffffffffffffffffffffffffffffffffffff1673ffffffffffffffffffffffffffffffffffffffff16815260200190815260200160002060030160009054906101000a900460ff166040516126f79190612b59565b60405180910390a26127076118b2565b5b5b505050565b60005b6007805490508110156128195760066000600783815481106127365761273561304b565b5b9060005260206000200160009054906101000a900473ffffffffffffffffffffffffffffffffffffffff1673ffffffffffffffffffffffffffffffffffffffff1673ffffffffffffffffffffffffffffffffffffffff1681526020019081526020016000206000808201600090556001820160006101000a81549060ff02191690556001820160016101000a81549060ff02191690556002820160006127dc9190612a4d565b6003820160006101000a81549060ff02191690556003820160016101000a81549060ff021916905550508080612811906137ee565b915050612711565b50600760006128289190612a75565b600067ffffffffffffffff81111561284357612842613836565b5b6040519080825280602002602001820160405280156128715781602001602082028036833780820191505090505b5060079080519060200190612887929190612a96565b50600760009080600181540180825580915050600190039060005260206000200160009091909190916101000a81548173ffffffffffffffffffffffffffffffffffffffff021916908373ffffffffffffffffffffffffffffffffffffffff1602179055506001600660008073ffffffffffffffffffffffffffffffffffffffff1673ffffffffffffffffffffffffffffffffffffffff16815260200190815260200160002060010160016101000a81548160ff0219169083151502179055506001600660008073ffffffffffffffffffffffffffffffffffffffff1673ffffffffffffffffffffffffffffffffffffffff16815260200190815260200160002060010160006101000a81548160ff0219169083151502179055506000600860006101000a81548160ff021916908360018111156129c8576129c7612d1a565b5b021790555060006005819055507feab6ddd16ffd361ec79acb976f5fce5a7bc2000d6b24f6453ca0dfd30a755994600860009054906101000a900460ff16604051612a139190612d91565b60405180910390a1565b6040518060400160405280600073ffffffffffffffffffffffffffffffffffffffff168152602001600081525090565b50805460008255601f016020900490600052602060002090810190612a729190612b20565b50565b5080546000825590600052602060002090810190612a939190612b20565b50565b828054828255906000526020600020908101928215612b0f579160200282015b82811115612b0e5782518260006101000a81548173ffffffffffffffffffffffffffffffffffffffff021916908373ffffffffffffffffffffffffffffffffffffffff16021790555091602001919060010190612ab6565b5b509050612b1c9190612b20565b5090565b5b80821115612b39576000816000905550600101612b21565b5090565b600060ff82169050919050565b612b5381612b3d565b82525050565b6000602082019050612b6e6000830184612b4a565b92915050565b60008115159050919050565b612b8981612b74565b82525050565b6000602082019050612ba46000830184612b80565b92915050565b600073ffffffffffffffffffffffffffffffffffffffff82169050919050565b6000612bd582612baa565b9050919050565b612be581612bca565b82525050565b6000602082019050612c006000830184612bdc565b92915050565b6000819050919050565b612c1981612c06565b82525050565b6000602082019050612c346000830184612c10565b92915050565b600081519050919050565b600082825260208201905092915050565b6000819050602082019050919050565b612c6f81612b3d565b82525050565b6000612c818383612c66565b60208301905092915050565b6000602082019050919050565b6000612ca582612c3a565b612caf8185612c45565b9350612cba83612c56565b8060005b83811015612ceb578151612cd28882612c75565b9750612cdd83612c8d565b925050600181019050612cbe565b5085935050505092915050565b60006020820190508181036000830152612d128184612c9a565b905092915050565b7f4e487b7100000000000000000000000000000000000000000000000000000000600052602160045260246000fd5b60028110612d5a57612d59612d1a565b5b50565b6000819050612d6b82612d49565b919050565b6000612d7b82612d5d565b9050919050565b612d8b81612d70565b82525050565b6000602082019050612da66000830184612d82565b92915050565b6000819050919050565b6000612dd1612dcc612dc784612baa565b612dac565b612baa565b9050919050565b6000612de382612db6565b9050919050565b6000612df582612dd8565b9050919050565b612e0581612dea565b82525050565b6000602082019050612e206000830184612dfc565b92915050565b600080fd5b612e3481612c06565b8114612e3f57600080fd5b50565b600081359050612e5181612e2b565b92915050565b600060208284031215612e6d57612e6c612e26565b5b6000612e7b84828501612e42565b91505092915050565b600082825260208201905092915050565b7f596f7520617265206e6f742061207061727469636970616e7420696e2074686560008201527f2063757272656e742067616d6500000000000000000000000000000000000000602082015250565b6000612ef1602d83612e84565b9150612efc82612e95565b604082019050919050565b60006020820190508181036000830152612f2081612ee4565b9050919050565b7f5468652067616d65206973206e6f7420696e2074686520706c6179696e67207060008201527f6861736500000000000000000000000000000000000000000000000000000000602082015250565b6000612f83602483612e84565b9150612f8e82612f27565b604082019050919050565b60006020820190508181036000830152612fb281612f76565b9050919050565b7f596f75206861766520616c72656164792073746f6f64206f722062757374656460008201527f2e00000000000000000000000000000000000000000000000000000000000000602082015250565b6000613015602183612e84565b915061302082612fb9565b604082019050919050565b6000602082019050818103600083015261304481613008565b9050919050565b7f4e487b7100000000000000000000000000000000000000000000000000000000600052603260045260246000fd5b7f4e487b7100000000000000000000000000000000000000000000000000000000600052601160045260246000fd5b60006130b482612b3d565b915060ff82036130c7576130c661307a565b5b600182019050919050565b7f4465616c6572206361726473206e6f7420696e697469616c697a656400000000600082015250565b6000613108601c83612e84565b9150613113826130d2565b602082019050919050565b60006020820190508181036000830152613137816130fb565b9050919050565b600061314982612c06565b915061315483612c06565b925082820390508181111561316c5761316b61307a565b5b92915050565b7f506c61796572206361726473206e6f7420696e697469616c697a656400000000600082015250565b60006131a8601c83612e84565b91506131b382613172565b602082019050919050565b600060208201905081810360008301526131d78161319b565b9050919050565b7f5468652067616d65206973206e6f7420696e207468652062657474696e67207060008201527f6861736500000000000000000000000000000000000000000000000000000000602082015250565b600061323a602483612e84565b9150613245826131de565b604082019050919050565b600060208201905081810360008301526132698161322d565b9050919050565b7f557365722068617320616c726561647920766f74656420666f7220746865207360008201527f74617274206f66207468652067616d6500000000000000000000000000000000602082015250565b60006132cc603083612e84565b91506132d782613270565b604082019050919050565b600060208201905081810360008301526132fb816132bf565b9050919050565b7f546865206d6178696d756d206e756d626572206f6620706c617965727320776160008201527f7320726561636865640000000000000000000000000000000000000000000000602082015250565b600061335e602983612e84565b915061336982613302565b604082019050919050565b6000602082019050818103600083015261338d81613351565b9050919050565b7f596f75206e65656420746f20626574206d6f7265207468616e20746865206d6960008201527f6e696d756d206265740000000000000000000000000000000000000000000000602082015250565b60006133f0602983612e84565b91506133fb82613394565b604082019050919050565b6000602082019050818103600083015261341f816133e3565b9050919050565b7f596f75206861766520616c726561647920656e7465726564207468652067616d60008201527f6500000000000000000000000000000000000000000000000000000000000000602082015250565b6000613482602183612e84565b915061348d82613426565b604082019050919050565b600060208201905081810360008301526134b181613475565b9050919050565b6000815190506134c781612e2b565b92915050565b6000602082840312156134e3576134e2612e26565b5b60006134f1848285016134b8565b91505092915050565b7f596f7520646f6e2774206861766520656e6f7567682066756e64730000000000600082015250565b6000613530601b83612e84565b915061353b826134fa565b602082019050919050565b6000602082019050818103600083015261355f81613523565b9050919050565b600061357182612c06565b915061357c83612c06565b92508282019050808211156135945761359361307a565b5b92915050565b60006135a582612c06565b91506135b083612c06565b92508282026135be81612c06565b915082820484148315176135d5576135d461307a565b5b5092915050565b7f4e487b7100000000000000000000000000000000000000000000000000000000600052601260045260246000fd5b600061361682612c06565b915061362183612c06565b925082613631576136306135dc565b5b828204905092915050565b7f54686520636173696e6f2063616e2774206166666f726420796f757220626574600082015250565b6000613672602083612e84565b915061367d8261363c565b602082019050919050565b600060208201905081810360008301526136a181613665565b9050919050565b60006040820190506136bd6000830185612c10565b6136ca6020830184612b4a565b9392505050565b6000819050919050565b6136ec6136e782612c06565b6136d1565b82525050565b60008160601b9050919050565b600061370a826136f2565b9050919050565b600061371c826136ff565b9050919050565b61373461372f82612bca565b613711565b82525050565b600061374682876136db565b60208201915061375682866136db565b6020820191506137668285613723565b60148201915061377682846136db565b60208201915081905095945050505050565b600061379382612c06565b915061379e83612c06565b9250826137ae576137ad6135dc565b5b828206905092915050565b60006137c482612b3d565b91506137cf83612b3d565b9250828201905060ff8111156137e8576137e761307a565b5b92915050565b60006137f982612c06565b91507fffffffffffffffffffffffffffffffffffffffffffffffffffffffffffffffff820361382b5761382a61307a565b5b600182019050919050565b7f4e487b7100000000000000000000000000000000000000000000000000000000600052604160045260246000fd5b6000819050919050565b600061387a82613865565b91507f800000000000000000000000000000000000000000000000000000000000000082036138ac576138ab61307a565b5b816000039050919050565b60006040820190506138cc6000830185612b80565b6138d96020830184612b80565b9392505050565b600081519050919050565b600082825260208201905092915050565b6000819050602082019050919050565b61391581612bca565b82525050565b61392481613865565b82525050565b604082016000820151613940600085018261390c565b506020820151613953602085018261391b565b50505050565b6000613965838361392a565b60408301905092915050565b6000602082019050919050565b6000613989826138e0565b61399381856138eb565b935061399e836138fc565b8060005b838110156139cf5781516139b68882613959565b97506139c183613971565b9250506001810190506139a2565b5085935050505092915050565b600060408201905081810360008301526139f6818561397e565b9050613a056020830184612b80565b9392505050565b7f4e6f20706c6179657273206861766520706c6163656420626574730000000000600082015250565b6000613a42601b83612e84565b9150613a4d82613a0c565b602082019050919050565b60006020820190508181036000830152613a7181613a35565b9050919050565b6000613a8382612b3d565b9150613a8e83612b3d565b925082613a9e57613a9d6135dc565b5b828206905092915050565b6000613ab482612b3d565b9150613abf83612b3d565b9250828203905060ff811115613ad857613ad761307a565b5b92915050565b6000613ae982612b3d565b915060008203613afc57613afb61307a565b5b60018203905091905056fea26469706673582212202deb664b624dd6a764d8c911061ba99a41a8486679077cfe05c64b3608eff22e64736f6c63430008130033",
  "immutableReferences": {},
  "source": "// SPDX-License-Identifier: MIT\r\npragma solidity 0.8.19;\r\n\r\nimport \"./Structs.sol\";\r\n\r\n// Main contract interface\r\ninterface Main {\r\n\r\n    // The neccesary functions from the Main contract\r\n    function getFunds(address user) external view returns (uint256);\r\n    function getCasinoFunds() external view returns (uint256);\r\n    function modifyFunds(Structs.Payment[] memory payments, bool zero_sum) external;\r\n}\r\n\r\ncontract Blackjack {\r\n    address public owner;\r\n    address public mainContractAddr;\r\n    Main public mainContract;\r\n    uint256 public minimumBet;\r\n    uint8 public maxPlayers;\r\n    uint256 public totalBets; // The sum of bets across all players\r\n\r\n    // Possible game phases\r\n    enum GamePhase { Betting, Playing }\r\n    \r\n    // Player info. structure\r\n    struct Player {\r\n        // Basic player data\r\n        uint256 bet;\r\n        bool hasVoted;\r\n        bool isDealer;\r\n\r\n        // Blackjack specific user data\r\n        uint8[] playerCards; \r\n        uint8 playerTotal;\r\n        bool hasStood;\r\n    }\r\n\r\n    // Mapping with players and list of them\r\n    mapping(address => Player) players;\r\n    address[] playerAddresses;\r\n\r\n    // Phase of the game\r\n    GamePhase public phase;\r\n    \r\n    // Events for clients to keep track of the game\r\n\r\n    // A player joined this game\r\n    event PlayerJoined(address indexed player, uint256 amount, uint8 totalPlayers);\r\n    \r\n    // A player joined the game\r\n    event PlayerVoted(address indexed player, uint8 totalVoted);\r\n\r\n    // The game phase changed\r\n    event GamePhasedChanged(GamePhase phase);\r\n\r\n    // A card was dealt to a player\r\n    event CardDealt(address indexed player, uint8 card);\r\n\r\n    // A player has stood\r\n    event PlayerStood(address indexed player, uint8 total);\r\n\r\n    // What was the result of the player\r\n    event GameResult(address indexed player, bool hasWon, bool hasBlackjack);\r\n\r\n    // Modifiers for access to functions\r\n    modifier onlyOwner() {\r\n        require(msg.sender == owner, \"Only the owner can call this function\");\r\n        _;\r\n    }\r\n\r\n    modifier inBettingPhase() {\r\n        require(phase == GamePhase.Betting, \"The game is not in the betting phase\");\r\n        _;\r\n    }\r\n\r\n    modifier inPlayingPhase() {\r\n        require(phase == GamePhase.Playing, \"The game is not in the playing phase\");\r\n        _;\r\n    }\r\n\r\n    modifier onlyPlayers() {\r\n        require(players[msg.sender].bet > 0, \"You are not a participant in the current game\");\r\n        _;\r\n    }\r\n\r\n\r\n    constructor(uint256 _minimumBet, uint8 _maxPlayers, address _main_contract_addr) {\r\n        owner = msg.sender;\r\n        minimumBet = _minimumBet;\r\n        maxPlayers = _maxPlayers;\r\n        mainContractAddr = _main_contract_addr;\r\n        mainContract = Main(_main_contract_addr);\r\n        phase = GamePhase.Betting;\r\n\r\n        // Insert the dealer player\r\n        playerAddresses.push(address(0));\r\n        players[address(0)].isDealer = true;\r\n        players[address(0)].hasVoted = true;\r\n    }\r\n\r\n    function joinGame(uint256 bet) external inBettingPhase {\r\n        require(playerAddresses.length - 1 <= maxPlayers, \"The maximum number of players was reached\");\r\n        \r\n        require(bet >= minimumBet, \"You need to bet more than the minimum bet\");\r\n\r\n        require(players[msg.sender].bet == 0, \"You have already entered the game\");\r\n\r\n        // Check in main contract if funds are enough\r\n        uint256 userFunds = mainContract.getFunds(msg.sender);\r\n        require(bet < userFunds, \"You don't have enough funds\");\r\n        \r\n        require(uint256((totalBets + bet) * 3  / 2) <= mainContract.getCasinoFunds(), \"The casino can't afford your bet\");\r\n\r\n        // Register player in the game\r\n        players[msg.sender].bet = bet;\r\n        playerAddresses.push(msg.sender);\r\n        totalBets += bet;\r\n\r\n        // Emit bet placed event\r\n        emit PlayerJoined(msg.sender, bet, uint8(playerAddresses.length - 1));\r\n    }\r\n\r\n    function voteStart() external onlyPlayers inBettingPhase {\r\n        // Check if player is registered for the game and has not voted\r\n        require(!players[msg.sender].hasVoted, \"User has already voted for the start of the game\");\r\n        players[msg.sender].hasVoted = true;\r\n        \r\n        // Check if all played have voted, then start the game\r\n        uint8 votedCount;\r\n        // Skip the dealer by starting at 1\r\n        for (uint8 i = 1; i < playerAddresses.length; i++) {\r\n            if(players[playerAddresses[i]].hasVoted)\r\n                votedCount++;\r\n        }\r\n\r\n\r\n        // Emit player voted event\r\n        emit PlayerVoted(msg.sender, votedCount);\r\n        \r\n        // Start the game if all players have voted\r\n        if(votedCount == playerAddresses.length - 1)\r\n            startGame();\r\n    }\r\n    \r\n    function startGame() internal inBettingPhase {\r\n        // Require there is at least one non-dealer user in the game\r\n        require(playerAddresses.length > 1, \"No players have placed bets\");\r\n\r\n        // Deal two cards to each player and the dealer (the contract is the dealer)\r\n        for (uint256 i = 0; i < 2; i++) {\r\n            for (uint8 j = 0; j < playerAddresses.length; j++) {\r\n                if(i == 1 && playerAddresses[j] == address(0)) // dont emit second dealer card\r\n                    dealCard(playerAddresses[j], false);\r\n                else\r\n                    dealCard(playerAddresses[j], true);\r\n            }\r\n        }\r\n        phase = GamePhase.Playing;\r\n        // Emit game phase change vent\r\n        emit GamePhasedChanged(phase);\r\n    }\r\n\r\n    function dealCard(address _player, bool emitCard) internal {\r\n        // Player receives a card\r\n        uint8 card = uint8(uint256(keccak256(abi.encodePacked(block.timestamp, block.prevrandao, _player, players[_player].playerCards.length))) % 52) + 1;\r\n        players[_player].playerCards.push(card);\r\n        \r\n        if (emitCard)\r\n            emit CardDealt(_player, card);\r\n\r\n        calculatePlayerTotal(_player);\r\n    }\r\n\r\n    function getTotalUsers() external view returns (uint256) {\r\n        return playerAddresses.length - 1;\r\n    }\r\n\r\n    function getTotalVoted() external view returns (uint8) {\r\n        uint8 votedCount;\r\n        for (uint8 i = 1; i < playerAddresses.length; i++) {\r\n            if(players[playerAddresses[i]].hasVoted)\r\n                votedCount++;\r\n        }\r\n        return votedCount;\r\n    }\r\n\r\n    function getCards() external view onlyPlayers inPlayingPhase returns (uint8[] memory) {\r\n        require(players[msg.sender].playerCards.length > 0, \"Player cards not initialized\");\r\n\r\n        // Gets the current player cards\r\n        return players[msg.sender].playerCards;\r\n    }\r\n\r\n    function getPlayerTotal() external view onlyPlayers inPlayingPhase returns (uint8) {\r\n        return players[msg.sender].playerTotal;\r\n    }\r\n    \r\n    function hasStood() external view onlyPlayers inPlayingPhase returns (bool) {\r\n        return players[msg.sender].hasStood;\r\n    }\r\n\r\n    function getDealerCard() external view onlyPlayers inPlayingPhase returns (uint8) {\r\n        require(players[address(0)].playerCards.length > 0, \"Dealer cards not initialized\");\r\n\r\n        // Gets the initial dealer card\r\n        return players[address(0)].playerCards[0];\r\n    }\r\n\r\n\r\n\r\n    function calculatePlayerTotal(address _player) internal {\r\n        uint8 total = 0;\r\n        uint8 numAces = 0;\r\n\r\n        // Count nominal value\r\n        for (uint256 i = 0; i < players[_player].playerCards.length; i++) {\r\n            uint8 cardValue = (players[_player].playerCards[i] % 13);\r\n\r\n            if (cardValue == 1) {\r\n                // Ace\r\n                numAces++;\r\n                total += 11;\r\n            } else if (cardValue >= 10 || cardValue == 0) { // a king is zero in modulo 13\r\n                // Face cards and 10\r\n                total += 10;\r\n            } else {\r\n                total += cardValue;\r\n            }\r\n        }\r\n\r\n        // Adjust for aces\r\n        while (total > 21 && numAces > 0) {\r\n            total -= 10;\r\n            numAces--;\r\n        }\r\n\r\n        players[_player].playerTotal = total;\r\n\r\n        // Check if player has stood or busted\r\n        if (total == 21 && _player != address(0)) {\r\n            // Player got 21, stood automatically\r\n            players[_player].hasStood = true;\r\n            emit PlayerStood(_player, players[_player].playerTotal);\r\n            endPlayerTurn();\r\n        } else if (total > 21 && _player != address(0)) {\r\n            // Player busted\r\n            players[_player].hasStood = true;\r\n            emit PlayerStood(_player, players[_player].playerTotal);\r\n            endPlayerTurn();\r\n        }\r\n    }\r\n\r\n    // User turn actions\r\n    function hit() external onlyPlayers inPlayingPhase {\r\n        // Ensure the player has not stood or busted\r\n        require(!players[msg.sender].hasStood, \"You have already stood or busted.\");\r\n\r\n        // Deal a new card to the player\r\n        dealCard(msg.sender, true);\r\n    }\r\n\r\n    function stand() external onlyPlayers inPlayingPhase {\r\n        // Ensure the player has not stood or busted\r\n        require(!players[msg.sender].hasStood, \"You have already stood or busted.\");\r\n\r\n        // Stand and end turn\r\n        players[msg.sender].hasStood = true;\r\n        emit PlayerStood(msg.sender, players[msg.sender].playerTotal);\r\n        endPlayerTurn();\r\n    }\r\n    \r\n    function endPlayerTurn() internal {\r\n        // Check if all players have stood or busted\r\n        bool allPlayersDone = true;\r\n        for (uint256 i = 1; i < playerAddresses.length; i++) {\r\n            if (!players[playerAddresses[i]].hasStood) {\r\n                allPlayersDone = false;\r\n                break;\r\n            }\r\n        }\r\n        \r\n        if (allPlayersDone) {\r\n            // Dealer's turn\r\n            // Reveal second dealer card\r\n            emit CardDealt(address(0), players[address(0)].playerCards[1]);\r\n            while (players[address(0)].playerTotal < 17) {\r\n                // Deal with emiting reveal of all other cards\r\n                dealCard(address(0), true);\r\n            }\r\n\r\n            // Determine the winner\r\n            uint8 dealerTotal = players[address(0)].playerTotal;\r\n            bool dealerBusted = dealerTotal > 21;\r\n            // Initialize winnings array\r\n            Structs.Payment[] memory winnings = new Structs.Payment[](playerAddresses.length - 1);\r\n\r\n            // Start at 1 to skip dealer\r\n            for (uint256 i = 1; i < playerAddresses.length; i++) {\r\n                address playerAddr = playerAddresses[i];\r\n                uint8 playerTotal = players[playerAddr].playerTotal;\r\n                bool busted = playerTotal > 21;\r\n\r\n                // si dealerBusted ganas si ests stood y no busted\r\n                // si no dealerBusted ganas si ests stood, no busted y tienes ms puntos que el dealer\r\n                bool playerWon = !busted && (dealerBusted || dealerTotal <= playerTotal);\r\n                bool playerBlackjack = playerTotal == 21 && players[playerAddr].playerCards.length == 2;\r\n    \r\n    \r\n                // Insert into winnings array\r\n                if (playerBlackjack) {\r\n                   winnings[i - 1] = Structs.Payment({\r\n                        addr: playerAddr,\r\n                        amount: int256(players[playerAddr].bet * 3 / 2)\r\n                    });\r\n                } else if (playerWon) {\r\n                    winnings[i - 1] = Structs.Payment({\r\n                        addr: playerAddr,\r\n                        amount: int256(players[playerAddr].bet)\r\n                    });\r\n                } else {\r\n                    winnings[i - 1] = Structs.Payment({\r\n                        addr: playerAddr,\r\n                        amount:  -int256(players[playerAddr].bet)\r\n                    });\r\n                }\r\n                emit GameResult(playerAddresses[i], playerWon, playerBlackjack);\r\n            }\r\n            // Pay out users\r\n            mainContract.modifyFunds(winnings, false);\r\n\r\n            // Reset game\r\n            resetGame();\r\n        }\r\n    }\r\n\r\n    function resetGame() internal {\r\n        // Delete players from previous game\r\n        for (uint256 i = 0; i < playerAddresses.length; i++) {\r\n            delete players[playerAddresses[i]];\r\n        }\r\n        // Clear the players array\r\n        delete playerAddresses;\r\n        playerAddresses = new address[](0);\r\n\r\n        // Insert the dealer player\r\n        playerAddresses.push(address(0));\r\n        players[address(0)].isDealer = true;\r\n        players[address(0)].hasVoted = true;\r\n        \r\n        // Set the phase to betting\r\n        phase = GamePhase.Betting;\r\n        totalBets = 0;\r\n        // Emit game phase change vent\r\n        emit GamePhasedChanged(phase);\r\n    }\r\n}",
  "sourcePath": "C:\\Users\\Pablo\\Desktop\\DistributedCasino\\contracts\\Blackjack.sol",
  "compiler": {
    "name": "solc",
    "version": "0.8.19+commit.7dd6d404.Emscripten.clang"
  },
  "schemaVersion": "3.4.16",
  "updatedAt": "2023-12-08T12:30:10.239Z",
  "networkType": "ethereum",
  "devdoc": {
    "kind": "dev",
    "methods": {},
    "version": 1
  },
  "userdoc": {
    "kind": "user",
    "methods": {},
    "version": 1
  }
}