{
  "contractName": "Blackjack",
  "abi": [
    {
      "inputs": [
        {
          "internalType": "uint256",
          "name": "_minimumBet",
          "type": "uint256"
        },
        {
          "internalType": "uint8",
          "name": "_maxPlayers",
          "type": "uint8"
        },
        {
          "internalType": "address",
          "name": "_main_contract_addr",
          "type": "address"
        }
      ],
      "stateMutability": "nonpayable",
      "type": "constructor"
    },
    {
      "anonymous": false,
      "inputs": [
        {
          "indexed": true,
          "internalType": "address",
          "name": "player",
          "type": "address"
        },
        {
          "indexed": false,
          "internalType": "uint8",
          "name": "card",
          "type": "uint8"
        }
      ],
      "name": "CardDealt",
      "type": "event"
    },
    {
      "anonymous": false,
      "inputs": [
        {
          "indexed": false,
          "internalType": "enum Blackjack.GamePhase",
          "name": "phase",
          "type": "uint8"
        }
      ],
      "name": "GamePhaseChanged",
      "type": "event"
    },
    {
      "anonymous": false,
      "inputs": [
        {
          "indexed": true,
          "internalType": "address",
          "name": "player",
          "type": "address"
        },
        {
          "indexed": false,
          "internalType": "bool",
          "name": "hasWon",
          "type": "bool"
        },
        {
          "indexed": false,
          "internalType": "bool",
          "name": "hasBlackjack",
          "type": "bool"
        }
      ],
      "name": "GameResult",
      "type": "event"
    },
    {
      "anonymous": false,
      "inputs": [
        {
          "indexed": true,
          "internalType": "address",
          "name": "player",
          "type": "address"
        },
        {
          "indexed": false,
          "internalType": "uint256",
          "name": "amount",
          "type": "uint256"
        },
        {
          "indexed": false,
          "internalType": "uint8",
          "name": "totalPlayers",
          "type": "uint8"
        }
      ],
      "name": "PlayerJoined",
      "type": "event"
    },
    {
      "anonymous": false,
      "inputs": [
        {
          "indexed": true,
          "internalType": "address",
          "name": "player",
          "type": "address"
        },
        {
          "indexed": false,
          "internalType": "uint8",
          "name": "total",
          "type": "uint8"
        }
      ],
      "name": "PlayerStood",
      "type": "event"
    },
    {
      "anonymous": false,
      "inputs": [
        {
          "indexed": true,
          "internalType": "address",
          "name": "player",
          "type": "address"
        },
        {
          "indexed": false,
          "internalType": "uint8",
          "name": "totalVoted",
          "type": "uint8"
        }
      ],
      "name": "PlayerVoted",
      "type": "event"
    },
    {
      "inputs": [],
      "name": "mainContractAddr",
      "outputs": [
        {
          "internalType": "address",
          "name": "",
          "type": "address"
        }
      ],
      "stateMutability": "view",
      "type": "function",
      "constant": true
    },
    {
      "inputs": [],
      "name": "maxPlayers",
      "outputs": [
        {
          "internalType": "uint8",
          "name": "",
          "type": "uint8"
        }
      ],
      "stateMutability": "view",
      "type": "function",
      "constant": true
    },
    {
      "inputs": [],
      "name": "minimumBet",
      "outputs": [
        {
          "internalType": "uint256",
          "name": "",
          "type": "uint256"
        }
      ],
      "stateMutability": "view",
      "type": "function",
      "constant": true
    },
    {
      "inputs": [],
      "name": "owner",
      "outputs": [
        {
          "internalType": "address",
          "name": "",
          "type": "address"
        }
      ],
      "stateMutability": "view",
      "type": "function",
      "constant": true
    },
    {
      "inputs": [],
      "name": "phase",
      "outputs": [
        {
          "internalType": "enum Blackjack.GamePhase",
          "name": "",
          "type": "uint8"
        }
      ],
      "stateMutability": "view",
      "type": "function",
      "constant": true
    },
    {
      "inputs": [],
      "name": "totalBets",
      "outputs": [
        {
          "internalType": "uint256",
          "name": "",
          "type": "uint256"
        }
      ],
      "stateMutability": "view",
      "type": "function",
      "constant": true
    },
    {
      "inputs": [],
      "name": "getPlayers",
      "outputs": [
        {
          "components": [
            {
              "internalType": "address",
              "name": "addr",
              "type": "address"
            },
            {
              "internalType": "uint256",
              "name": "bet",
              "type": "uint256"
            },
            {
              "internalType": "bool",
              "name": "hasVoted",
              "type": "bool"
            },
            {
              "internalType": "bool",
              "name": "isDealer",
              "type": "bool"
            },
            {
              "internalType": "uint8[]",
              "name": "playerCards",
              "type": "uint8[]"
            },
            {
              "internalType": "uint8",
              "name": "playerTotal",
              "type": "uint8"
            },
            {
              "internalType": "bool",
              "name": "hasStood",
              "type": "bool"
            }
          ],
          "internalType": "struct Blackjack.Player[]",
          "name": "",
          "type": "tuple[]"
        }
      ],
      "stateMutability": "view",
      "type": "function",
      "constant": true
    },
    {
      "inputs": [
        {
          "internalType": "uint256",
          "name": "bet",
          "type": "uint256"
        }
      ],
      "name": "joinGame",
      "outputs": [],
      "stateMutability": "nonpayable",
      "type": "function"
    },
    {
      "inputs": [],
      "name": "voteStart",
      "outputs": [],
      "stateMutability": "nonpayable",
      "type": "function"
    },
    {
      "inputs": [],
      "name": "getTotalUsers",
      "outputs": [
        {
          "internalType": "uint256",
          "name": "",
          "type": "uint256"
        }
      ],
      "stateMutability": "view",
      "type": "function",
      "constant": true
    },
    {
      "inputs": [],
      "name": "getTotalVoted",
      "outputs": [
        {
          "internalType": "uint8",
          "name": "",
          "type": "uint8"
        }
      ],
      "stateMutability": "view",
      "type": "function",
      "constant": true
    },
    {
      "inputs": [],
      "name": "getCards",
      "outputs": [
        {
          "internalType": "uint8[]",
          "name": "",
          "type": "uint8[]"
        }
      ],
      "stateMutability": "view",
      "type": "function",
      "constant": true
    },
    {
      "inputs": [],
      "name": "getPlayerTotal",
      "outputs": [
        {
          "internalType": "uint8",
          "name": "",
          "type": "uint8"
        }
      ],
      "stateMutability": "view",
      "type": "function",
      "constant": true
    },
    {
      "inputs": [],
      "name": "hasStood",
      "outputs": [
        {
          "internalType": "bool",
          "name": "",
          "type": "bool"
        }
      ],
      "stateMutability": "view",
      "type": "function",
      "constant": true
    },
    {
      "inputs": [],
      "name": "getDealerCard",
      "outputs": [
        {
          "internalType": "uint8",
          "name": "",
          "type": "uint8"
        }
      ],
      "stateMutability": "view",
      "type": "function",
      "constant": true
    },
    {
      "inputs": [],
      "name": "hit",
      "outputs": [],
      "stateMutability": "nonpayable",
      "type": "function"
    },
    {
      "inputs": [],
      "name": "stand",
      "outputs": [],
      "stateMutability": "nonpayable",
      "type": "function"
    }
  ],
  "bytecode": "0x60806040523480156200001157600080fd5b50604051620044093803806200440983398181016040528101906200003791906200034f565b336000806101000a81548173ffffffffffffffffffffffffffffffffffffffff021916908373ffffffffffffffffffffffffffffffffffffffff1602179055508260028190555081600360006101000a81548160ff021916908360ff16021790555080600160006101000a81548173ffffffffffffffffffffffffffffffffffffffff021916908373ffffffffffffffffffffffffffffffffffffffff16021790555080600860006101000a81548173ffffffffffffffffffffffffffffffffffffffff021916908373ffffffffffffffffffffffffffffffffffffffff1602179055506000600560006101000a81548160ff02191690836001811115620001445762000143620003ab565b5b0217905550600760009080600181540180825580915050600190039060005260206000200160009091909190916101000a81548173ffffffffffffffffffffffffffffffffffffffff021916908373ffffffffffffffffffffffffffffffffffffffff1602179055506001600660008073ffffffffffffffffffffffffffffffffffffffff1673ffffffffffffffffffffffffffffffffffffffff16815260200190815260200160002060020160016101000a81548160ff0219169083151502179055506001600660008073ffffffffffffffffffffffffffffffffffffffff1673ffffffffffffffffffffffffffffffffffffffff16815260200190815260200160002060020160006101000a81548160ff021916908315150217905550505050620003da565b600080fd5b6000819050919050565b620002868162000271565b81146200029257600080fd5b50565b600081519050620002a6816200027b565b92915050565b600060ff82169050919050565b620002c481620002ac565b8114620002d057600080fd5b50565b600081519050620002e481620002b9565b92915050565b600073ffffffffffffffffffffffffffffffffffffffff82169050919050565b60006200031782620002ea565b9050919050565b62000329816200030a565b81146200033557600080fd5b50565b60008151905062000349816200031e565b92915050565b6000806000606084860312156200036b576200036a6200026c565b5b60006200037b8682870162000295565b93505060206200038e86828701620002d3565b9250506040620003a18682870162000338565b9150509250925092565b7f4e487b7100000000000000000000000000000000000000000000000000000000600052602160045260246000fd5b61401f80620003ea6000396000f3fe608060405234801561001057600080fd5b506004361061010b5760003560e01c80639be572f6116100a2578063c2897b1011610071578063c2897b1014610264578063c2a5be8c1461026e578063c38a8afd1461028c578063e031535b146102aa578063efaa55a0146102b45761010b565b80639be572f6146101ec578063b0df9e531461020a578063b1c9fe6e14610228578063befa1e2f146102465761010b565b80638da5cb5b116100de5780638da5cb5b1461017457806390f453791461019257806392d282e2146101b05780639998a8eb146101ce5761010b565b80632ae3594a146101105780634c2412a21461011a578063772cab23146101385780638b5b9ccc14610156575b600080fd5b6101186102d0565b005b610122610467565b60405161012f9190612ea8565b60405180910390f35b61014061047a565b60405161014d9190612ede565b60405180910390f35b61015e6105ca565b60405161016b919061317e565b60405180910390f35b61017c6108bc565b60405161018991906131af565b60405180910390f35b61019a6108e0565b6040516101a79190612ea8565b60405180910390f35b6101b86109ba565b6040516101c59190612ea8565b60405180910390f35b6101d6610bb7565b6040516101e39190612ea8565b60405180910390f35b6101f4610d07565b60405161020191906131d9565b60405180910390f35b610212610d20565b60405161021f9190613263565b60405180910390f35b610230610f60565b60405161023d91906132fc565b60405180910390f35b61024e610f73565b60405161025b91906131d9565b60405180910390f35b61026c610f79565b005b610276611205565b60405161028391906131af565b60405180910390f35b61029461122b565b6040516102a191906131d9565b60405180910390f35b6102b2611231565b005b6102ce60048036038101906102c99190613348565b61155d565b005b6000600660003373ffffffffffffffffffffffffffffffffffffffff1673ffffffffffffffffffffffffffffffffffffffff1681526020019081526020016000206001015411610355576040517f08c379a000000000000000000000000000000000000000000000000000000000815260040161034c906133f8565b60405180910390fd5b60018081111561036857610367613285565b5b600560009054906101000a900460ff16600181111561038a57610389613285565b5b146103ca576040517f08c379a00000000000000000000000000000000000000000000000000000000081526004016103c19061348a565b60405180910390fd5b600660003373ffffffffffffffffffffffffffffffffffffffff1673ffffffffffffffffffffffffffffffffffffffff16815260200190815260200160002060040160019054906101000a900460ff161561045a576040517f08c379a00000000000000000000000000000000000000000000000000000000081526004016104519061351c565b60405180910390fd5b610465336001611a05565b565b600360009054906101000a900460ff1681565b600080600660003373ffffffffffffffffffffffffffffffffffffffff1673ffffffffffffffffffffffffffffffffffffffff1681526020019081526020016000206001015411610500576040517f08c379a00000000000000000000000000000000000000000000000000000000081526004016104f7906133f8565b60405180910390fd5b60018081111561051357610512613285565b5b600560009054906101000a900460ff16600181111561053557610534613285565b5b14610575576040517f08c379a000000000000000000000000000000000000000000000000000000000815260040161056c9061348a565b60405180910390fd5b600660003373ffffffffffffffffffffffffffffffffffffffff1673ffffffffffffffffffffffffffffffffffffffff16815260200190815260200160002060040160019054906101000a900460ff16905090565b6060600060018111156105e0576105df613285565b5b600560009054906101000a900460ff16600181111561060257610601613285565b5b14610642576040517f08c379a0000000000000000000000000000000000000000000000000000000008152600401610639906135ae565b60405180910390fd5b600060078054905067ffffffffffffffff811115610663576106626135ce565b5b60405190808252806020026020018201604052801561069c57816020015b610689612d10565b8152602001906001900390816106815790505b50905060005b6007805490508110156108b45760066000600783815481106106c7576106c66135fd565b5b9060005260206000200160009054906101000a900473ffffffffffffffffffffffffffffffffffffffff1673ffffffffffffffffffffffffffffffffffffffff1673ffffffffffffffffffffffffffffffffffffffff1681526020019081526020016000206040518060e00160405290816000820160009054906101000a900473ffffffffffffffffffffffffffffffffffffffff1673ffffffffffffffffffffffffffffffffffffffff1673ffffffffffffffffffffffffffffffffffffffff168152602001600182015481526020016002820160009054906101000a900460ff161515151581526020016002820160019054906101000a900460ff161515151581526020016003820180548060200260200160405190810160405280929190818152602001828054801561084257602002820191906000526020600020906000905b82829054906101000a900460ff1660ff168152602001906001019060208260000104928301926001038202915080841161080b5790505b505050505081526020016004820160009054906101000a900460ff1660ff1660ff1681526020016004820160019054906101000a900460ff161515151581525050828281518110610896576108956135fd565b5b602002602001018190525080806108ac9061365b565b9150506106a2565b508091505090565b60008054906101000a900473ffffffffffffffffffffffffffffffffffffffff1681565b6000806000600190505b6007805490508160ff1610156109b2576006600060078360ff1681548110610915576109146135fd565b5b9060005260206000200160009054906101000a900473ffffffffffffffffffffffffffffffffffffffff1673ffffffffffffffffffffffffffffffffffffffff1673ffffffffffffffffffffffffffffffffffffffff16815260200190815260200160002060020160009054906101000a900460ff161561099f57818061099b906136a3565b9250505b80806109aa906136a3565b9150506108ea565b508091505090565b600080600660003373ffffffffffffffffffffffffffffffffffffffff1673ffffffffffffffffffffffffffffffffffffffff1681526020019081526020016000206001015411610a40576040517f08c379a0000000000000000000000000000000000000000000000000000000008152600401610a37906133f8565b60405180910390fd5b600180811115610a5357610a52613285565b5b600560009054906101000a900460ff166001811115610a7557610a74613285565b5b14610ab5576040517f08c379a0000000000000000000000000000000000000000000000000000000008152600401610aac9061348a565b60405180910390fd5b6000600660008073ffffffffffffffffffffffffffffffffffffffff1673ffffffffffffffffffffffffffffffffffffffff1681526020019081526020016000206003018054905011610b3d576040517f08c379a0000000000000000000000000000000000000000000000000000000008152600401610b3490613718565b60405180910390fd5b600660008073ffffffffffffffffffffffffffffffffffffffff1673ffffffffffffffffffffffffffffffffffffffff168152602001908152602001600020600301600081548110610b9257610b916135fd565b5b90600052602060002090602091828204019190069054906101000a900460ff16905090565b600080600660003373ffffffffffffffffffffffffffffffffffffffff1673ffffffffffffffffffffffffffffffffffffffff1681526020019081526020016000206001015411610c3d576040517f08c379a0000000000000000000000000000000000000000000000000000000008152600401610c34906133f8565b60405180910390fd5b600180811115610c5057610c4f613285565b5b600560009054906101000a900460ff166001811115610c7257610c71613285565b5b14610cb2576040517f08c379a0000000000000000000000000000000000000000000000000000000008152600401610ca99061348a565b60405180910390fd5b600660003373ffffffffffffffffffffffffffffffffffffffff1673ffffffffffffffffffffffffffffffffffffffff16815260200190815260200160002060040160009054906101000a900460ff16905090565b60006001600780549050610d1b9190613738565b905090565b60606000600660003373ffffffffffffffffffffffffffffffffffffffff1673ffffffffffffffffffffffffffffffffffffffff1681526020019081526020016000206001015411610da7576040517f08c379a0000000000000000000000000000000000000000000000000000000008152600401610d9e906133f8565b60405180910390fd5b600180811115610dba57610db9613285565b5b600560009054906101000a900460ff166001811115610ddc57610ddb613285565b5b14610e1c576040517f08c379a0000000000000000000000000000000000000000000000000000000008152600401610e139061348a565b60405180910390fd5b6000600660003373ffffffffffffffffffffffffffffffffffffffff1673ffffffffffffffffffffffffffffffffffffffff1681526020019081526020016000206003018054905011610ea4576040517f08c379a0000000000000000000000000000000000000000000000000000000008152600401610e9b906137b8565b60405180910390fd5b600660003373ffffffffffffffffffffffffffffffffffffffff1673ffffffffffffffffffffffffffffffffffffffff168152602001908152602001600020600301805480602002602001604051908101604052809291908181526020018280548015610f5657602002820191906000526020600020906000905b82829054906101000a900460ff1660ff1681526020019060010190602082600001049283019260010382029150808411610f1f5790505b5050505050905090565b600560009054906101000a900460ff1681565b60045481565b6000600660003373ffffffffffffffffffffffffffffffffffffffff1673ffffffffffffffffffffffffffffffffffffffff1681526020019081526020016000206001015411610ffe576040517f08c379a0000000000000000000000000000000000000000000000000000000008152600401610ff5906133f8565b60405180910390fd5b60018081111561101157611010613285565b5b600560009054906101000a900460ff16600181111561103357611032613285565b5b14611073576040517f08c379a000000000000000000000000000000000000000000000000000000000815260040161106a9061348a565b60405180910390fd5b600660003373ffffffffffffffffffffffffffffffffffffffff1673ffffffffffffffffffffffffffffffffffffffff16815260200190815260200160002060040160019054906101000a900460ff1615611103576040517f08c379a00000000000000000000000000000000000000000000000000000000081526004016110fa9061351c565b60405180910390fd5b6001600660003373ffffffffffffffffffffffffffffffffffffffff1673ffffffffffffffffffffffffffffffffffffffff16815260200190815260200160002060040160016101000a81548160ff0219169083151502179055503373ffffffffffffffffffffffffffffffffffffffff167fcf9491c50952c181187e767c568b4a5ba558d5b1d35f47d6307fa1d7709c5110600660003373ffffffffffffffffffffffffffffffffffffffff1673ffffffffffffffffffffffffffffffffffffffff16815260200190815260200160002060040160009054906101000a900460ff166040516111f39190612ea8565b60405180910390a2611203611b7e565b565b600160009054906101000a900473ffffffffffffffffffffffffffffffffffffffff1681565b60025481565b6000600660003373ffffffffffffffffffffffffffffffffffffffff1673ffffffffffffffffffffffffffffffffffffffff16815260200190815260200160002060010154116112b6576040517f08c379a00000000000000000000000000000000000000000000000000000000081526004016112ad906133f8565b60405180910390fd5b600060018111156112ca576112c9613285565b5b600560009054906101000a900460ff1660018111156112ec576112eb613285565b5b1461132c576040517f08c379a0000000000000000000000000000000000000000000000000000000008152600401611323906135ae565b60405180910390fd5b600660003373ffffffffffffffffffffffffffffffffffffffff1673ffffffffffffffffffffffffffffffffffffffff16815260200190815260200160002060020160009054906101000a900460ff16156113bc576040517f08c379a00000000000000000000000000000000000000000000000000000000081526004016113b39061384a565b60405180910390fd5b6001600660003373ffffffffffffffffffffffffffffffffffffffff1673ffffffffffffffffffffffffffffffffffffffff16815260200190815260200160002060020160006101000a81548160ff021916908315150217905550600080600190505b6007805490508160ff1610156114e7576006600060078360ff168154811061144a576114496135fd565b5b9060005260206000200160009054906101000a900473ffffffffffffffffffffffffffffffffffffffff1673ffffffffffffffffffffffffffffffffffffffff1673ffffffffffffffffffffffffffffffffffffffff16815260200190815260200160002060020160009054906101000a900460ff16156114d45781806114d0906136a3565b9250505b80806114df906136a3565b91505061141f565b503373ffffffffffffffffffffffffffffffffffffffff167fbdca30de69aea5f738a34de8ae974c96ffe743d647d208ef2b5a8e56074fca5c8260405161152e9190612ea8565b60405180910390a260016007805490506115489190613738565b8160ff160361155a576115596122bb565b5b50565b6000600181111561157157611570613285565b5b600560009054906101000a900460ff16600181111561159357611592613285565b5b146115d3576040517f08c379a00000000000000000000000000000000000000000000000000000000081526004016115ca906135ae565b60405180910390fd5b600360009054906101000a900460ff1660ff1660016007805490506115f89190613738565b1115611639576040517f08c379a0000000000000000000000000000000000000000000000000000000008152600401611630906138dc565b60405180910390fd5b60025481101561167e576040517f08c379a00000000000000000000000000000000000000000000000000000000081526004016116759061396e565b60405180910390fd5b6000600660003373ffffffffffffffffffffffffffffffffffffffff1673ffffffffffffffffffffffffffffffffffffffff1681526020019081526020016000206001015414611703576040517f08c379a00000000000000000000000000000000000000000000000000000000081526004016116fa90613a00565b60405180910390fd5b6000600860009054906101000a900473ffffffffffffffffffffffffffffffffffffffff1673ffffffffffffffffffffffffffffffffffffffff1663decebbce336040518263ffffffff1660e01b815260040161176091906131af565b602060405180830381865afa15801561177d573d6000803e3d6000fd5b505050506040513d601f19601f820116820180604052508101906117a19190613a35565b90508082106117e5576040517f08c379a00000000000000000000000000000000000000000000000000000000081526004016117dc90613aae565b60405180910390fd5b600860009054906101000a900473ffffffffffffffffffffffffffffffffffffffff1673ffffffffffffffffffffffffffffffffffffffff166373d61b776040518163ffffffff1660e01b8152600401602060405180830381865afa158015611852573d6000803e3d6000fd5b505050506040513d601f19601f820116820180604052508101906118769190613a35565b60026003846004546118889190613ace565b6118929190613b02565b61189c9190613b73565b11156118dd576040517f08c379a00000000000000000000000000000000000000000000000000000000081526004016118d490613bf0565b60405180910390fd5b81600660003373ffffffffffffffffffffffffffffffffffffffff1673ffffffffffffffffffffffffffffffffffffffff168152602001908152602001600020600101819055506007339080600181540180825580915050600190039060005260206000200160009091909190916101000a81548173ffffffffffffffffffffffffffffffffffffffff021916908373ffffffffffffffffffffffffffffffffffffffff16021790555081600460008282546119999190613ace565b925050819055503373ffffffffffffffffffffffffffffffffffffffff167febe12099148ec1d7275ba796ef2cbc6b1cee92adde5e9f1bcc5cd6fce2764a668360016007805490506119eb9190613738565b6040516119f9929190613c10565b60405180910390a25050565b600060016034424486600660008973ffffffffffffffffffffffffffffffffffffffff1673ffffffffffffffffffffffffffffffffffffffff16815260200190815260200160002060030180549050604051602001611a679493929190613ca2565b6040516020818303038152906040528051906020012060001c611a8a9190613cf0565b611a949190613d21565b9050600660008473ffffffffffffffffffffffffffffffffffffffff1673ffffffffffffffffffffffffffffffffffffffff1681526020019081526020016000206003018190806001815401808255809150506001900390600052602060002090602091828204019190069091909190916101000a81548160ff021916908360ff1602179055508115611b70578273ffffffffffffffffffffffffffffffffffffffff167f946dcf24b8c08c25fbbe3a10158be25f72f147d17a725912e2af62a98ad0535382604051611b679190612ea8565b60405180910390a25b611b7983612553565b505050565b6000600190506000600190505b600780549050811015611c46576006600060078381548110611bb057611baf6135fd565b5b9060005260206000200160009054906101000a900473ffffffffffffffffffffffffffffffffffffffff1673ffffffffffffffffffffffffffffffffffffffff1673ffffffffffffffffffffffffffffffffffffffff16815260200190815260200160002060040160019054906101000a900460ff16611c335760009150611c46565b8080611c3e9061365b565b915050611b8b565b5080156122b857600073ffffffffffffffffffffffffffffffffffffffff167f946dcf24b8c08c25fbbe3a10158be25f72f147d17a725912e2af62a98ad05353600660008073ffffffffffffffffffffffffffffffffffffffff1673ffffffffffffffffffffffffffffffffffffffff168152602001908152602001600020600301600181548110611cdb57611cda6135fd565b5b90600052602060002090602091828204019190069054906101000a900460ff16604051611d089190612ea8565b60405180910390a25b6011600660008073ffffffffffffffffffffffffffffffffffffffff1673ffffffffffffffffffffffffffffffffffffffff16815260200190815260200160002060040160009054906101000a900460ff1660ff161015611d7d57611d7860006001611a05565b611d11565b6000600660008073ffffffffffffffffffffffffffffffffffffffff1673ffffffffffffffffffffffffffffffffffffffff16815260200190815260200160002060040160009054906101000a900460ff169050600060158260ff1611905060006001600780549050611df09190613738565b67ffffffffffffffff811115611e0957611e086135ce565b5b604051908082528060200260200182016040528015611e4257816020015b611e2f612d6c565b815260200190600190039081611e275790505b5090506000600190505b60078054905081101561221b57600060078281548110611e6f57611e6e6135fd565b5b9060005260206000200160009054906101000a900473ffffffffffffffffffffffffffffffffffffffff1690506000600660008373ffffffffffffffffffffffffffffffffffffffff1673ffffffffffffffffffffffffffffffffffffffff16815260200190815260200160002060040160009054906101000a900460ff169050600060158260ff16119050600081158015611f1957508680611f1857508260ff168860ff1611155b5b9050600060158460ff16148015611f7557506002600660008773ffffffffffffffffffffffffffffffffffffffff1673ffffffffffffffffffffffffffffffffffffffff16815260200190815260200160002060030180549050145b905080156120315760405180604001604052808673ffffffffffffffffffffffffffffffffffffffff16815260200160026003600660008a73ffffffffffffffffffffffffffffffffffffffff1673ffffffffffffffffffffffffffffffffffffffff16815260200190815260200160002060010154611ff59190613b02565b611fff9190613b73565b815250876001886120109190613738565b81518110612021576120206135fd565b5b6020026020010181905250612175565b81156120d35760405180604001604052808673ffffffffffffffffffffffffffffffffffffffff168152602001600660008873ffffffffffffffffffffffffffffffffffffffff1673ffffffffffffffffffffffffffffffffffffffff16815260200190815260200160002060010154815250876001886120b29190613738565b815181106120c3576120c26135fd565b5b6020026020010181905250612174565b60405180604001604052808673ffffffffffffffffffffffffffffffffffffffff168152602001600660008873ffffffffffffffffffffffffffffffffffffffff1673ffffffffffffffffffffffffffffffffffffffff1681526020019081526020016000206001015461214690613d60565b815250876001886121579190613738565b81518110612168576121676135fd565b5b60200260200101819052505b5b60078681548110612189576121886135fd565b5b9060005260206000200160009054906101000a900473ffffffffffffffffffffffffffffffffffffffff1673ffffffffffffffffffffffffffffffffffffffff167f27b3d3a8ae8f05414fbcd96abaebe645388209ffc816f9de9a0f4c92da5a3b4283836040516121fb929190613da8565b60405180910390a2505050505080806122139061365b565b915050611e4c565b50600860009054906101000a900473ffffffffffffffffffffffffffffffffffffffff1673ffffffffffffffffffffffffffffffffffffffff166385a28ff68260006040518363ffffffff1660e01b815260040161227a929190613ebe565b600060405180830381600087803b15801561229457600080fd5b505af11580156122a8573d6000803e3d6000fd5b505050506122b46129da565b5050505b50565b600060018111156122cf576122ce613285565b5b600560009054906101000a900460ff1660018111156122f1576122f0613285565b5b14612331576040517f08c379a0000000000000000000000000000000000000000000000000000000008152600401612328906135ae565b60405180910390fd5b600160078054905011612379576040517f08c379a000000000000000000000000000000000000000000000000000000000815260040161237090613f3a565b60405180910390fd5b60005b60028110156124df5760005b6007805490508160ff1610156124cb576001821480156124155750600073ffffffffffffffffffffffffffffffffffffffff1660078260ff16815481106123d2576123d16135fd565b5b9060005260206000200160009054906101000a900473ffffffffffffffffffffffffffffffffffffffff1673ffffffffffffffffffffffffffffffffffffffff16145b1561246b5761246660078260ff1681548110612434576124336135fd565b5b9060005260206000200160009054906101000a900473ffffffffffffffffffffffffffffffffffffffff166000611a05565b6124b8565b6124b760078260ff1681548110612485576124846135fd565b5b9060005260206000200160009054906101000a900473ffffffffffffffffffffffffffffffffffffffff166001611a05565b5b80806124c3906136a3565b915050612388565b5080806124d79061365b565b91505061237c565b506001600560006101000a81548160ff0219169083600181111561250657612505613285565b5b02179055507f5fe57a6009d2ae51447def0790762f4e928888c72f5f8ef4abed68599519a833600560009054906101000a900460ff1660405161254991906132fc565b60405180910390a1565b60008060005b600660008573ffffffffffffffffffffffffffffffffffffffff1673ffffffffffffffffffffffffffffffffffffffff168152602001908152602001600020600301805490508110156126aa576000600d600660008773ffffffffffffffffffffffffffffffffffffffff1673ffffffffffffffffffffffffffffffffffffffff16815260200190815260200160002060030183815481106125fe576125fd6135fd565b5b90600052602060002090602091828204019190069054906101000a900460ff166126289190613f5a565b905060018160ff1603612657578280612640906136a3565b935050600b846126509190613d21565b9350612696565b600a8160ff1610158061266d575060008160ff16145b1561268657600a8461267f9190613d21565b9350612695565b80846126929190613d21565b93505b5b5080806126a29061365b565b915050612559565b505b60158260ff161180156126c2575060008160ff16115b156126e957600a826126d49190613f8b565b915080806126e190613fc0565b9150506126ac565b81600660008573ffffffffffffffffffffffffffffffffffffffff1673ffffffffffffffffffffffffffffffffffffffff16815260200190815260200160002060040160006101000a81548160ff021916908360ff16021790555060158260ff161480156127845750600073ffffffffffffffffffffffffffffffffffffffff168373ffffffffffffffffffffffffffffffffffffffff1614155b1561288e576001600660008573ffffffffffffffffffffffffffffffffffffffff1673ffffffffffffffffffffffffffffffffffffffff16815260200190815260200160002060040160016101000a81548160ff0219169083151502179055508273ffffffffffffffffffffffffffffffffffffffff167fcf9491c50952c181187e767c568b4a5ba558d5b1d35f47d6307fa1d7709c5110600660008673ffffffffffffffffffffffffffffffffffffffff1673ffffffffffffffffffffffffffffffffffffffff16815260200190815260200160002060040160009054906101000a900460ff166040516128799190612ea8565b60405180910390a2612889611b7e565b6129d5565b60158260ff161180156128ce5750600073ffffffffffffffffffffffffffffffffffffffff168373ffffffffffffffffffffffffffffffffffffffff1614155b156129d4576001600660008573ffffffffffffffffffffffffffffffffffffffff1673ffffffffffffffffffffffffffffffffffffffff16815260200190815260200160002060040160016101000a81548160ff0219169083151502179055508273ffffffffffffffffffffffffffffffffffffffff167fcf9491c50952c181187e767c568b4a5ba558d5b1d35f47d6307fa1d7709c5110600660008673ffffffffffffffffffffffffffffffffffffffff1673ffffffffffffffffffffffffffffffffffffffff16815260200190815260200160002060040160009054906101000a900460ff166040516129c39190612ea8565b60405180910390a26129d3611b7e565b5b5b505050565b60005b600780549050811015612b0c576006600060078381548110612a0257612a016135fd565b5b9060005260206000200160009054906101000a900473ffffffffffffffffffffffffffffffffffffffff1673ffffffffffffffffffffffffffffffffffffffff1673ffffffffffffffffffffffffffffffffffffffff168152602001908152602001600020600080820160006101000a81549073ffffffffffffffffffffffffffffffffffffffff021916905560018201600090556002820160006101000a81549060ff02191690556002820160016101000a81549060ff0219169055600382016000612acf9190612d9c565b6004820160006101000a81549060ff02191690556004820160016101000a81549060ff021916905550508080612b049061365b565b9150506129dd565b5060076000612b1b9190612dc4565b600067ffffffffffffffff811115612b3657612b356135ce565b5b604051908082528060200260200182016040528015612b645781602001602082028036833780820191505090505b5060079080519060200190612b7a929190612de5565b50600760009080600181540180825580915050600190039060005260206000200160009091909190916101000a81548173ffffffffffffffffffffffffffffffffffffffff021916908373ffffffffffffffffffffffffffffffffffffffff1602179055506001600660008073ffffffffffffffffffffffffffffffffffffffff1673ffffffffffffffffffffffffffffffffffffffff16815260200190815260200160002060020160016101000a81548160ff0219169083151502179055506001600660008073ffffffffffffffffffffffffffffffffffffffff1673ffffffffffffffffffffffffffffffffffffffff16815260200190815260200160002060020160006101000a81548160ff0219169083151502179055506000600560006101000a81548160ff02191690836001811115612cbb57612cba613285565b5b021790555060006004819055507f5fe57a6009d2ae51447def0790762f4e928888c72f5f8ef4abed68599519a833600560009054906101000a900460ff16604051612d0691906132fc565b60405180910390a1565b6040518060e00160405280600073ffffffffffffffffffffffffffffffffffffffff1681526020016000815260200160001515815260200160001515815260200160608152602001600060ff1681526020016000151581525090565b6040518060400160405280600073ffffffffffffffffffffffffffffffffffffffff168152602001600081525090565b50805460008255601f016020900490600052602060002090810190612dc19190612e6f565b50565b5080546000825590600052602060002090810190612de29190612e6f565b50565b828054828255906000526020600020908101928215612e5e579160200282015b82811115612e5d5782518260006101000a81548173ffffffffffffffffffffffffffffffffffffffff021916908373ffffffffffffffffffffffffffffffffffffffff16021790555091602001919060010190612e05565b5b509050612e6b9190612e6f565b5090565b5b80821115612e88576000816000905550600101612e70565b5090565b600060ff82169050919050565b612ea281612e8c565b82525050565b6000602082019050612ebd6000830184612e99565b92915050565b60008115159050919050565b612ed881612ec3565b82525050565b6000602082019050612ef36000830184612ecf565b92915050565b600081519050919050565b600082825260208201905092915050565b6000819050602082019050919050565b600073ffffffffffffffffffffffffffffffffffffffff82169050919050565b6000612f5082612f25565b9050919050565b612f6081612f45565b82525050565b6000819050919050565b612f7981612f66565b82525050565b612f8881612ec3565b82525050565b600081519050919050565b600082825260208201905092915050565b6000819050602082019050919050565b612fc381612e8c565b82525050565b6000612fd58383612fba565b60208301905092915050565b6000602082019050919050565b6000612ff982612f8e565b6130038185612f99565b935061300e83612faa565b8060005b8381101561303f5781516130268882612fc9565b975061303183612fe1565b925050600181019050613012565b5085935050505092915050565b600060e0830160008301516130646000860182612f57565b5060208301516130776020860182612f70565b50604083015161308a6040860182612f7f565b50606083015161309d6060860182612f7f565b50608083015184820360808601526130b58282612fee565b91505060a08301516130ca60a0860182612fba565b5060c08301516130dd60c0860182612f7f565b508091505092915050565b60006130f4838361304c565b905092915050565b6000602082019050919050565b600061311482612ef9565b61311e8185612f04565b93508360208202850161313085612f15565b8060005b8581101561316c578484038952815161314d85826130e8565b9450613158836130fc565b925060208a01995050600181019050613134565b50829750879550505050505092915050565b600060208201905081810360008301526131988184613109565b905092915050565b6131a981612f45565b82525050565b60006020820190506131c460008301846131a0565b92915050565b6131d381612f66565b82525050565b60006020820190506131ee60008301846131ca565b92915050565b600082825260208201905092915050565b600061321082612f8e565b61321a81856131f4565b935061322583612faa565b8060005b8381101561325657815161323d8882612fc9565b975061324883612fe1565b925050600181019050613229565b5085935050505092915050565b6000602082019050818103600083015261327d8184613205565b905092915050565b7f4e487b7100000000000000000000000000000000000000000000000000000000600052602160045260246000fd5b600281106132c5576132c4613285565b5b50565b60008190506132d6826132b4565b919050565b60006132e6826132c8565b9050919050565b6132f6816132db565b82525050565b600060208201905061331160008301846132ed565b92915050565b600080fd5b61332581612f66565b811461333057600080fd5b50565b6000813590506133428161331c565b92915050565b60006020828403121561335e5761335d613317565b5b600061336c84828501613333565b91505092915050565b600082825260208201905092915050565b7f596f7520617265206e6f742061207061727469636970616e7420696e2074686560008201527f2063757272656e742067616d6500000000000000000000000000000000000000602082015250565b60006133e2602d83613375565b91506133ed82613386565b604082019050919050565b60006020820190508181036000830152613411816133d5565b9050919050565b7f5468652067616d65206973206e6f7420696e2074686520706c6179696e67207060008201527f6861736500000000000000000000000000000000000000000000000000000000602082015250565b6000613474602483613375565b915061347f82613418565b604082019050919050565b600060208201905081810360008301526134a381613467565b9050919050565b7f596f75206861766520616c72656164792073746f6f64206f722062757374656460008201527f2e00000000000000000000000000000000000000000000000000000000000000602082015250565b6000613506602183613375565b9150613511826134aa565b604082019050919050565b60006020820190508181036000830152613535816134f9565b9050919050565b7f5468652067616d65206973206e6f7420696e207468652062657474696e67207060008201527f6861736500000000000000000000000000000000000000000000000000000000602082015250565b6000613598602483613375565b91506135a38261353c565b604082019050919050565b600060208201905081810360008301526135c78161358b565b9050919050565b7f4e487b7100000000000000000000000000000000000000000000000000000000600052604160045260246000fd5b7f4e487b7100000000000000000000000000000000000000000000000000000000600052603260045260246000fd5b7f4e487b7100000000000000000000000000000000000000000000000000000000600052601160045260246000fd5b600061366682612f66565b91507fffffffffffffffffffffffffffffffffffffffffffffffffffffffffffffffff82036136985761369761362c565b5b600182019050919050565b60006136ae82612e8c565b915060ff82036136c1576136c061362c565b5b600182019050919050565b7f4465616c6572206361726473206e6f7420696e697469616c697a656400000000600082015250565b6000613702601c83613375565b915061370d826136cc565b602082019050919050565b60006020820190508181036000830152613731816136f5565b9050919050565b600061374382612f66565b915061374e83612f66565b92508282039050818111156137665761376561362c565b5b92915050565b7f506c61796572206361726473206e6f7420696e697469616c697a656400000000600082015250565b60006137a2601c83613375565b91506137ad8261376c565b602082019050919050565b600060208201905081810360008301526137d181613795565b9050919050565b7f557365722068617320616c726561647920766f74656420666f7220746865207360008201527f74617274206f66207468652067616d6500000000000000000000000000000000602082015250565b6000613834603083613375565b915061383f826137d8565b604082019050919050565b6000602082019050818103600083015261386381613827565b9050919050565b7f546865206d6178696d756d206e756d626572206f6620706c617965727320776160008201527f7320726561636865640000000000000000000000000000000000000000000000602082015250565b60006138c6602983613375565b91506138d18261386a565b604082019050919050565b600060208201905081810360008301526138f5816138b9565b9050919050565b7f596f75206e65656420746f20626574206d6f7265207468616e20746865206d6960008201527f6e696d756d206265740000000000000000000000000000000000000000000000602082015250565b6000613958602983613375565b9150613963826138fc565b604082019050919050565b600060208201905081810360008301526139878161394b565b9050919050565b7f596f75206861766520616c726561647920656e7465726564207468652067616d60008201527f6500000000000000000000000000000000000000000000000000000000000000602082015250565b60006139ea602183613375565b91506139f58261398e565b604082019050919050565b60006020820190508181036000830152613a19816139dd565b9050919050565b600081519050613a2f8161331c565b92915050565b600060208284031215613a4b57613a4a613317565b5b6000613a5984828501613a20565b91505092915050565b7f596f7520646f6e2774206861766520656e6f7567682066756e64730000000000600082015250565b6000613a98601b83613375565b9150613aa382613a62565b602082019050919050565b60006020820190508181036000830152613ac781613a8b565b9050919050565b6000613ad982612f66565b9150613ae483612f66565b9250828201905080821115613afc57613afb61362c565b5b92915050565b6000613b0d82612f66565b9150613b1883612f66565b9250828202613b2681612f66565b91508282048414831517613b3d57613b3c61362c565b5b5092915050565b7f4e487b7100000000000000000000000000000000000000000000000000000000600052601260045260246000fd5b6000613b7e82612f66565b9150613b8983612f66565b925082613b9957613b98613b44565b5b828204905092915050565b7f54686520636173696e6f2063616e2774206166666f726420796f757220626574600082015250565b6000613bda602083613375565b9150613be582613ba4565b602082019050919050565b60006020820190508181036000830152613c0981613bcd565b9050919050565b6000604082019050613c2560008301856131ca565b613c326020830184612e99565b9392505050565b6000819050919050565b613c54613c4f82612f66565b613c39565b82525050565b60008160601b9050919050565b6000613c7282613c5a565b9050919050565b6000613c8482613c67565b9050919050565b613c9c613c9782612f45565b613c79565b82525050565b6000613cae8287613c43565b602082019150613cbe8286613c43565b602082019150613cce8285613c8b565b601482019150613cde8284613c43565b60208201915081905095945050505050565b6000613cfb82612f66565b9150613d0683612f66565b925082613d1657613d15613b44565b5b828206905092915050565b6000613d2c82612e8c565b9150613d3783612e8c565b9250828201905060ff811115613d5057613d4f61362c565b5b92915050565b6000819050919050565b6000613d6b82613d56565b91507f80000000000000000000000000000000000000000000000000000000000000008203613d9d57613d9c61362c565b5b816000039050919050565b6000604082019050613dbd6000830185612ecf565b613dca6020830184612ecf565b9392505050565b600081519050919050565b600082825260208201905092915050565b6000819050602082019050919050565b613e0681613d56565b82525050565b604082016000820151613e226000850182612f57565b506020820151613e356020850182613dfd565b50505050565b6000613e478383613e0c565b60408301905092915050565b6000602082019050919050565b6000613e6b82613dd1565b613e758185613ddc565b9350613e8083613ded565b8060005b83811015613eb1578151613e988882613e3b565b9750613ea383613e53565b925050600181019050613e84565b5085935050505092915050565b60006040820190508181036000830152613ed88185613e60565b9050613ee76020830184612ecf565b9392505050565b7f4e6f20706c6179657273206861766520706c6163656420626574730000000000600082015250565b6000613f24601b83613375565b9150613f2f82613eee565b602082019050919050565b60006020820190508181036000830152613f5381613f17565b9050919050565b6000613f6582612e8c565b9150613f7083612e8c565b925082613f8057613f7f613b44565b5b828206905092915050565b6000613f9682612e8c565b9150613fa183612e8c565b9250828203905060ff811115613fba57613fb961362c565b5b92915050565b6000613fcb82612e8c565b915060008203613fde57613fdd61362c565b5b60018203905091905056fea26469706673582212200a51f104a4b0f388012c5437f106f9079d97f0b09000fade1ddf72dfd732f6d064736f6c63430008130033",
  "immutableReferences": {},
  "source": "// SPDX-License-Identifier: MIT\r\npragma solidity 0.8.19;\r\n\r\nimport \"./Structs.sol\";\r\n\r\n// Main contract interface\r\ninterface Main {\r\n\r\n    // The neccesary functions from the Main contract\r\n    function getFunds(address user) external view returns (uint256);\r\n    function getCasinoFunds() external view returns (uint256);\r\n    function modifyFunds(Structs.Payment[] memory payments, bool zero_sum) external;\r\n}\r\n\r\ncontract Blackjack {\r\n    // Public variables\r\n    address public owner;\r\n    address public mainContractAddr;\r\n    uint256 public minimumBet;\r\n    uint8 public maxPlayers;\r\n    uint256 public totalBets; // The sum of bets across all players\r\n    GamePhase public phase;\r\n\r\n    // Possible game phases\r\n    enum GamePhase { Betting, Playing }\r\n    \r\n    // Player info. structure\r\n    struct Player {\r\n        // Basic player data\r\n        address addr;\r\n        uint256 bet;\r\n        bool hasVoted;\r\n        bool isDealer;\r\n\r\n        // Blackjack specific user data\r\n        uint8[] playerCards; \r\n        uint8 playerTotal;\r\n        bool hasStood;\r\n    }\r\n\r\n    // Private variables\r\n    mapping(address => Player) players;\r\n    address[] playerAddresses;\r\n    Main mainContract;\r\n\r\n    // Events for clients to keep track of the game\r\n\r\n    // A player joined this game\r\n    event PlayerJoined(address indexed player, uint256 amount, uint8 totalPlayers);\r\n    \r\n    // A player joined the game\r\n    event PlayerVoted(address indexed player, uint8 totalVoted);\r\n\r\n    // The game phase changed\r\n    event GamePhaseChanged(GamePhase phase);\r\n\r\n    // A card was dealt to a player\r\n    event CardDealt(address indexed player, uint8 card);\r\n\r\n    // A player has stood\r\n    event PlayerStood(address indexed player, uint8 total);\r\n\r\n    // What was the result of the player\r\n    event GameResult(address indexed player, bool hasWon, bool hasBlackjack);\r\n\r\n    // Modifiers for access to functions\r\n    modifier onlyOwner() {\r\n        require(msg.sender == owner, \"Only the owner can call this function\");\r\n        _;\r\n    }\r\n\r\n    modifier inBettingPhase() {\r\n        require(phase == GamePhase.Betting, \"The game is not in the betting phase\");\r\n        _;\r\n    }\r\n\r\n    modifier inPlayingPhase() {\r\n        require(phase == GamePhase.Playing, \"The game is not in the playing phase\");\r\n        _;\r\n    }\r\n\r\n    modifier onlyPlayers() {\r\n        require(players[msg.sender].bet > 0, \"You are not a participant in the current game\");\r\n        _;\r\n    }\r\n\r\n\r\n    constructor(uint256 _minimumBet, uint8 _maxPlayers, address _main_contract_addr) {\r\n        owner = msg.sender;\r\n        minimumBet = _minimumBet;\r\n        maxPlayers = _maxPlayers;\r\n        mainContractAddr = _main_contract_addr;\r\n        mainContract = Main(_main_contract_addr);\r\n        phase = GamePhase.Betting;\r\n\r\n        // Insert the dealer player\r\n        playerAddresses.push(address(0));\r\n        players[address(0)].isDealer = true;\r\n        players[address(0)].hasVoted = true;\r\n    }\r\n\r\n        \r\n    // Get player information, only available at betting phase to not reveal dealer cards\r\n    function getPlayers() external view inBettingPhase returns (Player[] memory) {\r\n        Player[] memory allPlayers = new Player[](playerAddresses.length);\r\n        for(uint256 i = 0; i < playerAddresses.length; i++ ) {\r\n            allPlayers[i] = players[playerAddresses[i]];\r\n        }\r\n        return allPlayers;\r\n    }\r\n\r\n    function joinGame(uint256 bet) external inBettingPhase {\r\n        require(playerAddresses.length - 1 <= maxPlayers, \"The maximum number of players was reached\");\r\n        \r\n        require(bet >= minimumBet, \"You need to bet more than the minimum bet\");\r\n\r\n        require(players[msg.sender].bet == 0, \"You have already entered the game\");\r\n\r\n        // Check in main contract if funds are enough\r\n        uint256 userFunds = mainContract.getFunds(msg.sender);\r\n        require(bet < userFunds, \"You don't have enough funds\");\r\n        \r\n        require(uint256((totalBets + bet) * 3  / 2) <= mainContract.getCasinoFunds(), \"The casino can't afford your bet\");\r\n\r\n        // Register player in the game\r\n        players[msg.sender].bet = bet;\r\n        playerAddresses.push(msg.sender);\r\n        totalBets += bet;\r\n\r\n        // Emit bet placed event\r\n        emit PlayerJoined(msg.sender, bet, uint8(playerAddresses.length - 1));\r\n    }\r\n\r\n    function voteStart() external onlyPlayers inBettingPhase {\r\n        // Check if player is registered for the game and has not voted\r\n        require(!players[msg.sender].hasVoted, \"User has already voted for the start of the game\");\r\n        players[msg.sender].hasVoted = true;\r\n        \r\n        // Check if all played have voted, then start the game\r\n        uint8 votedCount;\r\n        // Skip the dealer by starting at 1\r\n        for (uint8 i = 1; i < playerAddresses.length; i++) {\r\n            if(players[playerAddresses[i]].hasVoted)\r\n                votedCount++;\r\n        }\r\n\r\n\r\n        // Emit player voted event\r\n        emit PlayerVoted(msg.sender, votedCount);\r\n        \r\n        // Start the game if all players have voted\r\n        if(votedCount == playerAddresses.length - 1)\r\n            startGame();\r\n    }\r\n    \r\n    function startGame() internal inBettingPhase {\r\n        // Require there is at least one non-dealer user in the game\r\n        require(playerAddresses.length > 1, \"No players have placed bets\");\r\n\r\n        // Deal two cards to each player and the dealer (the contract is the dealer)\r\n        for (uint256 i = 0; i < 2; i++) {\r\n            for (uint8 j = 0; j < playerAddresses.length; j++) {\r\n                if(i == 1 && playerAddresses[j] == address(0)) // dont emit second dealer card\r\n                    dealCard(playerAddresses[j], false);\r\n                else\r\n                    dealCard(playerAddresses[j], true);\r\n            }\r\n        }\r\n        phase = GamePhase.Playing;\r\n        // Emit game phase change vent\r\n        emit GamePhaseChanged(phase);\r\n    }\r\n\r\n    function dealCard(address _player, bool emitCard) internal {\r\n        // Player receives a card\r\n        uint8 card = uint8(uint256(keccak256(abi.encodePacked(block.timestamp, block.prevrandao, _player, players[_player].playerCards.length))) % 52) + 1;\r\n        players[_player].playerCards.push(card);\r\n        \r\n        if (emitCard)\r\n            emit CardDealt(_player, card);\r\n\r\n        calculatePlayerTotal(_player);\r\n    }\r\n\r\n    function getTotalUsers() external view returns (uint256) {\r\n        return playerAddresses.length - 1;\r\n    }\r\n\r\n    function getTotalVoted() external view returns (uint8) {\r\n        uint8 votedCount;\r\n        for (uint8 i = 1; i < playerAddresses.length; i++) {\r\n            if(players[playerAddresses[i]].hasVoted)\r\n                votedCount++;\r\n        }\r\n        return votedCount;\r\n    }\r\n\r\n    function getCards() external view onlyPlayers inPlayingPhase returns (uint8[] memory) {\r\n        require(players[msg.sender].playerCards.length > 0, \"Player cards not initialized\");\r\n\r\n        // Gets the current player cards\r\n        return players[msg.sender].playerCards;\r\n    }\r\n\r\n    function getPlayerTotal() external view onlyPlayers inPlayingPhase returns (uint8) {\r\n        return players[msg.sender].playerTotal;\r\n    }\r\n    \r\n    function hasStood() external view onlyPlayers inPlayingPhase returns (bool) {\r\n        return players[msg.sender].hasStood;\r\n    }\r\n\r\n    function getDealerCard() external view onlyPlayers inPlayingPhase returns (uint8) {\r\n        require(players[address(0)].playerCards.length > 0, \"Dealer cards not initialized\");\r\n\r\n        // Gets the initial dealer card\r\n        return players[address(0)].playerCards[0];\r\n    }\r\n\r\n\r\n\r\n    function calculatePlayerTotal(address _player) internal {\r\n        uint8 total = 0;\r\n        uint8 numAces = 0;\r\n\r\n        // Count nominal value\r\n        for (uint256 i = 0; i < players[_player].playerCards.length; i++) {\r\n            uint8 cardValue = (players[_player].playerCards[i] % 13);\r\n\r\n            if (cardValue == 1) {\r\n                // Ace\r\n                numAces++;\r\n                total += 11;\r\n            } else if (cardValue >= 10 || cardValue == 0) { // a king is zero in modulo 13\r\n                // Face cards and 10\r\n                total += 10;\r\n            } else {\r\n                total += cardValue;\r\n            }\r\n        }\r\n\r\n        // Adjust for aces\r\n        while (total > 21 && numAces > 0) {\r\n            total -= 10;\r\n            numAces--;\r\n        }\r\n\r\n        players[_player].playerTotal = total;\r\n\r\n        // Check if player has stood or busted\r\n        if (total == 21 && _player != address(0)) {\r\n            // Player got 21, stood automatically\r\n            players[_player].hasStood = true;\r\n            emit PlayerStood(_player, players[_player].playerTotal);\r\n            endPlayerTurn();\r\n        } else if (total > 21 && _player != address(0)) {\r\n            // Player busted\r\n            players[_player].hasStood = true;\r\n            emit PlayerStood(_player, players[_player].playerTotal);\r\n            endPlayerTurn();\r\n        }\r\n    }\r\n\r\n    // User turn actions\r\n    function hit() external onlyPlayers inPlayingPhase {\r\n        // Ensure the player has not stood or busted\r\n        require(!players[msg.sender].hasStood, \"You have already stood or busted.\");\r\n\r\n        // Deal a new card to the player\r\n        dealCard(msg.sender, true);\r\n    }\r\n\r\n    function stand() external onlyPlayers inPlayingPhase {\r\n        // Ensure the player has not stood or busted\r\n        require(!players[msg.sender].hasStood, \"You have already stood or busted.\");\r\n\r\n        // Stand and end turn\r\n        players[msg.sender].hasStood = true;\r\n        emit PlayerStood(msg.sender, players[msg.sender].playerTotal);\r\n        endPlayerTurn();\r\n    }\r\n    \r\n    function endPlayerTurn() internal {\r\n        // Check if all players have stood or busted\r\n        bool allPlayersDone = true;\r\n        for (uint256 i = 1; i < playerAddresses.length; i++) {\r\n            if (!players[playerAddresses[i]].hasStood) {\r\n                allPlayersDone = false;\r\n                break;\r\n            }\r\n        }\r\n        \r\n        if (allPlayersDone) {\r\n            // Dealer's turn\r\n            // Reveal second dealer card\r\n            emit CardDealt(address(0), players[address(0)].playerCards[1]);\r\n            while (players[address(0)].playerTotal < 17) {\r\n                // Deal with emiting reveal of all other cards\r\n                dealCard(address(0), true);\r\n            }\r\n\r\n            // Determine the winner\r\n            uint8 dealerTotal = players[address(0)].playerTotal;\r\n            bool dealerBusted = dealerTotal > 21;\r\n            // Initialize winnings array\r\n            Structs.Payment[] memory winnings = new Structs.Payment[](playerAddresses.length - 1);\r\n\r\n            // Start at 1 to skip dealer\r\n            for (uint256 i = 1; i < playerAddresses.length; i++) {\r\n                address playerAddr = playerAddresses[i];\r\n                uint8 playerTotal = players[playerAddr].playerTotal;\r\n                bool busted = playerTotal > 21;\r\n\r\n                // si dealerBusted ganas si ests stood y no busted\r\n                // si no dealerBusted ganas si ests stood, no busted y tienes ms puntos que el dealer\r\n                bool playerWon = !busted && (dealerBusted || dealerTotal <= playerTotal);\r\n                bool playerBlackjack = playerTotal == 21 && players[playerAddr].playerCards.length == 2;\r\n    \r\n    \r\n                // Insert into winnings array\r\n                if (playerBlackjack) {\r\n                   winnings[i - 1] = Structs.Payment({\r\n                        addr: playerAddr,\r\n                        amount: int256(players[playerAddr].bet * 3 / 2)\r\n                    });\r\n                } else if (playerWon) {\r\n                    winnings[i - 1] = Structs.Payment({\r\n                        addr: playerAddr,\r\n                        amount: int256(players[playerAddr].bet)\r\n                    });\r\n                } else {\r\n                    winnings[i - 1] = Structs.Payment({\r\n                        addr: playerAddr,\r\n                        amount:  -int256(players[playerAddr].bet)\r\n                    });\r\n                }\r\n                emit GameResult(playerAddresses[i], playerWon, playerBlackjack);\r\n            }\r\n            // Pay out users\r\n            mainContract.modifyFunds(winnings, false);\r\n\r\n            // Reset game\r\n            resetGame();\r\n        }\r\n    }\r\n\r\n    function resetGame() internal {\r\n        // Delete players from previous game\r\n        for (uint256 i = 0; i < playerAddresses.length; i++) {\r\n            delete players[playerAddresses[i]];\r\n        }\r\n        // Clear the players array\r\n        delete playerAddresses;\r\n        playerAddresses = new address[](0);\r\n\r\n        // Insert the dealer player\r\n        playerAddresses.push(address(0));\r\n        players[address(0)].isDealer = true;\r\n        players[address(0)].hasVoted = true;\r\n        \r\n        // Set the phase to betting\r\n        phase = GamePhase.Betting;\r\n        totalBets = 0;\r\n        // Emit game phase change vent\r\n        emit GamePhaseChanged(phase);\r\n    }\r\n}",
  "sourcePath": "C:\\Users\\Pablo\\Desktop\\DistributedCasino\\contracts\\Blackjack.sol",
  "compiler": {
    "name": "solc",
    "version": "0.8.19+commit.7dd6d404.Emscripten.clang"
  },
  "schemaVersion": "3.4.16",
  "updatedAt": "2023-12-09T21:57:22.661Z",
  "networkType": "ethereum",
  "devdoc": {
    "kind": "dev",
    "methods": {},
    "version": 1
  },
  "userdoc": {
    "kind": "user",
    "methods": {},
    "version": 1
  }
}