{
  "contractName": "Coinflip",
  "abi": [
    {
      "inputs": [],
      "stateMutability": "nonpayable",
      "type": "constructor"
    },
    {
      "anonymous": false,
      "inputs": [
        {
          "indexed": false,
          "internalType": "bool",
          "name": "heads_win",
          "type": "bool"
        },
        {
          "indexed": false,
          "internalType": "uint256",
          "name": "amount_win",
          "type": "uint256"
        }
      ],
      "name": "CoinFlipResult",
      "type": "event"
    },
    {
      "inputs": [],
      "name": "heads",
      "outputs": [
        {
          "internalType": "address payable",
          "name": "",
          "type": "address"
        }
      ],
      "stateMutability": "view",
      "type": "function",
      "constant": true
    },
    {
      "inputs": [],
      "name": "owner",
      "outputs": [
        {
          "internalType": "address",
          "name": "",
          "type": "address"
        }
      ],
      "stateMutability": "view",
      "type": "function",
      "constant": true
    },
    {
      "inputs": [],
      "name": "tails",
      "outputs": [
        {
          "internalType": "address payable",
          "name": "",
          "type": "address"
        }
      ],
      "stateMutability": "view",
      "type": "function",
      "constant": true
    },
    {
      "inputs": [],
      "name": "resetCoinflip",
      "outputs": [],
      "stateMutability": "nonpayable",
      "type": "function"
    },
    {
      "inputs": [
        {
          "internalType": "uint256",
          "name": "selection",
          "type": "uint256"
        }
      ],
      "name": "enter",
      "outputs": [],
      "stateMutability": "payable",
      "type": "function",
      "payable": true
    },
    {
      "inputs": [],
      "name": "voteStart",
      "outputs": [],
      "stateMutability": "nonpayable",
      "type": "function"
    }
  ],
  "bytecode": "0x60806040526000600160006101000a81548173ffffffffffffffffffffffffffffffffffffffff021916908373ffffffffffffffffffffffffffffffffffffffff1602179055506000600260006101000a81548173ffffffffffffffffffffffffffffffffffffffff021916908373ffffffffffffffffffffffffffffffffffffffff16021790555060016003556000600460006101000a81548160ff0219169083151502179055506000600460016101000a81548160ff0219169083151502179055503480156100cf57600080fd5b50336000806101000a81548173ffffffffffffffffffffffffffffffffffffffff021916908373ffffffffffffffffffffffffffffffffffffffff160217905550610f158061011f6000396000f3fe6080604052600436106100555760003560e01c80633058ae6f1461005a5780638da5cb5b14610071578063a59f3e0c1461009c578063b8b23831146100b8578063bb0e5a4e146100e3578063e031535b1461010e575b600080fd5b34801561006657600080fd5b5061006f610125565b005b34801561007d57600080fd5b5061008661026f565b6040516100939190610932565b60405180910390f35b6100b660048036038101906100b19190610988565b610293565b005b3480156100c457600080fd5b506100cd6104e9565b6040516100da91906109d6565b60405180910390f35b3480156100ef57600080fd5b506100f861050f565b60405161010591906109d6565b60405180910390f35b34801561011a57600080fd5b50610123610535565b005b60008054906101000a900473ffffffffffffffffffffffffffffffffffffffff1673ffffffffffffffffffffffffffffffffffffffff163373ffffffffffffffffffffffffffffffffffffffff16146101b3576040517f08c379a00000000000000000000000000000000000000000000000000000000081526004016101aa90610a74565b60405180910390fd5b6000600460006101000a81548160ff0219169083151502179055506000600460016101000a81548160ff0219169083151502179055506000600160006101000a81548173ffffffffffffffffffffffffffffffffffffffff021916908373ffffffffffffffffffffffffffffffffffffffff1602179055506000600260006101000a81548173ffffffffffffffffffffffffffffffffffffffff021916908373ffffffffffffffffffffffffffffffffffffffff160217905550565b60008054906101000a900473ffffffffffffffffffffffffffffffffffffffff1681565b60008114806102a25750600181145b6102e1576040517f08c379a00000000000000000000000000000000000000000000000000000000081526004016102d890610b06565b60405180910390fd5b6000810361037f57600073ffffffffffffffffffffffffffffffffffffffff16600160009054906101000a900473ffffffffffffffffffffffffffffffffffffffff1673ffffffffffffffffffffffffffffffffffffffff161461037a576040517f08c379a000000000000000000000000000000000000000000000000000000000815260040161037190610b72565b60405180910390fd5b610411565b600073ffffffffffffffffffffffffffffffffffffffff16600260009054906101000a900473ffffffffffffffffffffffffffffffffffffffff1673ffffffffffffffffffffffffffffffffffffffff1614610410576040517f08c379a000000000000000000000000000000000000000000000000000000000815260040161040790610bde565b60405180910390fd5b5b600354341015610456576040517f08c379a000000000000000000000000000000000000000000000000000000000815260040161044d90610c70565b60405180910390fd5b600081036104a45733600160006101000a81548173ffffffffffffffffffffffffffffffffffffffff021916908373ffffffffffffffffffffffffffffffffffffffff1602179055506104e6565b33600260006101000a81548173ffffffffffffffffffffffffffffffffffffffff021916908373ffffffffffffffffffffffffffffffffffffffff1602179055505b50565b600160009054906101000a900473ffffffffffffffffffffffffffffffffffffffff1681565b600260009054906101000a900473ffffffffffffffffffffffffffffffffffffffff1681565b600160009054906101000a900473ffffffffffffffffffffffffffffffffffffffff1673ffffffffffffffffffffffffffffffffffffffff163373ffffffffffffffffffffffffffffffffffffffff1614806105de5750600260009054906101000a900473ffffffffffffffffffffffffffffffffffffffff1673ffffffffffffffffffffffffffffffffffffffff163373ffffffffffffffffffffffffffffffffffffffff16145b61061d576040517f08c379a000000000000000000000000000000000000000000000000000000000815260040161061490610d02565b60405180910390fd5b600160009054906101000a900473ffffffffffffffffffffffffffffffffffffffff1673ffffffffffffffffffffffffffffffffffffffff163373ffffffffffffffffffffffffffffffffffffffff16036106e85760001515600460009054906101000a900460ff161515146106c8576040517f08c379a00000000000000000000000000000000000000000000000000000000081526004016106bf90610d94565b60405180910390fd5b6001600460006101000a81548160ff02191690831515021790555061075a565b60001515600460019054906101000a900460ff1615151461073e576040517f08c379a000000000000000000000000000000000000000000000000000000000815260040161073590610d94565b60405180910390fd5b6001600460016101000a81548160ff0219169083151502179055505b600460009054906101000a900460ff1680156107825750600460019054906101000a900460ff165b156107905761078f610792565b5b565b60004340426040516020016107a8929190610e00565b6040516020818303038152906040528051906020012060001c90506000806002836107d39190610e5b565b1490507f1cd1400562103aa5d702a9031d56ceece581f2427af8fce567a97241d3c4f4838147604051610807929190610eb6565b60405180910390a1801561088357600160009054906101000a900473ffffffffffffffffffffffffffffffffffffffff1673ffffffffffffffffffffffffffffffffffffffff166108fc479081150290604051600060405180830381858888f1935050505015801561087d573d6000803e3d6000fd5b506108ed565b600260009054906101000a900473ffffffffffffffffffffffffffffffffffffffff1673ffffffffffffffffffffffffffffffffffffffff166108fc479081150290604051600060405180830381858888f193505050501580156108eb573d6000803e3d6000fd5b505b5050565b600073ffffffffffffffffffffffffffffffffffffffff82169050919050565b600061091c826108f1565b9050919050565b61092c81610911565b82525050565b60006020820190506109476000830184610923565b92915050565b600080fd5b6000819050919050565b61096581610952565b811461097057600080fd5b50565b6000813590506109828161095c565b92915050565b60006020828403121561099e5761099d61094d565b5b60006109ac84828501610973565b91505092915050565b60006109c0826108f1565b9050919050565b6109d0816109b5565b82525050565b60006020820190506109eb60008301846109c7565b92915050565b600082825260208201905092915050565b7f596f75206e65656420746f20626520746865206f776e657220746f20646f207460008201527f6869730000000000000000000000000000000000000000000000000000000000602082015250565b6000610a5e6023836109f1565b9150610a6982610a02565b604082019050919050565b60006020820190508181036000830152610a8d81610a51565b9050919050565b7f53656c656374696f6e206d75737420626520302028686561647329206f72203160008201527f20287461696c7329000000000000000000000000000000000000000000000000602082015250565b6000610af06028836109f1565b9150610afb82610a94565b604082019050919050565b60006020820190508181036000830152610b1f81610ae3565b9050919050565b7f4865616473202830292069732074616b656e0000000000000000000000000000600082015250565b6000610b5c6012836109f1565b9150610b6782610b26565b602082019050919050565b60006020820190508181036000830152610b8b81610b4f565b9050919050565b7f5461696c73202831292069732074616b656e0000000000000000000000000000600082015250565b6000610bc86012836109f1565b9150610bd382610b92565b602082019050919050565b60006020820190508181036000830152610bf781610bbb565b9050919050565b7f416d6f756e74206d75737420626520626967676572207468616e20746865206d60008201527f696e696d756d2062657400000000000000000000000000000000000000000000602082015250565b6000610c5a602a836109f1565b9150610c6582610bfe565b604082019050919050565b60006020820190508181036000830152610c8981610c4d565b9050919050565b7f596f7520617265206e6f74207265676973746572656420666f7220746865206360008201527f6f696e666c697000000000000000000000000000000000000000000000000000602082015250565b6000610cec6027836109f1565b9150610cf782610c90565b604082019050919050565b60006020820190508181036000830152610d1b81610cdf565b9050919050565b7f596f75206861766520616c726561647920766f74656420666f7220746865207360008201527f7461727400000000000000000000000000000000000000000000000000000000602082015250565b6000610d7e6024836109f1565b9150610d8982610d22565b604082019050919050565b60006020820190508181036000830152610dad81610d71565b9050919050565b6000819050919050565b6000819050919050565b610dd9610dd482610db4565b610dbe565b82525050565b6000819050919050565b610dfa610df582610952565b610ddf565b82525050565b6000610e0c8285610dc8565b602082019150610e1c8284610de9565b6020820191508190509392505050565b7f4e487b7100000000000000000000000000000000000000000000000000000000600052601260045260246000fd5b6000610e6682610952565b9150610e7183610952565b925082610e8157610e80610e2c565b5b828206905092915050565b60008115159050919050565b610ea181610e8c565b82525050565b610eb081610952565b82525050565b6000604082019050610ecb6000830185610e98565b610ed86020830184610ea7565b939250505056fea2646970667358221220a15beb744f187afe2348f3b13e128e1bbbd24e40f7dc7001131c99e3ff09dbb964736f6c63430008130033",
  "immutableReferences": {},
  "source": "// SPDX-License-Identifier: MIT\r\npragma solidity 0.8.19;\r\ncontract Coinflip {\r\n\r\n    address public owner;\r\n\r\n    address payable public heads = payable(address(0x0));\r\n    address payable public tails = payable(address(0x0));\r\n    \r\n    uint256 min_bet = 1;\r\n    \r\n    bool heads_start = false;\r\n    bool tails_start = false;\r\n\r\n    event CoinFlipResult(bool heads_win, uint256 amount_win);\r\n\r\n    constructor() {\r\n        owner = msg.sender;\r\n    }\r\n    \r\n    function resetCoinflip() public {\r\n        require(msg.sender == owner, \"You need to be the owner to do this\");\r\n        heads_start = false;\r\n        tails_start = false;\r\n        heads = payable(address(0x0));\r\n        tails = payable(address(0x0));\r\n    }\r\n\r\n    function enter(uint256 selection) external payable {\r\n        require(selection == 0 || selection == 1, \"Selection must be 0 (heads) or 1 (tails)\");\r\n        if (selection == 0) {\r\n            require(heads == payable(address(0x0)), \"Heads (0) is taken\");\r\n        } else {\r\n            require(tails == payable(address(0x0)), \"Tails (1) is taken\");\r\n        }\r\n        require(msg.value >= min_bet, \"Amount must be bigger than the minimum bet\");\r\n        if (selection == 0) {\r\n            heads = payable(msg.sender);\r\n        } else {\r\n            tails = payable(msg.sender);\r\n        }\r\n    }\r\n\r\n    function voteStart() external {\r\n        require(payable(msg.sender) == heads || payable(msg.sender) == tails, \"You are not registered for the coinflip\");\r\n        if (payable(msg.sender) == heads) {\r\n            require(heads_start == false, \"You have already voted for the start\");\r\n            heads_start = true;\r\n        } else {\r\n            require(tails_start == false, \"You have already voted for the start\");\r\n            tails_start = true;\r\n        }\r\n\r\n        if(heads_start && tails_start) {\r\n            // Start the coinflip\r\n            coinFlip();\r\n        }\r\n    }\r\n\r\n    function coinFlip() private {\r\n        uint256 randomNumber = uint256(keccak256(abi.encodePacked(blockhash( block.number), block.timestamp)));\r\n        bool result = (randomNumber % 2) == 0;\r\n        emit CoinFlipResult(result, address(this).balance);\r\n        if (result) {\r\n            heads.transfer(address(this).balance);\r\n        } else {\r\n            tails.transfer(address(this).balance);\r\n        }\r\n    }\r\n}",
  "sourcePath": "C:\\Users\\Pablo\\Desktop\\DistributedCasino\\contracts\\Coinflip.sol",
  "compiler": {
    "name": "solc",
    "version": "0.8.19+commit.7dd6d404.Emscripten.clang"
  },
  "schemaVersion": "3.4.16",
  "updatedAt": "2023-11-22T20:04:48.726Z",
  "networkType": "ethereum",
  "devdoc": {
    "kind": "dev",
    "methods": {},
    "version": 1
  },
  "userdoc": {
    "kind": "user",
    "methods": {},
    "version": 1
  }
}